:020000040800F2
:1000000060870020C94100085D0200085F02000807
:1000100063020008670200086B020008000000008D
:100020000000000000000000000000006F02000857
:100030007102000800000000730200087502000849
:10004000E3410008E3410008E3410008E341000800
:10005000E3410008E3410008E3410008E3410008F0
:10006000E3410008E3410008E3410008E3410008E0
:10007000E3410008E3410008E3410008E3410008D0
:10008000E3410008E3410008E3410008E3410008C0
:1000900077020008E3410008E3410008E34100085B
:1000A000E3410008E3410008E3410008E3410008A0
:1000B000E3410008E3410008E3410008E341000890
:1000C000E3410008E3410008E3410008E341000880
:1000D000E341000809090008E3410008E341000882
:1000E000E3410008E3410008E3410008E341000860
:1000F000E3410008E3410008E3410008E341000850
:10010000E3410008E3410008E3410008E34100083F
:10011000E3410008E3410008E3410008E34100082F
:10012000E3410008E3410008E3410008E34100081F
:1001300000F002F800F03EF80AA090E8000C8244BB
:100140008344AAF10107DA4501D100F033F8AFF298
:10015000090EBAE80F0013F0010F18BFFB1A43F0A5
:1001600001031847FC6E00001C6F0000103A24BF0A
:1001700078C878C1FAD8520724BF30C830C144BF0C
:1001800004680C607047000000230024002500264E
:10019000103A28BF78C1FBD8520728BF30C148BFEA
:1001A0000B6070471FB59DE8030005F089FB1FBD7C
:1001B00010B510BD05F016FC1146FFF7F3FF00F077
:1001C00009F805F034FC03B4FFF7F2FF03BC05F0B7
:1001D00061FC000008B500F0E3FA4FF4A06004F001
:1001E00013F84FF4E13000F043FB00F0E7F901F0C1
:1001F000ADF90020042308220721009000F004FA42
:1002000000F0CCFB01F058FA21E001201049086011
:100210004FF033310F48104A1268C2E90E100E4AEF
:10022000126802F1F002C2E90E100A4601460A48BD
:100230000068C0F81822C0F81C1207480068C0F80F
:100240000823C0F80C1303F043FF03F0B0FFDCE712
:10025000940123423333E33F38000020704700BF4E
:10026000FEE700BFFEE700BFFEE700BFFEE7704706
:1002700070477047704700B585B0002000906A460F
:100280000021554804F033FE009800F4F060B0F50A
:10029000C07F3FD0B0F5B06F7ED19DF80C109DF8B7
:1002A0000D0041EA0020A0F5C040413811D02028BF
:1002B0002ED19DF80F10009800F07F00401EC0EB7B
:1002C000001246480068383000EB021080F84610F3
:1002D0001EE09DF80F10009800F07F00401EC0EB5C
:1002E00000123E480068383000EB021080F83610EB
:1002F0009DF81010009800F07F00401EC0EB001227
:1003000036480068383000EB021080F8371000BF24
:1003100000BF5DE09DF80B10009800F07F00401ECC
:10032000C0EB00122D480068383000EB021080F856
:1003300036109DF80C10009800F07F00401EC0EBB6
:10034000001226480068383000EB021080F83710A1
:100350009DF80D10009800F07F00401EC0EB0012C9
:100360001E480068383000EB021080F87E109DF8BF
:100370000E10009800F07F00401EC0EB00121748DE
:100380000068383000EB021080F87F109DF80F10E5
:10039000009800F07F0000E019E0401EC0EB001262
:1003A0000E480068383000EB021080F880109DF88D
:1003B0001010009800F07F00401EC0EB00120748AC
:1003C0000068383000EB021080F8811000E000BFB8
:1003D00000BF05B000BD00000064004038000020F0
:1003E0000CB50020019000906B48006840F480300C
:1003F0006949086000BF6848006800F40030009058
:100400000198401C0190009818B90198B0F5A06FB0
:10041000F1D16148006810F4003F02D00120009043
:1004200001E0002000900098012842D15B4800685C
:1004300040F01000594908600846006820F00300A9
:1004400008600846006840F00200086052484068B2
:10045000514948600846406848600846406840F492
:10046000806048600846406820F47C104860084678
:10047000406840F4E81048600846006840F080702A
:10048000086000BF4448006810F0007FFAD042487E
:10049000406820F00300404948600846406840F04A
:1004A0000200486000BF3C48406800F00C0008288B
:1004B000F9D10CBD10B5FFF793FF10BD10B536484C
:1004C000006840F00100344908600846406834493B
:1004D00008403149486008460068324908402E49C2
:1004E00008600846006820F48020086008464068DC
:1004F00020F4FE0048604FF41F008860FFF7DAFF29
:100500004FF000602849086010BD10B500210020A0
:100510000022214B5B6803F00C0121B1042906D0B5
:10052000082928D107E0214B214C236027E01F4BED
:100530001F4C236023E0184B5B6803F47010164BCC
:100540005B6803F48032022303EB904022B9194B1D
:100550004343174C23600DE00F4B5B6813F4003FDF
:1005600004D0144B4343124C236003E00F4B43432E
:100570000F4C236003E00D4B0D4C236000BF00BF08
:10058000054B5B68C3F303130B4CE15C084B1B6822
:10059000CB40074C236010BD0010024000200240F9
:1005A0000000FFF8FFFFF6FE08ED00E000127A0001
:1005B0000000002000093D000400002008B50121D2
:1005C000482004F0A5F92020ADF8000010208DF897
:1005D000030003208DF802006946094803F0E2FE9B
:1005E0002021074803F089FF2020ADF8000069466C
:1005F000044803F0D7FE2021024803F07EFF08BD27
:10060000000C0140001801402DE9F0418AB0044679
:100610000D4616461F46DDF840800121042004F0F7
:1006200077F90121480604F080F94FF48050ADF8C5
:10063000240003208DF8260018208DF8270009A932
:10064000554803F0AFFE4FF40060ADF82400482099
:100650008DF8270009A9504803F0A4FE00208DF86A
:100660001E008DF81F008DF8200001208DF821005C
:1006700000208DF822008DF823008DF81A808DF867
:100680001B408DF81C608DF81D50ADF8187006A940
:10069000424804F0BEF900208DF812008DF81300D6
:1006A00001208DF814000020ADF80800ADF80A0014
:1006B000ADF80C00ADF80E00ADF8100001208DF87B
:1006C000150002A804F02FFA01220221334804F099
:1006D00029FD14208DF8040001208DF8050000206C
:1006E0008DF8060001208DF8070001A803F091FDA8
:1006F00000200AB0BDE8F081F0B585B007460D4690
:10070000002412200090019000208DF808008DF840
:1007100009008DF80A5000BF05E0395D0DF10B00AE
:100720000155601C84B2AC42F7DB69461B4804F0FB
:10073000E9FA0646002401E0601C84B231461748FD
:1007400004F078FB18B940F6FF708442F4DB40F601
:10075000FF70844202DB012005B0F0BD0020FBE702
:1007600030B585B0054600210C4804F043FC10B9B3
:10077000002005B030BD6A460021084804F0B7FBF0
:10078000002404E00DF10B00005D2855641C082CCA
:10079000F8D39DF80A00ECE700080140006400402F
:1007A00010B56FF0040003F07FFD2D4800682D495F
:1007B000B0FBF1F02C4908700846007800EB4001CE
:1007C000C1EBC0104FF6FF7101EAC0002749088055
:1007D00010BD0146244A12784A434FF0E0235A6183
:1007E00000229A611A46126942F001021A6100BFA2
:1007F0004FF0E022106910F0010F02D010F4803F9A
:10080000F6D04FF0E022126922F001024FF0E0230F
:100810001A6100229A6170470146144A12884A43BD
:100820004FF0E0235A6100229A611A46126942F0A1
:1008300001021A6100BF4FF0E022106910F0010FB1
:1008400002D010F4803FF6D04FF0E022126922F07F
:1008500001024FF0E0231A6100229A617047000004
:100860000000002000127A00140000201600002072
:1008700010B586B00446012144F2040004F048F8A3
:100880004FF40070ADF8140003208DF81600182006
:100890008DF8170005A93B4803F084FD4FF48060F4
:1008A000ADF8140004208DF8170005A9354803F0B1
:1008B00079FD25208DF8000003208DF801008DF8CA
:1008C000020001208DF80300684603F0A2FC0194A9
:1008D0000020ADF80800ADF80A00ADF80C00ADF846
:1008E00010000C20ADF80E0001A9274804F0B1FD5E
:1008F000012240F22551244804F043FE0121224800
:1009000004F033FE06B010BD10B540F225511E486C
:1009100004F01CFF10B31C4804F098FEC4B21B483E
:10092000008810F4004F2BD11848008810F4804F35
:100930000CD00A2C03D000201449088020E0134872
:10094000008840F400401149088019E00D2C06D1C0
:100950000E48008840F480400C49088010E00B48A5
:100960000088C0F30D000A490C5408480088401C58
:100970000649088008460088C72801DD0020088055
:1009800010BD0000000801400038014018000020A0
:100990005800002001808270C370704710B5002499
:1009A00000BF59E1C4EB0412FD490968383101EB7D
:1009B000021101F12A001023002246F24001FFF744
:1009C000E9FFC4EB0412F6490968383101EB021162
:1009D00001F132001023002246F24101FFF7DAFF55
:1009E000C4EB0412EE490968383101EB021101F140
:1009F0003A000823002246F26001FFF7CBFFC4EB68
:100A00000412E7490968383101EB021101F1420093
:100A10000823002246F26101FFF7BCFFC4EB041279
:100A2000DF490968383101EB021101F1520020233E
:100A3000002242F26B01FFF7ADFFC4EB0412D8496C
:100A40000968383101EB021101F14A00202300222C
:100A500046F2FF01FFF79EFFC4EB0412D04909687C
:100A6000383101EB021101F15A002023002246F235
:100A70006B01FFF78FFFC4EB0412C94909683831D5
:100A800001EB021101F162002023002246F26C0109
:100A9000FFF780FFC4EB0412C1490968383101EB4C
:100AA000021101F16A002023002246F27A01FFF7C9
:100AB00071FFC4EB0412BA490968383101EB021125
:100AC00001F172002023002246F26201FFF762FF6B
:100AD000C4EB0412B2490968383101EB021101F18B
:100AE0007A002023002246F26401FFF753FFC4EB93
:100AF0000412AB490968383101EB021101F182009F
:100B00002023002246F27F01FFF744FFC4EB0412CA
:100B1000A3490968383101EB021101F18A00202351
:100B200001224FF4A051FFF735FFC4EB04129C499A
:100B30000968383101EB021101F192000823022209
:100B40004FF4A051FFF726FFC4EB04129449096843
:100B5000383101EB021101F19A00082300224FF411
:100B6000B051FFF717FFC4EB04128D490968383103
:100B700001EB021101F1A200202301224FF4B05138
:100B8000FFF708FFC4EB041285490968383101EB0F
:100B9000021101F1AA00202302224FF4B051FFF705
:100BA000F9FEC4EB04127E490968383101EB0211E9
:100BB00001F1B200202301224FF4C051FFF7EAFEF9
:100BC000C4EB041276490968383101EB021101F1D6
:100BD000BA00082302224FF4C051FFF7DBFEC4EB3A
:100BE00004126F490968383101EB021101F1C200AA
:100BF000082300224FF4D051FFF7CCFEC4EB0412BF
:100C000067490968383101EB021101F1CA0020235C
:100C100001224FF4D051FFF7BDFEC4EB041260492E
:100C20000968383101EB021101F1D20020230222C0
:100C30004FF4D051FFF7AEFEC4EB041258490968D7
:100C4000383101EB021101F1DA001023002241F2E8
:100C50001701FFF79FFE641C042CFFF6A3AE10BD26
:100C600070B586B004460D461646601C40F4C06060
:100C7000019000208DF80C008DF80D0008208DF8F3
:100C80000E00C4EB041146480068383000EB011038
:100C90002A3000EBC500C078082806D0102813D0F1
:100CA00018282CD020287DD150E0C4EB04123C48F9
:100CB0000068383000EB02102A3000EBC5000671E6
:100CC0002F208DF80F0079E0C4EB0412344800683F
:100CD000383000EB02102A3000EBC5000671310AF3
:100CE000C4EB04122E480068383000EB02102A30A2
:100CF00000EBC50041712B208DF80F005EE0C4EBC6
:100D0000041227480068383000EB02102A3000EB4C
:100D1000C5000671310AC4EB04122148006838305E
:100D200000EB02102A3000EBC5004171310CC4EB1E
:100D300004121B480068383000EB02102A3000EB28
:100D4000C500817127208DF80F0037E0C4EB041235
:100D500013480068383000EB02102A3000EBC50061
:100D60000671310AC4EB04120D480068383000EBFC
:100D700002102A3000EBC5004171310CC4EB0412A3
:100D800007480068383000EB02102A3000EBC5003D
:100D90008171310EC4EB041201480068383002E062
:100DA0003800002009E000EB02102A3000EBC500FB
:100DB000C17123208DF80F0000E000BF00BFC4EB1D
:100DC000041194480068383000EB01102A3010F804
:100DD00035108DF81010C4EB04118E4800683830BF
:100DE00000EB01102A3030F83500010A8DF811109F
:100DF000C4EB041187480068383000EB01102A303A
:100E000000EBC50081788DF81210C4EB0411814805
:100E10000068383000EB01102A3000EBC500017982
:100E20008DF81310C4EB04117A480068383000EBD9
:100E300001102A3000EBC50041798DF81410C4EB85
:100E4000041174480068383000EB01102A3000EBC0
:100E5000C50081798DF81510C4EB04116D48006848
:100E6000383000EB01102A3000EBC500C1798DF855
:100E7000161001A9684803F045FF06B070BD30B5F3
:100E800085B004460D46601C40F4C0600090002010
:100E90008DF808008DF8090008208DF80A00402020
:100EA0008DF80B00C4EB04115A480068383000EB91
:100EB00001102A3010F835108DF80C10C4EB041115
:100EC00054480068383000EB01102A3030F8350003
:100ED000010A8DF80D10C4EB04114E48006838303B
:100EE00000EB01102A3000EBC50081788DF80E1060
:100EF0006946494803F006FF05B030BD00B585B02E
:100F0000002000908DF808008DF8090002208DF86F
:100F10000A0001208DF80B0000218DF80C106946A5
:100F20003D4803F0EFFE05B000BD00B585B00020E0
:100F300000908DF808008DF8090002208DF80A0055
:100F400080208DF80B0000218DF80C106946324886
:100F500003F0D8FE05B000BD00B585B0802000903C
:100F600000208DF808008DF8090002208DF80A0095
:100F700080208DF80B0000218DF80C106946264862
:100F800003F0C0FE05B000BD10B586B00446601C7D
:100F900040F40070019000208DF80C008DF80D00D9
:100FA00006208DF80E000F208DF80F0000218DF81F
:100FB0001010C4EB041117480068383000EB011022
:100FC000017C8DF81110C4EB041112480068383010
:100FD00000EB0110008A010A8DF81210C4EB041115
:100FE0000C480068383000EB01100069010C8DF8E6
:100FF0001310C4EB041107480068383000EB0110EF
:101000000069010E8DF8141001A9034803F07AFE5F
:1010100006B010BD380000200064004010B5FFF796
:101020004DFA0121084603F073FC0121084603F044
:1010300062FC0121480603F078FC0121480203F01C
:1010400067FC01217D2003F063FC10BD08B57F2003
:10105000ADF8000010208DF8030003208DF8020089
:101060006946FE4803F09EF94FF4FF40ADF80000DA
:1010700048208DF8030003208DF802006946F748E8
:1010800003F090F9F020ADF8000048208DF803003F
:1010900003208DF802006946F14803F083F94FF20E
:1010A0000300ADF8000048208DF8030003208DF800
:1010B00002006946EB4803F075F94FF47C70ADF817
:1010C000000048208DF8030003208DF802006946D7
:1010D000E54803F067F94FF47F40ADF80000482081
:1010E0008DF8030003208DF802006946DF4803F005
:1010F00059F90320ADF8000048208DF803000320C3
:101100008DF802006946D94803F04CF94FF4E040ED
:10111000ADF8000010208DF8030003208DF80200C8
:101120006946D14803F03EF90420ADF800001020D4
:101130008DF8030003208DF802006946CB4803F0C8
:1011400031F95020ADF8000048208DF8030003204D
:101150008DF802006946C34803F024F95020ADF829
:10116000000048208DF8030003208DF80200694636
:10117000BE4803F017F9A820ADF8000010208DF844
:10118000030003208DF802006946B84803F00AF90D
:1011900008BD08B54FF4C06003F036F814208DF890
:1011A000000002208DF8010000208DF802000120CF
:1011B0008DF80300684603F02CF825208DF8000018
:1011C00001208DF8010000208DF8020001208DF82B
:1011D0000300684603F01DF826208DF8000000206B
:1011E0008DF801008DF8020001208DF8030068469B
:1011F00003F00FF834208DF8000001208DF8010075
:101200008DF802008DF80300684603F002F83620DE
:101210008DF8000002208DF8010006208DF80200F4
:1012200001208DF80300684602F0F3FF08BD01B508
:1012300002E00098401E009000980028F9D108BDF7
:1012400000B585B00121880303F062FB4FF4007004
:10125000ADF8100003208DF8120018208DF813004F
:1012600004A97F4803F09EF84FF48060ADF81000A9
:1012700004208DF8130004A9794803F093F84FF483
:10128000165000900020ADF80400ADF80600ADF84F
:101290000800ADF80C000C20ADF80A00694674484F
:1012A00004F0D7F8012240F22551714804F069F9A1
:1012B00001216F4804F059F905B000BD00B585B0B3
:1012C0000121480403F031FB0420ADF81000032095
:1012D0008DF8120018208DF8130004A9604803F05F
:1012E00061F80820ADF8100004208DF8130004A95F
:1012F0005B4803F057F84FF4E13000900020ADF860
:101300000400ADF80600ADF80800ADF80C000C20A4
:10131000ADF80A006946574804F09BF8012240F2F4
:101320002551544804F02DF9002240F2266151481D
:1013300004F027F901214F4804F017F905B000BD6A
:1013400000B585B00121C80403F0EFFA4FF48060C6
:10135000ADF8100003208DF8120018208DF813004E
:1013600004A9414803F01EF84FF40060ADF81000E6
:1013700004208DF8130004A93B4803F013F84FF440
:10138000165000900020ADF80400ADF80600ADF84E
:101390000800ADF80C000C20ADF80A00694636488C
:1013A00004F057F8012240F22551334804F0E9F8DF
:1013B0000121314804F0D9F805B000BD00B589B06D
:1013C00001214FF4EA1003F0BCF84FF48070ADF83F
:1013D000040048208DF8070001A9224802F0E2FF2E
:1013E0004FF40070ADF8040018208DF807000320BA
:1013F0008DF8060001A91B4802F0D4FF1F4803F036
:10140000EFFA06A803F010FC00208DF81E00012062
:101410008DF81F0000208DF820008DF821008DF838
:10142000220001208DF8230000208DF81A008DF88D
:101430001B0001208DF81C0002208DF81D0006A95C
:101440000E4803F0E6FA00208DF812008DF8130024
:1014500001208DF81400002012E000000018014067
:1014600000080140000C0140001001400014014040
:101470000038014000440040004C0040006400403F
:10148000ADF80800ADF80A00ADF80C00ADF80E009C
:10149000ADF8100001208DF8150002A803F043FB01
:1014A00001220221F84803F03DFE002009B000BDF2
:1014B00070B5FFF7B3FDFFF7C9FDFFF76AFEF3490B
:1014C000B1F1807F01D301201DE021F07F40401E5B
:1014D0004FF0E022506150170F22002807DA13075F
:1014E0001D0EEB4B00F00F04241F1D5503E01307E6
:1014F0001C0EE84B1C5400BF00204FF0E02290610E
:1015000007201061002001280FD10DE00121E248E1
:1015100002F0F3FFE148FFF78AFE0121DE4802F006
:10152000EEFFDE48FFF783FEF0E70421DA4802F021
:10153000E6FF0821D84802F0E0FFFFF781FEFFF741
:10154000BDFEFFF7FDFEFFF739FF70BD10B54FF48C
:10155000B96004F03FF9D249086008460068D149F3
:101560000860CF480068C030CF490860CC480068A8
:1015700000F5C470CD490860C948006800F5B06046
:10158000CB490860C648006800F2A450C949086009
:10159000C949CA48C44A1268C2E90010C849C948C2
:1015A000C14A1268C2E90210C749C848BE4A126857
:1015B000C2E904100021C648BB4A1268C2E90610FD
:1015C000C448B94A1268C2E908104FF03331C24822
:1015D000B54A126842F8881F50600020BF49B24ADD
:1015E000126842F8900F5160BD48BE49AE4A126879
:1015F00042F8980F51600021BB48AB4A1268C2E91B
:101600001C10A94A12689167D167B549B748A64A24
:101610001268C2E912100121A4480068C164A348FD
:101620000068C0F83C11A1480068C0F82C129F481F
:101630000068C0F81C139D480068C0F80C149B4853
:101640000068C0F8FC140020964A126842F8980F0F
:101650005060944A126842F8A00F50600021914AED
:10166000126842F8A81F516010BD70B502460C46C2
:10167000002300214FF6FF7010E012F8015B684074
:10168000002309E010F0010F04D04AF2010585EAB9
:10169000500000E040085B1C082BF3DB2500A4F1A0
:1016A0000106F4B2E9D101464FF47F4505EA002076
:1016B000C1F30721084470BD70B50A250024002637
:1016C0000DE001208A4908608A48FFF7B0FD00203C
:1016D0008949C1F894018748FFF7A9FD6D1E002DC7
:1016E000EFDC1E2544E10026802200210846FFF79A
:1016F000B7FA002438E1C4EB04116C4800683830B4
:1017000000EB011090F8280030B101287ED00228AB
:101710007DD003287CD122E104F201220C21204655
:10172000FFF79EFA44F62060FFF781FD01220D21AC
:101730002046FFF795FA44F62060FFF778FD022275
:101740000E212046FFF78CFA44F62060FFF76FFD6C
:101750006A4A0F212046FFF783FA44F62060FFF71C
:1017600066FD674A10212046FFF77AFA44F62060AA
:10177000FFF75DFD6348221811212046FFF770FA3C
:1017800044F62060FFF753FD012212212046FFF7A7
:1017900067FA44F62060FFF74AFD02221321204633
:1017A000FFF75EFA44F62060FFF741FD564A142128
:1017B0002046FFF755FA44F62060FFF738FD534AFC
:1017C00015212046FFF74CFA44F62060FFF72FFD65
:1017D00042F2107216212046FFF742FA44F62060CA
:1017E000FFF725FD032202212046FFF739FA44F6D0
:1017F0002060FFF71CFD03212046FFF740FB44F665
:101800002060FFF714FDC4EB041102E015E07FE057
:10181000A7E026480068383000EB011090F8460039
:10182000032809D10121C4EB041220480068383094
:1018300000EB021080F8281094E0062200212046D8
:10184000FFF70EFA44F62060FFF7F1FC0121204675
:10185000FFF715FB44F62060FFF7E9FCC4EB041129
:1018600012480068383000EB011090F8360021284B
:1018700009D10221C4EB04120C480068383000EB97
:10188000021080F828106DE000640040401901004B
:1018900018ED00E000E400E00018014040420F00B5
:1018A0002C000020300000203400002038000020F0
:1018B0003C00002040000020F6285C8FC2F5E03F8D
:1018C000D7A3703D0AD7E33FFB3FD94F8A6DE43F72
:1018D000000044400040AF403333D33F0000F03FAE
:1018E0007B14AE47E17A943F00000840E17A843FE0
:1018F00094812142C0C62D0000802142100040602A
:101900002000FF6081010040100041602000646001
:101910000F2200212046FFF7A3F944F62060FFF7CD
:1019200086FC01212046FFF7AAFA44F62060FFF763
:101930007EFCC4EB0411FE480068383000EB011057
:1019400090F83600372809D10321C4EB0412F84877
:101950000068383000EB021080F8281002E0761C96
:1019600000E000BF00BF641C042CFFF6C4AE6D1E77
:10197000002D02DD042E7FF4B6AE042E1CD1FFF73D
:10198000BDFA00250FE00120EA49086047F2305017
:10199000FFF74DFC0020E849C1F8940147F23050B0
:1019A000FFF745FC6D1C502DEDDCFFF7D5FA4EF628
:1019B0006020FFF73CFC0EE00CE00120DD490860F0
:1019C000DE48FFF734FC0020DB49C1F89401DB4816
:1019D000FFF72DFCF1E770BD2DE9F04F93B04FF00C
:1019E000000A20210AA803F024FF00BF00BF00BFA7
:1019F00000BFF8E0CAEB0A11CD480068383000EBB0
:101A0000011090F8360008B1012000E0002010F02D
:101A1000080F09D1CAEB0A11C5480068383000EB3D
:101A2000011090F8360048B9C548006890F8C20027
:101A300040F00100C249096881F8C200CAEB0A12ED
:101A4000BB490968383101EB0211486904F089FE8D
:101A5000CDE90401BA4800680022BA4BD0E906B1CA
:101A6000584604F0E5FECDE90201DDE9042304F067
:101A7000DFFECAEB0A12CDE90801AD490968383129
:101A800001EB0211D1F8660004F06BFECDE9040110
:101A9000AB480168D1E904B35A46DDE9040104F01A
:101AA000C7FECDE90601DDE9082304F0D3FCCAEB4B
:101AB0000A139F4A1268383202EB0312C2E902018C
:101AC000CAEB0A129A490968383101EB02114869D8
:101AD00004F047FECDE9040199480168D1E9080105
:101AE000CDE9000196480168D1E906B15846DDE923
:101AF000002304F09DFECDE90201DDE9042304F09A
:101B000097FECAEB0A12CDE9080189490968383104
:101B100001EB0211D1F87E0004F023FECDE90401AF
:101B200087480168D1E904B35A46DDE9040104F0AD
:101B30007FFECDE90601DDE9082304F08BFCCAEB4A
:101B40000A137B4A1268383202EB0312C2E906011B
:101B50007D4850F82A00A8B9CAEB0A1174480068F9
:101B6000383000EB0111D1E90601CAEB0A13704AC3
:101B70001268383202EB0312C2E9080101207249EF
:101B800041F82A00CAEB0A1169480068383000EBB6
:101B90000111D1E90801CDE90801CAEB0A11644835
:101BA0000068383000EB0110D0E906B15846DDE995
:101BB000082305F063F80AAA02EBCA0203C2CAEBC3
:101BC0000A115B480068383000EB0111D1E90601C9
:101BD000CAEB0A13564A1268383202EB0312C2E902
:101BE00008010AF1010ABAF1040FFFF603AFDDE9BB
:101BF0000C01CDE90201DDE90AB35A4604F06EFB9F
:101C0000CDE90401DDE90EB35A4604F067FBCDE9E6
:101C10000601DDE910B35A4604F060FB00224B4B8D
:101C2000CDE9080104F016FC04460D46DDE90A0181
:101C300081F00041CDE90201DDE90CB35A4604F020
:101C40004DFBCDE90401DDE90EB35A4604F046FB35
:101C5000CDE90601DDE910B35A4605F00FF8002280
:101C60003A4BCDE9080104F0F5FB06460F4634482F
:101C70000168D1E902B3006803C85A46CDE9020100
:101C800004F02CFB00224FF08043CDE9040104F066
:101C9000CFFDCDE90801DDE90A0181F00041CDE980
:101CA0000001DDE90CB35A4604F018FBCDE902014E
:101CB000DDE90EB35A4604F0E1FFCDE90401DDE9A8
:101CC00010B35A4604F00AFBCDE90601DDE908230A
:101CD00004F0C0FB804689461D48006850F8A82FD4
:101CE0004168104604F07CFA32463B46CDE90201D9
:101CF00004F09EFDCDE906011548016851F8A82FB2
:101D00004968104604F016FA22462B46CDE9020136
:101D100004F08EFDCDE90401DDE9062304F0AEFFF9
:101D2000CDE908010A48006850F898BF5A4611E00A
:101D300038000020948121420080214240548900D3
:101D40003400002000004E40C4020020000010407B
:101D5000300000204368089804F0C0FAFE4A126878
:101D600042F8980F5160FC48016851F8A82F496863
:101D7000104604F0DFF932463B46CDE9020104F09B
:101D800057FDCDE90601F448016851F8A82F4968CC
:101D9000104604F025FA22462B46CDE9020104F054
:101DA00047FDCDE90401DDE9062304F097FACDE90A
:101DB0000801E948006850F8A0BF5A4643680898EF
:101DC00004F08CFAE44A126842F8A00F5160E2482D
:101DD000006850F8A8BF42464B464168584604F098
:101DE0007DFADD4A126842F8A80F5160DA480068AF
:101DF00050F8A82F4168104604F0F2F932463B46ED
:101E0000CDE9020104F014FDCDE90601D2480068D5
:101E100050F8A82F4168104604F08CF922462B4652
:101E2000CDE9020104F004FDCDE90401DDE906235A
:101E300004F024FFC94ACA4BCDE9080104F00AFBAB
:101E4000C54A126842F8800F5160C348006850F8D4
:101E5000A82F4168104604F06DF932463B46CDE9A3
:101E6000020104F0E5FCCDE90601BB48016851F828
:101E7000A82F4968104604F0B3F922462B46CDE955
:101E8000020104F0D5FCCDE90401DDE9062304F0EC
:101E900025FAB24AB24BCDE9080104F0DBFAAE4AAA
:101EA000126842F8880F5160AC4AAD4B4046494633
:101EB00004F0D0FAA84A126842F8900F516013B0AB
:101EC000BDE8F08F70477047704700B59DB00020A7
:101ED0001B9000211A9100BF00BF00BF1391129008
:101EE000A04909684876A048006890F8C000012819
:101EF00070D19C490968487600201A900AE09B48F6
:101F000001681A98095C1B980844C1B21B911A9881
:101F1000401C1A901A982028F1DB9448006890F829
:101F200020101B98814254D191480078401C904960
:101F3000087008460078119000EBD070411011989D
:101F4000B0EB410004D102218A4802F0D8FA03E044
:101F50000221884802F0D1FA0220824909684876B5
:101F600082480068807F732835D100207E49096847
:101F700081F8C4007D48006800680F9004F0F1FB10
:101F800000227D4BCDE9100104F064FA724A126818
:101F900003C27648006840680F9004F0E2FB00221C
:101FA000754BCDE9100104F055FA6B4A1268C2E98D
:101FB00002016E48006880680F9004F0D2FB002296
:101FC0006D4BCDE9100104F045FA634A1268C2E98D
:101FD0000401D3E2D7E265480068807F72287DD192
:101FE000032060490968487660480068007F01283E
:101FF00075D15E4800684069119004F0B2FB564A02
:10200000126842F8B00F516058480068816908466C
:10201000119104F0A6FB504A126842F8B80F5160C3
:1020200052480068016808460D9104F09AFB534A33
:10203000534BCDE90E0104F0FBFB0022514BCDE9DF
:10204000100104F007FA444A126842F8A80F5160E0
:102050004148006850F8A81F4068CDE906100846BE
:10206000079904F0BDF8CDE90A014048006881688D
:102070000846039104F075FB384A434BCDE904014F
:1020800004F0D6FB414A424BCDE9060104F0D0FBF7
:10209000CDE90801DDE90A2304F0CAFBCDE90E0110
:1020A0002D48006850F8A81F4068CDE90610084682
:1020B000079904F03FF8CDE90A012C480068406810
:1020C000039004F04EFB254A2F4BCDE9040104F0A8
:1020D000AFFB2E4A2E4BCDE9060101E067E1A2E0FD
:1020E00004F0A6FBCDE90801DDE90A2304F0A0FB1A
:1020F000CDE90C01DDE90E2304F0C0FDCDE91001AE
:102100001548016851F8B00F4968CDE90E01DDE9C5
:10211000102304F0E3F8104A126842F8980F516057
:102120000D48016851F8A80F4968CDE9060104F08F
:1021300001F8CDE90A010D4800688168084603915D
:1021400004F00FFB054A104BCDE9040104F070FBCD
:102150000E4A0F4B1EE00000300000207B14AE47FB
:10216000E17A943F40000020340000203C00002031
:10217000280000200018014000408F404AD8124D2E
:10218000FB2109400094D140E17A843F4D840D4FFA
:10219000AF94953FCDE9060104F04AFBCDE9080173
:1021A000DDE90A2304F044FBCDE90E01FE48006896
:1021B00050F8A81F4068CDE906100846079904F0BA
:1021C0000FF8CDE90A01F94800684068039004F06F
:1021D000C8FAF74AF74BCDE9040104F029FBF64AA7
:1021E000F64BCDE9060104F023FBCDE90801DDE95A
:1021F0000A2304F01DFBCDE90C01DDE90E2304F0F8
:102200006DF8CDE91001E848016851F8B80F496848
:10221000CDE90E01DDE9102304F060F8E24A12680E
:1022200042F8A00F5160E1480068C068119004F0C6
:1022300098FADD4A1268C2E90E01DC4800680169BB
:102240000846119104F08DFAD74A1268C2E91001CC
:10225000D6480068407FDA49096888423BD0D248B6
:10226000006850F8981F40680022D64BCDE90C104A
:1022700008460D9904F032F8CDE90E0104F042FA57
:10228000119004F06EFAC84A1268C2E91801C648F3
:10229000016851F8A00F49680022CA4BCDE90C0132
:1022A00004F01CF8CDE90E0104F02CFA119004F0B2
:1022B00058FABD4A1268C2E91A010020BA490968F1
:1022C00081F87800B849096881F87900B748006852
:1022D000407FBB490860BA480078BB490968087666
:1022E000B1480168D1E9100121F00041CDE90E01AA
:1022F000AD480168D1E90E0121F00041CDE90C01A2
:10230000DDE90E2303F0EAFF0022B04BCDE9100116
:1023100004F08EFAA44A1268C2E91401A3480068C6
:10232000C068A24909680969484300280DD19F483F
:102330000068C068002809DD9C480068006928B969
:102340000021994A12689164D16417E197480068A6
:10235000C06800280ADA95480068006930B99C49CD
:102360009C48914A1268C2E9121007E18F48006840
:10237000C06858B98D4800680069002806DD944996
:102380009548894A1268C2E91210F7E08748006848
:10239000C0680028D9D18548006800690028D4DACF
:1023A0008B498E48804A1268C2E91210E6E07F48E5
:1023B0000068807F7128C8D17C480068007F0128B0
:1023C000C3D17A48006800680D9004F0CAF9804AC9
:1023D000834BCDE90E0104F02BFA0022814BCDE9AD
:1023E000100104F037F8704A126842F8A80F5160E3
:1023F0006E480068C0680D9004F0B3F9CDE9100193
:102400006948016851F8A80F4968CDE9040103F053
:10241000E7FECDE90801654800688068019004F096
:10242000A0F9634A634BCDE9020104F001FA6E4A58
:102430006E4BCDE9040104F0FBF9CDE90601DDE9BD
:10244000082304F0F5F9CDE90C015748016851F86B
:10245000A80F4968CDE9040103F06CFECDE908013D
:10246000524800684068019004F07BF9504A514B93
:10247000CDE9020104F0DCF95B4A5C4BCDE90401D3
:1024800004F0D6F9CDE90601DDE9082304F0D0F91E
:10249000CDE90A01DDE90C2304F0F0FBCDE90E01E2
:1024A000DDE9102303F01AFF3F4A126842F8980F43
:1024B00051603E48006800690D9004F052F9CDE982
:1024C00010013948016851F8A80F4968CDE90401A5
:1024D00003F030FECDE90801344800688168084601
:1024E000019104F03EF9324A324BCDE9020104F089
:1024F0009FF93D4A3D4BCDE9040104F099F9CDE93E
:102500000601DDE9082304F093F9CDE90C01264822
:10251000006850F8A81F4068CDE9041008460599E6
:1025200003F05EFECDE908012048006841680846D6
:10253000019104F016F91E4A1E4BCDE9020104F088
:1025400077F9294A294BCDE9040104F071F9CDE965
:102550000601DDE9082304F06BF9CDE90A01DDE9A4
:102560000C2303F0BBFECDE90E01DDE9102303F0DF
:10257000B5FE0D4A126842F8A00F516000201C49B8
:10258000096881F8C0000848006890F8780088BBA6
:102590000548006850F8A81F4068CDE90E100248B1
:1025A0000068C16C806C26E0300000203C000020F8
:1025B0007B14AE47E17A843F4D840D4FAF94953F35
:1025C000200000200000E03F400000200000F03F1D
:1025D0004AD8124DFB2109C0FB21F93FFB21F9BF6D
:1025E000FB2109400094D140C3F5285C8FC2953F80
:1025F0003400002033E0CDE90C01DDE90E2304F0C6
:102600003DFB21F00041FE4AFE4BCDE9100104F0F4
:102610000DFA1FD2FC48006850F8A81F4068CDE9A9
:102620000E10F9480168D1E91201CDE90C01DDE98C
:102630000E2304F023FB21F00041F44AF44BCDE9D2
:10264000100104F0B9F805D20620EF49096881F8B5
:10265000780004E00720EC49096881F87800EA482E
:10266000006890F87800062805D0E748006890F8E0
:10267000780007287ED1E448006850F8981F406829
:102680000022E44BCDE90A1008460B9903F026FE20
:10269000CDE90C0104F036F80F9004F062F8CDE9B2
:1026A0001001D948016851F8980F4968CDE90E0129
:1026B000DDE9102304F0E2FACDE91601D248016801
:1026C00051F8A00F49680022D24BCDE90A0103F06E
:1026D00005FECDE90C0104F015F80F9004F041F867
:1026E000CDE91001C848016851F8A00F4968CDE94B
:1026F0000E01DDE9102304F0C1FACDE91401C2484E
:10270000016851F8A80F4968CDE9080103F068FD98
:10271000CDE90A01DDE9142304F08AF8CDE90E01C0
:10272000B948006850F8A81F4068CDE9081008466D
:10273000099903F0FFFCCDE90A01DDE9162304F055
:1027400077F8CDE90C01DDE90E2303F0C7FD81F038
:1027500000410022B04BCDE9100104F069F8AA4A0B
:10276000126803C2A848016851F8A80F4968CDE96A
:10277000080100E016E203F033FDCDE90A01DDE9CE
:10278000162304F055F8CDE90E019F48016851F871
:10279000A80F4968CDE9080103F0CCFCCDE90A0196
:1027A000DDE9142304F044F8CDE90C01DDE90E2342
:1027B00004F064FA81F000410022974BCDE910014A
:1027C00004F036F8904A1268C2E902018E480168A6
:1027D00051F8A80F4968914A914BCDE9100104F0D6
:1027E00025F90FD88848016851F8A80F49688B4A25
:1027F0008C4BCDE9100104F041FA834A126842F88B
:10280000A80F51608048006890F87800072835D1FB
:102810007D48016851F8A80F4968CDE90E017A4852
:102820000168D1E91201CDE90C01DDE90E2304F0C4
:1028300025FA21F00041794A794BCDE9100103F0E6
:10284000BBFF1CD27048006850F8A81F4068CDE953
:102850000E106D480168D1E91201CDE90C01DDE9E6
:102860000E2304F00BFA4FF066326F4BCDE91001E6
:1028700003F0DEFF644A1268C2E9040158E06248CE
:10288000006850F8A81F4068CDE910105E48016844
:10289000D1E91201CDE90E01DDE9102304F0C6F8FB
:1028A00022D25948016851F8A80F49685B4A5D4B2C
:1028B000CDE90C0103F012FDCDE90E01524800688C
:1028C000C16C806CCDE90C01DDE90E2304F0D6F972
:1028D0004FF06632544BCDE9100103F0A9FF4A4A8C
:1028E0001268C2E9040123E047480168D1E91201F6
:1028F00002460B46CDE90C014848494903F0EEFC7D
:10290000CDE90E014048016851F8A80F4968CDE9AA
:102910000C01DDE90E2303F0E1FC4FF06632424B7F
:10292000CDE9100103F084FF374A1268C2E90401BF
:102930003548006890F87800062852D1324800687F
:1029400050F8A81F4068CDE90E102F480068C16CF0
:10295000806CCDE90C01DDE90E2304F08FF921F044
:1029600000412E4A2E4BCDE9100103F025FF1CD269
:1029700025480168D1E91201CDE90E01224801681C
:1029800051F8A80F4968CDE90C01DDE90E2304F0E8
:1029900075F94FF06632244BCDE9100103F048FF82
:1029A000194A1268C2E904011BE01748006850F890
:1029B000A81F4068CDE90E1013480168D1E9120143
:1029C000CDE90C01DDE90E2304F058F94FF0663231
:1029D000154BCDE9100103F02BFF0B4A1268C2E939
:1029E00004010948016851F8A80F4968CDE90E01B2
:1029F00005480068C16C806CCDE90C0116E0000050
:102A0000CDCCCCCCCCCC0240300000205C8FC2F5C9
:102A1000285C0F400000E03F000014404AD8124DEF
:102A2000FB210940FB2119406666EE3FDDE90E23DC
:102A300004F024F921F00041FD4AFE4BCDE91001DC
:102A400003F0BAFE21D3FC48006850F8A81F406884
:102A5000CDE90C10F8480168D1E91201CDE90A016D
:102A6000DDE90C2304F00AF921F00041F34AF44BAC
:102A7000CDE90E0104F002F921F00041EC4AED4BE2
:102A8000CDE9100103F098FE0AD20120EA49096855
:102A900081F878000021E84A12681160516081E0F5
:102AA000E548006850F8A81F4068CDE90E10E248DC
:102AB0000168D1E91201CDE90C01DDE90E2304F032
:102AC000DDF821F00041DF4ADF4BCDE9100103F0D2
:102AD000ADFF19D2D848006850F8A81F4068CDE96A
:102AE0000E10D5480068C16C806CCDE90C01DDE9A1
:102AF0000E2304F0C3F821F00041D44AD44BCDE9B1
:102B0000100103F059FE43D3CB48006850F8A81FCA
:102B10004068CDE90C10C8480068C16C806CCDE9F4
:102B20000A01DDE90C2304F0A9F821F00041C34AB1
:102B3000C34BCDE90E0104F0A1F821F00041C14AD8
:102B4000C14BCDE9100103F071FF2BD2BA480168E7
:102B500051F8A80F4968CDE90C01B7480168D1E9DF
:102B60001201CDE90A01DDE90C2304F087F821F018
:102B70000041B24AB24BCDE90E0104F07FF821F0DA
:102B80000041B24AB24BCDE9100103F015FE09D263
:102B90000520A949096881F878000020A64A126832
:102BA00010605060A448006890F87800012805D0B3
:102BB000A148006890F8780005287CD19E480068FC
:102BC00050F8A81F40689D4AA24BCDE91010084656
:102BD000119903F02BFF11D89748006850F8A81FEF
:102BE0004068964A964BCDE910100846119904F0BA
:102BF00045F8914A126842F8A80F51608E48006863
:102C000090F87800012835D18B48006850F8A81F4B
:102C10004068CDE90E1088480068C16C806CCDE931
:102C20000C01DDE90E2304F029F821F00041834A6C
:102C3000884BCDE9100103F0BFFD1CD27E4801682E
:102C400051F8A80F4968CDE90E017B480168D1E928
:102C50001201CDE90C01DDE90E2304F00FF84FF06D
:102C600066327D4BCDE9100103F0E2FD724A126835
:102C7000C2E904015CE07048006850F8A81F406891
:102C8000CDE910106C480168D1E91201CDE90E01BF
:102C9000DDE9102303F0CAFE26D26748006850F829
:102CA000A81F4068654A664BCDE90C1008460D998F
:102CB00003F014FB00E0FCE3CDE90E015E4801687F
:102CC000D1E91201CDE90C01DDE90E2303F0D6FFB5
:102CD0004FF06632604BCDE9100103F0A9FD564A72
:102CE0001268C2E9040123E053480068C16C806C9B
:102CF00002460B46CDE90C015048514903F0EEFA6B
:102D0000CDE90E014C48016851F8A80F4968CDE99A
:102D10000C01DDE90E2303F0BFFE4FF066324E4B8F
:102D2000CDE9100103F084FD434A1268C2E90401B1
:102D30004148006890F87800052837D13E4801687E
:102D4000D1E9120121F00041444A454BCDE910017F
:102D500003F032FD2BD238480168D1E9120121F08D
:102D60000041404A404BCDE9100103F05FFE1ED206
:102D70003148016851F8A80F496881F00041CDE958
:102D80000E012D480168D1E91201CDE90C01DDE900
:102D90000E2303F081FE4FF066322F4BCDE9100178
:102DA00003F046FD244A1268C2E90401A3E0224868
:102DB0000068C16C806C00221346CDE9100103F05D
:102DC000FBFC24D21C480068C16C806C1B4A214B60
:102DD000CDE90C0103F082FACDE90E011648006836
:102DE00050F8A81F40680A460346CDE90C10DDE9FB
:102DF0000E0103F043FF4FF06632174BCDE910018F
:102E000003F016FD0C4A1268C2E9040173E00A4897
:102E1000016851F8A80F496800221346CDE9100156
:102E200003F004FE43D204480068C16C806C1DE0CE
:102E30007B14AE47E17A843F300000204AD8124D1F
:102E4000FB2119400AD7A3703D0A09409EEFA7C68F
:102E50004B370940FB2109406666EE3F444C89240C
:102E60007AD90240C45F9335EA21E93FFD4AFE4B1F
:102E7000CDE90C0103F032FACDE90E01FB48006800
:102E800050F8A81F40680A460346CDE90C10DDE95A
:102E90000E0103F0F3FE4FF06632F54BCDE9100161
:102EA00003F0C6FCF14A1268C2E9040123E0EF48CE
:102EB0000068C16C806CEB4AEB4BCDE90C0103F070
:102EC000DDFECDE90E01E948006850F8A81F406812
:102ED0000A460346CDE90C10DDE90E0103F0CEFEF3
:102EE0004FF06632E24BCDE9100103F0A1FCDF4A5E
:102EF0001268C2E90401DD48006850F8981F406874
:102F00000022DC4BCDE90A1008460B9903F0E6F9E4
:102F1000CDE90C0103F0F6FB0F9003F022FCCDE9A4
:102F20001001D248006850F8981F40680A460346CE
:102F3000CDE90E10DDE9100103F0AEFDCDE916017B
:102F4000CA48006850F8A01F40680022C94BCDE96C
:102F50000A1008460B9903F0C1F9CDE90C0103F002
:102F6000D1FB0F9003F0FDFBCDE91001BF480168D4
:102F700051F8A00F4968CDE90E01DDE9102303F0F7
:102F80007DFECDE91401B948016851F8A80F4968E0
:102F9000CDE9080103F024F9CDE90A01DDE91623A2
:102FA00003F046FCCDE90E01B048006850F8A81FB8
:102FB0004068CDE908100846099903F0BBF8CDE94F
:102FC0000A01DDE9142303F033FCCDE90C01DDE94E
:102FD0000E2303F053FE81F00041A74AA74BCDE931
:102FE000100103F025FCA14A1268C2E90201A448BD
:102FF000006850F8881F40680A460346CDE90E1065
:103000000020A04903F026FACDE910019748016895
:10301000D1E9140102460B46CDE90E01DDE91001AC
:1030200003F0CAFB06D298499848904A1268C2E950
:1030300000101DE09248016851F8880F4968CDE9F9
:103040000C018A480168D1E91401CDE90A01DDE9E2
:103050000C2303F0EDFBCDE90E0103F019F900227A
:10306000844BCDE9100103F0E3FB804A126803C2F0
:103070007E480068416E006ECDE90C017B48016816
:1030800051F8980F4968CDE90A01DDE90C2303F0F6
:10309000F5FDCDE9100175480168D1E91801CDE9C8
:1030A0000C017248006850F8981F4068CDE90A107A
:1030B00008460BA90EC903F0E1FDCDE90E01DDE9DB
:1030C000102303F0B5FBCDE9180168480168D1E988
:1030D0001A01CDE90A016548016851F8A00F496855
:1030E000CDE90801DDE90A2303F0C8FDCDE90E01B1
:1030F0005E480168D1E91A01CDE90A015B4801681F
:1031000051F8A00F4968CDE90801DDE90A2303F071
:10311000B5FDCDE90C01DDE90E2303F089FBCDE916
:103120001001DDE9182303F0D9F8CDE91801DDE934
:10313000180103F0ADF84D4A1268C2E91601504873
:10314000006850F8881F406800224FF08043CDE9A6
:103150000C1008460D9903F06BFBCDE910014348B4
:10316000016803C9CDE90C014048006803C8CDE9F6
:103170000A01DDE90C2303F05BFBCDE90E01DDE97B
:10318000102303F067F9CDE9180138480168D1E947
:103190001401CDE90C01DDE9182303F06FFD3A4A73
:1031A0003B4BCDE90E0103F069FDCDE910012F483D
:1031B0000068C16D806D02460B46CDE90E01DDE968
:1031C000100103F0F9FA04D80021284A12681160AE
:1031D00051602648006890F8780001286DD1234896
:1031E0000168D1E91401CDE90E0120480068C16DE4
:1031F000806DCDE90C01DDE90E2303F03FFD21F0E8
:103200000041214A224BCDE9100103F0D5FA55D2F5
:103210001648016851F8A80F4968CDE9080102F085
:10322000DFFFCDE90A01DDE9142303F001FBCDE95D
:103230000E010E48016851F8A80F4968CDE9080150
:1032400002F078FFCDE90A01DDE9162303F0F0FA78
:10325000CDE90C01DDE90E2303F040F881F00041D7
:10326000002217E04AD8124DFB210940300000200F
:103270006666EE3F0000E03FCDCCCCCCCCCCFC3F32
:10328000340000200000D03F9A9999999999C93F3C
:103290009999A93FFE4BCDE9100103F0C9FACDE998
:1032A0001801FC48006803C8CDE91001DDE91823C6
:1032B00003F014F8F74A126803C255E0F5480068B5
:1032C000416D006DCDE90E01F2480168D1E91601AA
:1032D000CDE90C01DDE90E2303F0D0FC21F0004123
:1032E0004FF03332EC4BCDE9100103F065FA3BD2DD
:1032F000E848016851F8A80F4968CDE9080102F0D3
:103300006FFFCDE90A01DDE9142303F091FACDE95D
:103310000E01E048016851F8A80F4968CDE908019D
:1033200002F008FFCDE90A01DDE9162303F080FA77
:10333000CDE90C01DDE90E2302F0D0FF81F0004160
:103340000022D64BCDE9100103F072FACDE9180145
:10335000D048016803C9CDE91001DDE9182302F066
:10336000BDFFCC4A126803C2CA48006890F87800D2
:10337000052854D1C7480068416D006DCDE90E01A4
:10338000C4480068C16D806DCDE90C01DDE90E23F4
:1033900003F074FC21F00041C14AC24BCDE9100199
:1033A00003F00AFA3CD2BB48016851F8A80F4968FB
:1033B000CDE9080102F014FFCDE90A01DDE914238B
:1033C00003F036FACDE90E01B248006850F8A81FA4
:1033D0004068CDE908100846099902F0ABFECDE936
:1033E0000A01DDE9162303F023FACDE90C01DDE93A
:1033F0000E2302F073FF0022A54BCDE9100103F06C
:1034000017FACDE91801A348016803C9CDE91001F5
:10341000DDE9182302F062FF9E4A126803C257E0FA
:103420009C480068416D006DCDE90E019948016826
:10343000D1E91601CDE90C01DDE90E2303F01EFCF4
:1034400021F000414FF03332934BCDE9100103F0EE
:10345000B3F93DD28F48016851F8A80F4968CDE90A
:10346000080102F0BDFECDE90A01DDE9142303F0F5
:10347000DFF9CDE90E018748006850F8A81F4068C1
:10348000CDE908100846099902F054FECDE90A0179
:10349000DDE9162303F0CCF9CDE90C01DDE90E23BB
:1034A00002F01CFF00227D4BCDE9100103F0C0F9B2
:1034B00000E090E0CDE918017648006803C8CDE946
:1034C0001001DDE9182302F009FF724A126803C2F5
:1034D0007048006850F8A81F4068CDE908100846F9
:1034E000099902F07DFECDE90A01DDE9142303F01C
:1034F0009FF9CDE90E016748016851F8A80F4968A6
:10350000CDE9080102F016FECDE90A01DDE9162336
:1035100003F08EF9CDE90C01DDE90E2302F0DEFEA9
:1035200021F00041604A614BCDE9100103F044F9FC
:103530001FD858480168D1E91401CDE90E0155485A
:103540000068C16D806DCDE90C01DDE90E2303F04B
:1035500095FB21F00041524A524BCDE9100103F096
:103560002BF906D201205249524A126841F8220032
:1035700005E000204E494F4A126841F822004D48AC
:103580000068401C0A2190FBF1F201FB120049493E
:1035900008600020139009E04549139851F8201065
:1035A0001298014412911398401C139013980A2802
:1035B000F2DB12980A2809D13F480068007F0128F1
:1035C00004D13449096881F8790004E000203149C8
:1035D000096881F8790000213048384A126842F8B9
:1035E000801F50602B480068C16880682C4A344BAB
:1035F000CDE9100103F01AFA06D229483049254ACC
:103600001268C2E9020110E022480068C1688068BF
:10361000234A2C4BCDE9100103F0CEF805D2204906
:1036200028481C4A1268C2E902102448016851F86F
:10363000980F4968CDE90C012048006850F8901FA8
:103640004068CDE90A1008460BA90EC903F0F0F84E
:10365000CDE90E010F480168D1E90801CDE90C015F
:10366000DDE90E2302F03AFECDE9100109480168B8
:10367000D1E9040102460B46CDE90E01DDE9100156
:1036800003F09AF83FD20D48016851F8980F1BE0FB
:1036900000001440300000203333C33F0000F03FEF
:1036A0009A9999999999A93F7B14AE47E17A743F09
:1036B000D4020020240000203C0000203400002020
:1036C0009999C93F9999C9BF4968CDE90E01FE484A
:1036D000016851F8900F4968CDE90C01DDE90E232E
:1036E00003F0A6F8CDE91001F8480068416A006AC5
:1036F000CDE90E01DDE9102302F0F0FDF34A126876
:10370000C2E904014FE0F048006850F8981F406893
:10371000CDE90C10EC48016851F8900F4968CDE9EB
:103720000A01DDE90C2303F083F8CDE90E01E74837
:103730000068416A006ACDE90C01DDE90E2303F05F
:103740009DFACDE91001E14800684169006902462F
:103750000B46CDE90E01DDE9100103F067F922D235
:10376000D948006850F8981F4068CDE90E10D64837
:10377000006850F8901F4068CDE90C1008460DA96C
:103780000EC903F055F8CDE91001D0480068416A30
:10379000006ACDE90E01DDE9102303F06FFACB4A90
:1037A0001268C2E90401C9480168D1E90401C84AA4
:1037B000C84BCDE9100103F039F906D2C449C54818
:1037C000C24A1268C2E9041010E0C04800684169AA
:1037D0000069BF4AC04BCDE9100102F0EDFF05D2F0
:1037E000BB48BD49B94A1268C2E90401B74801683B
:1037F000D1E90401B54A1268C2E90801B24800687B
:1038000050F8981F4068CDE90C10AF48016851F896
:10381000880F4968CDE90A01DDE90C2303F008F8B7
:10382000CDE90E01A9480168D1E90601CDE90C01F5
:10383000DDE90E2302F052FDCDE91001A348016835
:1038400003C902460B46CDE90E01DDE9100102F085
:10385000B3FF22D29C48016851F8980F4968CDE91E
:103860000E019948006850F8881F4068CDE90C1097
:1038700008460DA90EC902F0DBFFCDE910019348FF
:103880000068C1698069CDE90E01DDE9102302F00D
:1038900025FD8E4A126803C24EE08B48016851F83C
:1038A000980F4968CDE90C018748006850F8881FD7
:1038B0004068CDE90A1008460BA90EC902F0B8FF0E
:1038C000CDE90E0181480168D1E90601CDE90C017D
:1038D000DDE90E2303F0D2F9CDE910017B48016840
:1038E00003C902460B46CDE90E01DDE9100103F0E4
:1038F0009DF821D27448006850F8981F4068CDE9BF
:103900000E107148006850F8881F4068CDE90C100F
:1039100008460DA90EC902F08BFFCDE910016B48D6
:103920000168D1E90601CDE90E01DDE9102303F0BC
:10393000A5F9664A126803C26448016803C9634A6C
:103940001268C2E906016148006890F87800012811
:103950007DD15D480068C1688068CDE906015A489C
:10396000006803C8CDE90401DDE9062302F0B6FCD6
:10397000CDE908015548006841690069CDE90601B3
:10398000DDE9082302F054FF00224FF08043CDE927
:103990000A0102F05FFDCDE90E014C480168D1E952
:1039A0000201CDE90A014948016803C9CDE90801CE
:1039B000DDE90A2303F062F9CDE90C01DDE90E230C
:1039C00003F05CF9CDE910013F48006850F8801F12
:1039D00040680A460346CDE90E10DDE9100102F009
:1039E00027FF3E4A1268C2E90E0137480068C168E5
:1039F0008068CDE906013448006803C8CDE90401B8
:103A0000DDE9062302F06AFCCDE908012F480168D0
:103A1000D1E90401CDE90601DDE9082302F008FF40
:103A200000224FF08043CDE90A0102F013FDCDE9F9
:103A30000E0126480168D1E90201CDE90A012348B7
:103A4000006803C8CDE90801DDE90A2300E0C2E00F
:103A500002F044FCCDE90C01DDE90E2302F03EFC4E
:103A6000CDE910011848016851F8800F4968CDE987
:103A70000E01DDE9102302F0DBFE184A126802F1A4
:103A8000F002C2E90E0110480068C1688068CDE903
:103A900006010D48016803C9CDE90401DDE90623EB
:103AA00002F01CFCCDE90801084800684169006982
:103AB000CDE90601DDE9082302F0BAFE00224FF04D
:103AC0008043CDE90A010BE03400002030000020E3
:103AD0009A9999999999D93F9999D9BF3800002015
:103AE00002F0B8FCCDE90E01FE480068C1688068AC
:103AF000CDE90A01FB48006803C8CDE90801DDE90A
:103B00000A2302F0EBFBCDE90C01DDE90E2303F003
:103B1000B5F8CDE91001F448006850F8801F4068FE
:103B20000A460346CDE90E10DDE9100102F080FEE1
:103B3000EE4A126802F5067203C2EB480168D1E949
:103B40000201CDE90601E848006803C8CDE9040197
:103B5000DDE9062302F0C2FBCDE90801E148016876
:103B6000D1E90401CDE90601DDE9082302F060FE98
:103B700000224FF08043CDE90A0102F06BFCCDE951
:103B80000E01D8480068C1688068CDE90A01D548AF
:103B9000006803C8CDE90801DDE90A2303F06EF8E7
:103BA000CDE90C01DDE90E2302F098FBCDE910010F
:103BB000CD48006850F8801F40680A460346CDE9AA
:103BC0000E10DDE9100102F033FEC84A126802F55A
:103BD000427203C27AE2C348006890F87800052870
:103BE0007DD1C1480168D1E90201CDE90601BE4895
:103BF000016803C9CDE90401DDE9062302F06EFB8B
:103C0000CDE90801B748006841690069CDE90601BE
:103C1000DDE9082302F00CFE00224FF08043CDE9DD
:103C20000A0102F017FCCDE90E01AE48016803C994
:103C300081F00041CDE90A01AA480168D1E90201F9
:103C4000CDE90801DDE90A2302F026FFCDE90C01E8
:103C5000DDE90E2303F012F8CDE91001A248016856
:103C600051F8800F4968CDE90E01DDE9102302F01B
:103C7000DFFD9E4A1268C2E90E019B480068C168D8
:103C80008068CDE906019848006803C8CDE90401C1
:103C9000DDE9062302F022FBCDE908019148006826
:103CA00041690069CDE90601DDE9082302F0C0FDA4
:103CB00000224FF08043CDE90A0102F0CBFBCDE9B1
:103CC0000E018848016803C981F00041CDE90A016D
:103CD00084480068C1688068CDE9080100E0BBE065
:103CE000DDE90A2302F0FAFACDE90C01DDE90E2341
:103CF00002F0F4FACDE910017B48006850F8801F0B
:103D000040680A460346CDE90E10DDE9100102F0D5
:103D10008FFD764A126802F1F002C2E90E01724884
:103D20000168D1E90201CDE906016F48006803C8C6
:103D3000CDE90401DDE9062302F0D0FACDE908015E
:103D40006848006841690069CDE90601DDE908239A
:103D500002F06EFD00224FF08043CDE90A0102F02F
:103D600079FBCDE90E015F48016803C981F000418C
:103D7000CDE90A015B480068C1688068CDE90801A7
:103D8000DDE90A2302F0AAFACDE90C01DDE90E23F0
:103D900002F074FFCDE910015348006850F8801F0D
:103DA00040680A460346CDE90E10DDE9100102F035
:103DB0003FFD4E4A126802F5067203C24A48006887
:103DC000C1688068CDE906014748006803C8CDE9AD
:103DD0000401DDE9062302F081FACDE9080141483A
:103DE0000168D1E90401CDE90601DDE9082302F00B
:103DF0001FFD00224FF08043CDE90A0102F02AFBAB
:103E0000CDE90E013748016803C981F00041CDE9D1
:103E10000A0134480168D1E90201CDE90801DDE970
:103E20000A2302F039FECDE90C01DDE90E2302F090
:103E300055FACDE910012C48016851F8800F496806
:103E4000CDE90E01DDE9102302F0F2FC274A1268E9
:103E500002F5427203C239E123480168D1E9020147
:103E6000CDE906012048016803C9CDE90401DDE977
:103E7000062302F033FACDE908011A4800684169C7
:103E80000069CDE90601DDE9082302F0D1FC00223A
:103E90004FF08043CDE90A0102F0DCFACDE90E01D2
:103EA00010480168D1E90201CDE90A010D48006816
:103EB00003C8CDE90801DDE90A2302F0DFFECDE900
:103EC0000C01DDE90E2302F0D9FECDE91001064810
:103ED000006850F8801F40680A460346CDE90E107E
:103EE00006E00000300000203400002038000020F0
:103EF000DDE9100102F09CFCAF4A1268C2E90E0134
:103F0000AE480068C1688068CDE90601AB4800682A
:103F100003C8CDE90401DDE9062302F0DFF9CDE9AC
:103F20000801A7480168D1E90401CDE90601DDE9EE
:103F3000082302F07DFC00224FF08043CDE90A0106
:103F400002F088FACDE90E019D480068C1688068DA
:103F5000CDE90A019A48006803C8CDE90801DDE906
:103F60000A2302F0BBF9CDE90C01DDE90E2302F0D2
:103F7000B5F9CDE910019148016851F8800F496801
:103F8000CDE90E01DDE9102302F052FC8A4A1268E5
:103F900002F1F002C2E90E0188480168D1E902018C
:103FA000CDE906018548016803C9CDE90401DDE9D1
:103FB000062302F093F9CDE9080181480168D1E9AF
:103FC0000401CDE90601DDE9082302F031FC0022FD
:103FD0004FF08043CDE90A0102F03CFACDE90E0131
:103FE00077480068C1688068CDE90A0174480068B4
:103FF00003C8CDE90801DDE90A2302F06FF9CDE934
:104000000C01DDE90E2302F039FECDE910016B4809
:10401000006850F8801F40680A460346CDE90E103C
:10402000DDE9100102F004FC634A126802F5067231
:1040300003C262480068C1688068CDE906015F4834
:10404000006803C8CDE90401DDE9062302F046F962
:10405000CDE908015A480168D1E90401CDE906011A
:10406000DDE9082302F0E4FB00224FF08043CDE9B4
:104070000A0102F0EFF9CDE90E0151480068C1686C
:104080008068CDE90A014E48016803C9CDE90801FD
:10409000DDE90A2302F0F2FDCDE90C01DDE90E2392
:1040A00002F01CF9CDE910014448006850F8801F67
:1040B00040680A460346CDE90E10DDE9100102F022
:1040C000B7FB3D4A126802F5427203C21DB000BD43
:1040D0002DE9F04788B04FF0000A00BF61E0374893
:1040E000006890F8C20000283FD1CAEB0A1232499A
:1040F0000968383101EB0211486902F032FB804651
:1041000089462E480068CAEB0A11D0E906432A48BE
:104110000068383000EB01102246D0E900613046DB
:1041200002F086FB0022274BCDE9000102F080FB64
:1041300042464B46CDE9020102F07AFBCDE904018B
:104140001E480068D0E904432246049802F082F930
:10415000CDE9060102F0D6FACAEB0A12164909683F
:10416000383101EB0211086108E00021CAEB0A12A4
:1041700011480068383000EB021001615046FCF72E
:1041800003FF0021CAEB0A120B480068383000EB2D
:10419000021080F8361044F62060FDF748F80AF166
:1041A000010ABAF1040F9ADB08B0BDE8F08710B538
:1041B000FCF7D2FE10BD00003800002034000020C3
:1041C0003000002000004E40094880470948004761
:1041D000FEE7FEE7FEE7FEE7FEE7FEE7FEE7FEE7B7
:1041E000FEE7FEE704480549054A064B7047000014
:1041F000BD04000831010008600300206087002032
:10420000608300206083002031490143314A1160FE
:10421000704770B5002100230F22C4780CB32D4CD9
:10422000246804F4E064C4F5E064210AC1F10403E5
:10423000CA40447804FA03F1847814402143090108
:10424000254C0678A155047804F01F050124AC40E4
:1042500005786D114FF0E02606EB8505C5F80041A5
:1042600009E0047804F01F050124AC401B4D0678DA
:10427000761145F8264070BD194A0A400243154B95
:104280001B1F1A60704739B1124A121D126802438F
:10429000104B1B1D1A6006E00E4A121D1268824365
:1042A0000C4B1B1D1A607047042808D14FF0E02109
:1042B000096941F004014FF0E022116107E04FF07D
:1042C000E021096921F004014FF0E02211617047FB
:1042D0000000FA050CED00E000E400E080E100E001
:1042E00080FFFF1F10B50446CA48844208D101214F
:1042F000042000F027FB0021042000F023FB46E00F
:10430000C548844208D10121082000F01BFB002190
:10431000082000F017FB3AE0C048844208D1012190
:10432000102000F00FFB0021102000F00BFB2EE00E
:10433000BB48844208D10121202000F003FB00216A
:10434000202000F0FFFA22E0B648844208D1012183
:10435000402000F0F7FA0021402000F0F3FA16E0C8
:10436000B148844208D10121802000F0EBFA0021FD
:10437000802000F0E7FA0AE0AC48844207D101212E
:10438000801500F0DFFA0021A01500F0DBFA10BD67
:1043900010B50121084600F0D5FA0021012000F0F7
:1043A000D1FA10BD2DE9F04102460025002600207B
:1043B00000230024002791F803C00CF00F0591F8AA
:1043C00003C01CF0100F03D091F802C04CEA0505A1
:1043D00091F800C0BCF1000F31D0146800202BE030
:1043E0004FF0010C0CFA00F3B1F800C00CEA030620
:1043F0009E4220D183004FF00F0C0CFA03F7BC4310
:1044000005FA03FC4CEA040491F803C0BCF1280F40
:1044100006D14FF0010C0CFA00FCC2F814C00AE0FF
:1044200091F803C0BCF1480F05D14FF0010C0CFA14
:1044300000FCC2F810C0401C0828D1D31460B1F8A9
:1044400000C0BCF1FF0F34DD546800202EE000F105
:10445000080C4FF0010808FA0CF3B1F800C00CEAA0
:1044600003069E4221D183004FF00F0C0CFA03F794
:10447000BC4305FA03FC4CEA040491F803C0BCF108
:10448000280F05D100F1080C08FA0CF8C2F81480C6
:1044900091F803C0BCF1480F07D100F1080C4FF0B0
:1044A000010808FA0CF8C2F81080401C0828CED386
:1044B0005460BDE8F0814FF6FF71018002218170E8
:1044C0000421C17070470246002093680B4201D05E
:1044D000012000E0002070470146886880B27047E4
:1044E00002460020D3680B4201D0012000E00020EA
:1044F00070470146C86880B27047016170474161EA
:1045000070470AB1016100E041617047C1607047C6
:104510004FF480320A4382618161826182698269DB
:10452000704702460020424B18684FF680731840CF
:1045300040EA021008433E4B186070473D49C8618D
:104540007047F0B50A46002300240021002500F042
:104550000046B6F1004F02D1354EF16901E0344E0C
:104560007168C0F3034583B200F44016B6F5401FEE
:1045700008D121F070612E4E766826F070662C4FBF
:104580007E6012E000F48016B6F5801F06D1032687
:1045900006FA05F4A14341F0706106E0460D3601CC
:1045A00003FA06F6B14341F0706122B1460D3601BF
:1045B00003FA06F6314300F00046B6F1004F02D18F
:1045C0001B4EF16101E01A4E7160F0BD30B5002262
:1045D0008B071C0F0F2303FA04F2154B08338C10C2
:1045E00053F824309343124C08348D1044F825308E
:1045F00023468C1053F824308C07240F00FA04F45F
:1046000023430B4C08348D1044F8253030BD0A4943
:104610000860704700080140000C01400010014094
:104620000014014000180140001C0140002001401E
:104630000000014000002042DC002042DD4800680C
:1046400040F00100DB49086008464068DA4908404C
:10465000D849486008460068D8490840D5490860EC
:104660000846006820F4802008600846406820F46E
:10467000FE0048604FF41F0088607047CD4909680C
:1046800021F48031CB4A11601146096821F4802160
:104690001160B0F5803F03D0B0F5802F0ED106E059
:1046A000C449096841F48031C24A116007E0C14938
:1046B000096841F4A021BF4A116000E000BF00BFBB
:1046C000704710B501460022002300204A11012A3C
:1046D00002D1B84C236806E0022A02D1B54C236A05
:1046E00001E0B44C636A01F01F02012494401C42B3
:1046F00001D0012000E0002010BD38B5002000905E
:104700000024002500BF3120FFF7DBFF054600989D
:10471000401C00900098B0F5A06F01D0002DF2D0A1
:104720003120FFF7CEFF08B1012400E0002420462D
:1047300038BD014600209F4A106820F0F80040EA8A
:10474000C100106070479E49086070470246002013
:10475000984B586820F47C1042EA01031843954BAB
:104760005860704796490866704701460020914A94
:10477000506820F003000843506070478D4840683F
:1047800000F00C007047014600208A4A506820F073
:10479000F00008435060704701460020854A506889
:1047A00020F4E06008435060704701460020814AD1
:1047B000506820F4605040EAC1005060704729B151
:1047C0007C4A527A02437B4B5A7204E0794A527A0D
:1047D0008243784B5A7270477A49086070470146A5
:1047E0000020744A506820F44040084350607047ED
:1047F0000021754A11706F4A82F82010012802D0FA
:10480000042808D103E001216F4A117004E005215A
:104810006D4A117000E000BF00BF70476B4908602F
:1048200070476449096A0143624A116270476749E7
:1048300044390860704730B500210022002400236D
:104840005C4D6D6805F00C0121B1042905D00829E3
:1048500023D105E05E4D056022E05D4D05601FE05F
:10486000544D6D6805F47012524D6D6805F4803436
:10487000022505EB92421CB9564D554305600BE0ED
:104880004C4D6D6815F4003F03D0524D5543056003
:1048900002E04F4D5543056002E04D4D056000BFFD
:1048A00000BF444D6D6805F0F00109094A4D6B5C8D
:1048B0000568DD4045603F4D6D6805F4E061090A1B
:1048C000454D6B5C4568DD4085603A4D6D6805F48B
:1048D0006051C90A404D6B5C4568DD40C560354D8F
:1048E0006D6805F44041890B3C4D6B5CC568B5FBB8
:1048F000F3F5056130BD29B12E4A526902432D4BB3
:104900005A6104E02B4A526982432A4B5A6170472C
:1049100029B1284A92690243264B9A6104E0254A4C
:1049200092698243234B9A61704729B1214AD26927
:104930000243204BDA6104E01E4AD26982431D4BD8
:10494000DA61704729B11B4AD2680243194BDA6019
:1049500004E0184AD2688243164BDA60704729B1E6
:10496000144A12690243134B1A6104E0114A126996
:104970008243104B1A6170471449403908607047F0
:104980000F49C86470470B49C87170470948406AAD
:1049900040F0807007494862704701460020054A90
:1049A00092680A4201D0012000E0002070470149CE
:1049B00088727047001002400000FFF8FFFFF6FE0B
:1049C00000004242D800424220100240800442428D
:1049D00000127A0000093D0044000020540000202D
:1049E00010B50446FE48844209D101214806FFF76C
:1049F000B6FF00214FF00070FFF7B1FF08E0012182
:104A00008806FFF7ACFF00214FF08060FFF7A7FF9B
:104A100010BD30B5024600200023146824F00204C3
:104A20001460146844F00104146000E05B1C5468D6
:104A300014F0010F03D1A3F57F44FF3CF6D1546875
:104A400014F0010F01D100206CE08C79012C04D10D
:104A5000146844F08004146003E0146824F08004B7
:104A60001460CC79012C04D1146844F04004146023
:104A700003E0146824F0400414600C7A012C04D183
:104A8000146844F02004146003E0146824F0200447
:104A900014604C7A012C04D1146844F010041460A2
:104AA00003E0146824F0100414608C7A012C04D103
:104AB000146844F00804146003E0146824F0080447
:104AC0001460CC7A012C04D1146844F004041460FE
:104AD00003E0146824F0040414608C78A407CD78F3
:104AE00044EA05640D7944EA05444D7944EA0554E5
:104AF0000D886D1E2C43D461146824F001041460E9
:104B0000002300E05B1C546814F0010F03D0A3F5F0
:104B10007F44FF3CF6D1546814F0010F01D000200F
:104B200000E0012030BD10B50021837A012202FA95
:104B300003F1AC4A126842F00102AA4B1A60A94A7A
:104B40001C3212688A43A74B1C331A60027BCAB915
:104B5000A44A0C3212688A43A24B0C331A60428872
:104B6000C38842EA03439F4A4032847A42F8343091
:104B70000288838842EA03439A4A4032847A02EBED
:104B8000C4025360027B012A19D1964A0C32126882
:104B90000A43944B0C331A604288038842EA034369
:104BA000904A4032847A42F83430C288838842EA9C
:104BB00003438C4A4032847A02EBC4025360C27AC7
:104BC0003AB9884A121D12688A43864B1B1D1A6027
:104BD00006E0844A121D12680A43824B1B1D1A60AC
:104BE000028932B97F4A143212688A437D4B1433EA
:104BF0001A600289012A06D17A4A143212680A43DD
:104C0000784B14331A60427B012A06D1754A1C3254
:104C100012680A43734B1C331A60724A126822F0FE
:104C20000102704B1A6010BD00218171C1710172C7
:104C300041728172C1728170C170032101710221C0
:104C400041710121018070476649096841F0010105
:104C5000644A11601146096843F60E729143614A35
:104C600011601146096841EA002111601146096886
:104C700021F001011160704721B1026842F48032D5
:104C8000026003E0026822F4803202607047E1B102
:104C9000026842F0800202604FF4C272125842F47D
:104CA00080734FF4C27213504FF4CA72125842F418
:104CB00080734FF4CA7213504FF4D272125842F4F8
:104CC00080734FF4D27213501BE0026822F080020E
:104CD00002604FF4C272125822F480734FF4C27211
:104CE00013504FF4CA72125822F480734FF4CA72F0
:104CF00013504FF4D272125822F480734FF4D272D0
:104D00001350704710B502460020936803F080638B
:104D1000B3F1806F00D110E0936803F00063B3F14A
:104D2000006F01D1012008E0936803F08053B3F1D4
:104D3000805F01D1022000E00420042879D002F530
:104D4000C07303EB00131B6803F0010402F5C0738A
:104D500003EB00131C600B7A7BB94B7A0C8843EA97
:104D6000445302F5C07404EB00142468234302F595
:104D7000C07404EB0014236010E00B7A4C6843EA23
:104D8000C4034C7A234302F5C07404EB0014246876
:104D9000234302F5C07404EB001423608B7A03F004
:104DA0000F038B7202F5C07303EB00135B6823F0F3
:104DB0000F0402F5C07303EB00135C6002F5C073CF
:104DC00003EB00135B688C7A234302F5C07404EB99
:104DD000001463608B7B1C064B7B44EA034403E0B6
:104DE00000640040006600400B7B44EA0323CC7A59
:104DF000234302F5C07404EB0014A3608B7C1C06F3
:104E00004B7C44EA03440B7C44EA0323CC7B2343DE
:104E100002F5C07404EB0014E36002F5C07303EB09
:104E200000131B6843F0010402F5C07303EB001389
:104E30001C6010BD10B50246002321B1012907D026
:104E400002290FD109E09068F84C00EA04030BE056
:104E50009068F74C00EA040306E09068F54C00EA1D
:104E6000040301E0002300BF00BFF34C181BA34262
:104E700016D007DC83B16FF0806018180ED00228BE
:104E800018D111E0B0F5007F10D0EC4C001909D01A
:104E9000B0F5003F0ED10BE002230DE000230BE044
:104EA000002309E0002307E0012305E0012303E0DC
:104EB000012301E0002300BF00BFD8B210BD21B123
:104EC000012907D002290FD109E0826842F080024F
:104ED00082600AE0826842F40042826005E08268F3
:104EE00042F40002826000E000BF00BF704710B5CE
:104EF00000F5D87303EB01131B6803F0040313726E
:104F0000137A53B900F5D87303EB01131B6840F211
:104F1000FF7404EA5353136009E000F5D87303EB00
:104F200001131B686FF0604404EAD303536000F57B
:104F3000D87303EB01131B6803F00203537200F5EF
:104F4000D87303EB01135B6803F00F03937200F552
:104F5000D87303EB01135B681B0AD37400F5D87395
:104F600003EB01139B68D37200F5D87303EB0113B5
:104F70009B681C0A147300F5D87303EB01139B683C
:104F80001C0C547300F5D87303EB01139B681B0EC4
:104F9000937300F5D87303EB0113DB68D37300F54B
:104FA000D87303EB0113DB681C0A147400F5D87383
:104FB00003EB0113DB681C0C547400F5D87303EB8E
:104FC0000113DB681B0E937421B9C36843F02003FF
:104FD000C36003E0036943F02003036110BD21B9FE
:104FE000C26842F02002C26003E0026942F020027F
:104FF000026170470246002019B9D36803F003002C
:1050000006E0012903D1136903F0030000E000204A
:10501000704710B502460B4600204FF6FF71BBB932
:10502000146824F0020444F00104146000E0491EF6
:10503000546804F00304012C01D00029F7D154680E
:1050400004F00304012C01D0002032E0012030E004
:10505000012B13D1146824F00304146000E0491EEE
:10506000546814F0030F01D00029F8D1546814F0EB
:10507000030F01D000201CE001201AE0022B17D101
:10508000146824F0010444F00204146000E0491E96
:10509000546804F00304022C01D00029F7D15468AD
:1050A00004F00304022C01D0002002E0012000E003
:1050B000002010BD014600200A6822F0010242F0E3
:1050C00002020A604A6802F00302022A00D10120AB
:1050D000704701464FF6FF7200200B6823F0020371
:1050E0000B6000E0521E4B6803F00203022B01D15B
:1050F000002AF7D14B6803F00203022B00D00120F5
:105100007047014600208A6902F07000704701462E
:1051100000208A69100E7047014600208A69C2F398
:10512000074070471AB143690B43436102E043698A
:105130008B434361704710B50246002011F4700F95
:1051400008D09369C1F31304234201D001202DE05C
:1051500000202BE011F0807F08D05368C1F31304C6
:10516000234201D0012021E000201FE011F0006F58
:1051700008D09368C1F31304234201D0012015E045
:10518000002013E011F0007F08D0D368C1F31304AE
:10519000234201D0012009E0002007E01369C1F398
:1051A0001304234201D0012000E0002010BD0022A2
:1051B000234B994202D10023836111E0C1F3130212
:1051C00011F0007F01D0C2600AE011F0806F01D0C1
:1051D000026105E011F0006F01D0826000E04260E2
:1051E0007047024600200A4201D0012000E0002062
:1051F000704770B504460D4600266069284272D09B
:10520000B5F5807F69D01DDC082D42D006DC012D6C
:105210002DD0022D31D0042D7FD134E0102D3ED081
:10522000202D42D0402D78D145E00000030000043D
:105230000003000800000310000100080001FFF750
:105240007000F030B5F5004F61D009DCB5F5007F96
:105250004AD0B5F5806F4DD0B5F5006F5DD150E007
:10526000B5F5803F2DD0B5F5003F56D12FE0A068B1
:105270005549FFF7B6FF064651E0E0680321FFF706
:10528000B0FF06464BE0E0680821FFF7AAFF06469C
:1052900045E0E0681021FFF7A4FF06463FE02069E3
:1052A0000321FFF79EFF064639E020690821FFF73A
:1052B00098FF064633E020691021FFF792FF06466B
:1052C0002DE060680821FFF78CFF064627E0606844
:1052D0001021FFF786FF064621E0A0690121FFF7B4
:1052E00080FF06461BE01BE0A0690221FFF779FF63
:1052F000064614E0A0690421FFF773FF06460EE09E
:105300000BE0A0697021FFF76CFF064607E06068BC
:105310000421FFF766FF064601E0002600BF00E01B
:105320000026304670BDB1F5007F3AD00FDC202951
:1053300028D006DC01291CD004291DD0082940D121
:105340001DE0402921D0B1F5807F3AD126E0B1F5AA
:10535000004F31D006DCB1F5806F25D0B1F5006F7C
:105360002FD124E0B1F5803F12D0B1F5003F28D114
:1053700011E0154A826025E00822C26022E0102276
:10538000C2601FE0082202611CE01022026119E0E5
:105390000822426016E01022426013E004224260BC
:1053A00010E0042242600DE0042242600AE0002284
:1053B00082610422426005E0002282610422426090
:1053C00000E000BF00BF70470101010010B50446B6
:1053D000FB48844209D101218803FFF7B3FA002179
:1053E0004FF48040FFF7AEFA32E0F648844209D12C
:1053F00001214804FFF7B3FA00214FF40030FFF712
:10540000AEFA25E0F048844209D101218804FFF773
:10541000A6FA00214FF48020FFF7A1FA18E0EB482C
:10542000844209D10121C804FFF799FA00214FF401
:105430000020FFF794FA0BE0E548844208D10121EF
:105440000805FFF78CFA00214FF48010FFF787FA68
:1054500010BD2DE9F04786B005460E460024A24651
:1054600000BFA1460027B08900B100BF2F462C8A9B
:105470004CF6FF700440F08804432C82AC894EF651
:10548000F3100440B088318908437189084304430C
:10549000AC81AC8A4FF6FF400440B0890443AC8233
:1054A00001A8FFF7C8F9C648874202D1DDF810A06D
:1054B00001E0DDF80CA0A88910F4004F08D00AEB39
:1054C000CA0000EB0A1031684900B0FBF1F807E0B0
:1054D0000AEBCA0000EB0A1031688900B0FBF1F852
:1054E0006420B8FBF0F004012009642101FB10895D
:1054F000A88910F4004F08D0322000EBC900B0FB9F
:10550000F1F000F00700044308E0322000EB09103E
:105510006421B0FBF1F000F00F0004432C8106B0D1
:10552000BDE8F0874FF41651016000218180C180F1
:1055300001810C21418100218181704710B5024613
:105540000020108A4FF2FF0318400B884C88234339
:105550008C882343CC8823431843108210BD00213C
:10556000018041808180C180704721B1828942F4ED
:105570000052828104E082894DF6FF731A408281D5
:105580007047F0B503460024002600250020A1F551
:1055900010676A3F00D100BF1846C1F3421401F002
:1055A0001F06012707FA06F5012C01D10C3004E093
:1055B000022C01D1103000E014301AB107682F43DB
:1055C000076002E00768AF430760F0BD1AB1838A45
:1055D0000B43838202E0838A8B4383827047028A73
:1055E0004FF6F0731A400282028A0A430282704721
:1055F00082894FF2FF731A40828182890A43828135
:10560000704721B1828942F00202828104E08289DE
:105610004FF6FD731A4082817047028A4FF6DF739E
:105620001A400282028A0A430282704721B1028A2A
:1056300042F48042028204E0028A4BF6FF731A4071
:1056400002827047C1F30802828070470146888851
:10565000C0F308007047818941F0010181817047E2
:10566000028BD2B20283028B42EA0122028370478C
:10567000028B02F47F420283028B0A43028370474B
:1056800021B1828A42F02002828204E0828A4FF6AF
:10569000DF731A408282704721B1828A42F0100281
:1056A000828204E0828A4FF6EF731A40828270474A
:1056B00021B1828A42F00802828204E0828A4FF697
:1056C000F7731A408282704721B1828942F4004206
:1056D000828103E08289C2F30E028281704721B188
:1056E000828A42F40062828204E0828A4FF2FF736F
:1056F0001A4082827047828A4FF6FB731A40828278
:10570000828A0A438282704721B1828A42F0020271
:10571000828204E0828A4FF6FD731A4082827047CB
:1057200002460020B1F5007F00D100BF13880B4274
:1057300001D0012000E00020704701F40072B2F5B2
:10574000007F00D100BFCA430280704770B5024697
:105750000024002300250020A1F510666A3E00D138
:1057600000BFC1F3421501F01F03012606FA03F33F
:10577000012D02D19689334006E0022D02D1168A0E
:10578000334001E0968A33400C12012606FA04F4F5
:105790001688344013B10CB1012000E0002070BD28
:1057A00010B500220023A1F510646A3C00D100BFAF
:1057B0000A1201249440A3B2DC43048010BD00000F
:1057C000003801400044004000480040004C0040C8
:1057D0000050004070B5064600F056F8056806F126
:1057E0000B0020F00704B4429CBF002070BD2B4684
:1057F0006A68BAB11068A04210D304F10801884267
:105800003CBF5068586007D3516810194160116857
:10581000091B016058601460101D70BD134652686A
:10582000002AE7D12146284600F036F80028DED1CC
:1058300070BD4FF0000200B51346944696462039DD
:1058400022BFA0E80C50A0E80C50B1F12001BFF439
:10585000F7AF090728BFA0E80C5048BF0CC05DF89F
:1058600004EB890028BF40F8042B08BF704748BFED
:1058700020F8022B11F0804F18BF00F8012B704761
:1058800070477047704700000048704704030020CD
:10589000704770477047704738B504460A46002085
:1058A0006946AFF30080002808BF38BD0246009962
:1058B000204600F075F8012038BD012000F08AB8BC
:1058C000F8B5AFF30080054600200C46102000BF5D
:1058D0000646A819A0420DD9324669460020AFF30A
:1058E0000080070008BF00F075F80098A04218BFBC
:1058F0000546C419FFF7C8FF05600746F01D20F0F4
:1059000007004619284600F00AF8B44208BFF8BD5F
:10591000A21B31463868BDE8F84000F041B80021CC
:105920000160C0E9011070471020704770B504464F
:10593000051FFFF7A9FF0068002C14BF446870BD65
:10594000002C18BFAC423CBF20466468F8D3016805
:105950000A18AA4218BF456003D12A6805461144B7
:10596000016028684119A1421CBF6C6070BD61686C
:10597000696021680844286070BD10B500F00CF81B
:10598000006810BD10B5044600F006F8046010BDB4
:1059900000487047FC02002000487047FC020020CD
:1059A000034640688C46002818BF88423CBF034627
:1059B0004068F8D318681844884207D00CF10300F7
:1059C00020F00700001D411A521A0146081D0A6006
:1059D000FFF7ACBF10B500F035F8BDE8104000F09F
:1059E0002CB870477546FFF7D3FFAE4605006946F1
:1059F000534620F00700854618B020B5FEF7F2FBAD
:105A0000BDE820404FF000064FF000074FF00008BF
:105A10004FF0000B21F00701AC46ACE8C009ACE840
:105A2000C009ACE8C009ACE8C0098D46704704461F
:105A3000AFF300802046FAF7C6FB002801D000F043
:105A400029B8704710B5012805D0002103A000F047
:105A500027F8012010BD09A1F8E70000534947527B
:105A6000544D454D3A204F7574206F66206865612E
:105A700070206D656D6F7279000000003A204865F6
:105A80006170206D656D6F727920636F72727570D1
:105A90007465640001491820ABBEFEE726000200D1
:105AA00070B505460C460A2000E06D1C00F011F8A8
:105AB00035B128780028F8D102E0641C00F009F81C
:105AC00014B120780028F8D1BDE870400A20AFF367
:105AD000008008B569468DF800000320ABBE08BD04
