:020000040800F2
:10000000D0870020054800083102000833020008AC
:10001000370200083B0200083F0200080000000011
:100020000000000000000000000000004302000883
:1000300045020008000000004702000849020008CD
:100040001F4800081F4800081F4800081F480008F4
:100050001F4800081F4800081F4800081F480008E4
:100060001F4800081F4800081F4800081F480008D4
:100070001F4800081F4800081F4800081F480008C4
:100080001F4800081F4800081F4800081F480008B4
:100090004B0200081F4800081F4800081F480008BE
:1000A0001F4800081F4800081F4800081F48000894
:1000B0001F4800085B0D00081F4800081F48000883
:1000C0001F4800081F4800081F4800081F48000874
:1000D0001F480008DD0E0008610B00081F480008DB
:1000E0001F4800081F4800081F4800081F48000854
:1000F0001F4800081F4800081F4800081F48000844
:100100001F4800081F4800081F4800081F48000833
:100110001F4800081F4800081F4800081F48000823
:100120001F4800081F4800081F4800081F48000813
:1001300000F002F800F03EF80AA090E8000C8244BB
:100140008344AAF10107DA4501D100F033F8AFF298
:10015000090EBAE80F0013F0010F18BFFB1A43F0A5
:10016000010318475483000074830000103A24BF31
:1001700078C878C1FAD8520724BF30C830C144BF0C
:1001800004680C607047000000230024002500264E
:10019000103A28BF78C1FBD8520728BF30C148BFEA
:1001A0000B6070471FB59DE8030006F0B3FD1FBD4F
:1001B00010B510BD06F040FE1146FFF7F3FF00F04A
:1001C00009F806F05EFE03B4FFF7F2FF03BC06F089
:1001D0008BFE000008B500BF00F098FB00F0CAFDE0
:1001E0004FF4A06004F02EFB00F09EFA4FF416507E
:1001F00000F0CFFC41F61F4140F2CF7000F080FDCF
:1002000001F08EFC0020042308220721009000F05A
:10021000B1FA00F0ADFE01F034FD07E000F072FC31
:1002200000F0F6F904F03AFA04F0A7FAF6E7000055
:10023000704700BFFEE700BFFEE700BFFEE700BF5C
:10024000FEE7704770477047704700B585B00020E3
:1002500000906A460021554805F067F9009800F4BF
:10026000F060B0F5C07F3FD0B0F5B06F7ED19DF8A3
:100270000C109DF80D0041EA0020A0F5C040413867
:1002800011D020282ED19DF80F10009800F07F008B
:10029000401EC0EB001246480068383000EB0210E8
:1002A00080F846101EE09DF80F10009800F07F00C7
:1002B000401EC0EB00123E480068383000EB0210D0
:1002C00080F836109DF81010009800F07F00401E56
:1002D000C0EB001236480068383000EB021080F89E
:1002E000371000BF00BF5DE09DF80B10009800F0D4
:1002F0007F00401EC0EB00122D480068383000EB34
:10030000021080F836109DF80C10009800F07F0065
:10031000401EC0EB001226480068383000EB021087
:1003200080F837109DF80D10009800F07F00401EF7
:10033000C0EB00121E480068383000EB021080F855
:100340007E109DF80E10009800F07F00401EC0EB5C
:10035000001217480068383000EB021080F87F1058
:100360009DF80F10009800F07F0000E019E0401E9B
:10037000C0EB00120E480068383000EB021080F825
:1003800080109DF81010009800F07F00401EC0EB18
:10039000001207480068383000EB021080F8811026
:1003A00000E000BF00BF05B000BD000000640040D9
:1003B000600000200CB50020019000906B480068A0
:1003C00040F480306949086000BF6848006800F464
:1003D000003000900198401C0190009818B90198D5
:1003E000B0F5A06FF1D16148006810F4003F02D071
:1003F0000120009001E0002000900098012842D1E7
:100400005B48006840F010005949086008460068E1
:1004100020F0030008600846006840F00200086011
:10042000524840685149486008464068486008465C
:10043000406840F4806048600846406820F47C10C2
:1004400048600846406840F4E81048600846006884
:1004500040F08070086000BF4448006810F0007FE2
:10046000FAD04248406820F00300404948600846FE
:10047000406840F00200486000BF3C48406800F01F
:100480000C000828F9D10CBD10B5FFF793FF10BD83
:1004900010B53648006840F001003449086008464D
:1004A000406834490840314948600846006832498C
:1004B00008402E4908600846006820F48020086043
:1004C0000846406820F4FE0048604FF41F00886032
:1004D000FFF7DAFF4FF000602849086010BD10B543
:1004E000002100200022214B5B6803F00C0121B1A8
:1004F000042906D0082928D107E0214B214C23608C
:1005000027E01F4B1F4C236023E0184B5B6803F46C
:100510007010164B5B6803F48032022303EB9040AB
:1005200022B9194B4343174C23600DE00F4B5B6816
:1005300013F4003F04D0144B4343124C236003E0F8
:100540000F4B43430F4C236003E00D4B0D4C2360D6
:1005500000BF00BF054B5B68C3F303130B4CE15CAA
:10056000084B1B68CB40074C236010BD00100240B5
:10057000002002400000FFF8FFFFF6FE08ED00E05B
:1005800000127A000000002000093D000400002055
:100590002DE9F04781460C4615461E46484607F0B1
:1005A0000AFB07464FF033325C4B07F06BFB5C4AAB
:1005B0001268C2E90E01204607F0FDFA07464FF027
:1005C0003332564B07F05EFB554A126802F1F002D7
:1005D000C2E90E01284607F0EEFA07464FF0333223
:1005E0004E4B07F04FFB4E4A126802F5067203C2EB
:1005F000304607F0E0FA07464FF03332474B07F03A
:1006000041FB474A126802F5427203C2BDE8F08717
:1006100010B5444800884BF6FF72811A90423FD0D3
:1006200015DC47F6F772A0EB020190425DD007DCC3
:10063000A0F57C50FF3842D0B0F5405F6BD137E079
:10064000082917D0A1F50051083964D145E0B1F56A
:10065000005F16D007DCB1F5805F37D0A1F5F85107
:10066000F83958D148E0B1F5405F12D0B1F5804F6C
:1006700051D149E001239A1E19461046FFF788FF21
:100680004AE04FF0FF33012219461046FFF780FF82
:1006900042E001231A4619461846FFF779FF3BE06E
:1006A0004FF0FF331A4619461846FFF771FF33E043
:1006B0000123002219461046FFF76AFF2CE00023B1
:1006C0005A1E19461046FFF763FF25E0002301225A
:1006D00019461046FFF75CFF1EE04FF0FF33002283
:1006E00019461046FFF754FF16E001231A46991EDB
:1006F0000846FFF74DFF0FE04FF0FF331A46012188
:100700000846FFF745FF07E000231A46194618463A
:10071000FFF73EFF00BF00BF00BF10BD3333E33F14
:10072000600000203600002008B50121482004F0B8
:100730000DFC2020ADF8000010208DF803000320F0
:100740008DF802006946094804F04AF9202107485B
:1007500004F0F1F92020ADF800006946044804F0E7
:100760003FF92021024804F0E6F908BD000C0140E1
:10077000001801402DE9F0418AB004460D461646A6
:100780001F46DDF840800121042004F0DFFB012139
:10079000480604F0E8FB4FF48050ADF82400032035
:1007A0008DF8260018208DF8270009A9554804F077
:1007B00017F94FF40060ADF8240048208DF82700A9
:1007C00009A9504804F00CF900208DF81E008DF89E
:1007D0001F008DF8200001208DF8210000208DF8E9
:1007E00022008DF823008DF81A808DF81B408DF8BB
:1007F0001C608DF81D50ADF8187006A9424804F031
:1008000026FC00208DF812008DF8130001208DF8D1
:1008100014000020ADF80800ADF80A00ADF80C0097
:10082000ADF80E00ADF8100001208DF8150002A8FB
:1008300004F097FC01220221334804F091FF1420B8
:100840008DF8040001208DF8050000208DF80600C9
:1008500001208DF8070001A803F0F9FF00200AB07D
:10086000BDE8F081F0B585B007460D4600241220A2
:100870000090019000208DF808008DF809008DF897
:100880000A5000BF05E0395D0DF10B000155601CF9
:1008900084B2AC42F7DB69461B4804F051FD0646C2
:1008A000002401E0601C84B23146174804F0E0FDEA
:1008B00018B940F6FF708442F4DB40F6FF708442C2
:1008C00002DB012005B0F0BD0020FBE730B585B0AC
:1008D000054600210C4804F0ABFE10B9002005B01D
:1008E00030BD6A460021084804F01FFE002404E0E1
:1008F0000DF10B00005D2855641C082CF8D39DF801
:100900000A00ECE700080140006400408848806964
:1009100040F00800864988618648006820F470200D
:10092000844908600846006840F400200860804858
:10093000806940F008007E4988617E480068C0F305
:1009400013007C490860084600687B4908437949E0
:100950000860704738B504460120009000207749B0
:100960004870012000902FE0BDF80000204203D025
:1009700001207349086002E00020714908604FF0CF
:100980000100704908604FF0320000F00CFA0020BE
:100990006D49C1F8BC01322000F005FA01206A4916
:1009A000C1F8BC010846D0F8300130B16348407846
:1009B000BDF80010084361494870BDF800004FF6CB
:1009C000FF7101EA40000090BDF80000FF28CBDD78
:1009D00038BD10B500205D4908605D490878FFF713
:1009E000B9FF5B494878FFF7B5FF01205649C1F8C8
:1009F000B80152484078732801D1002010BD012071
:100A0000FCE71CB5002001900120009000204F4918
:100A100008604F490878FFF79DFF4D494878FFF778
:100A200099FF0220019034E00120009025E0012090
:100A3000444908604FF000004349C1F8BC014FF041
:100A4000320000F0B0F901203F49C1F8BC0108466E
:100A5000D0F8300150B139489DF80410405CBDF821
:100A60000010084335499DF804208854BDF8000063
:100A70004FF6FF7101EA40000090BDF80000FF282A
:100A8000D5DD322000F08FF99DF80400401CC0B283
:100A900001909DF804000928C6DB01202B4908605D
:100AA0001CBD002004E00021244A1154411CC8B29E
:100AB0000928F8DB704710B5FFF7F3FFFFF7A1FF38
:100AC0001E48C0781D49097940EA01202149088063
:100AD00000240FE0204810F81400401E012101FA04
:100AE00000F01C490988084202D1601CC0B210BD48
:100AF000601CC4B2102CEDDB0020F8E701460F4863
:100B0000405C704710B5FFF764FF68B1322000F019
:100B10006DF9FFF7D0FF094800790849C97840EA24
:100B200001200E49088002E0322000F05FF910BD7C
:100B300000100240040C014000003033800000200F
:100B4000B4812142BC81214200802142B8812142EE
:100B5000140000203800002016000020360000207D
:100B600010B540F22551604805F00EF980B15E489D
:100B700005F08AF8C4B25D480078402808DA5C487D
:100B80005A490978445459480078401C574908701C
:100B900010BD10B586B004460121242004F0D6F91A
:100BA0000121480404F0DFF98020ADF81400102082
:100BB0008DF8170003208DF8160005A94D4803F0A5
:100BC0000FFF0420ADF8140018208DF8170005A9B8
:100BD000494803F005FF0820ADF8140004208DF803
:100BE000170005A9444803F0FBFE0121480404F066
:100BF000D4F900214FF4003004F0CFF90194002023
:100C0000ADF80800ADF80A00ADF80C00ADF8100022
:100C10000C20ADF80E0001A9334804F038FF26205F
:100C20008DF8000003208DF801008DF802000120EE
:100C30008DF80300684603F00AFE012240F22551B8
:100C4000294804F0BCFF0121274804F0ACFF002034
:100C50002A49086006B010BD70B505460E46012051
:100C6000264908604FF000040CE000BF40211E48F8
:100C700005F074F80028F9D0295D1B4805F000F84C
:100C8000601CC4B2B442F0DB00BF4021164805F03E
:100C900065F80028F9D00020144908701749086049
:100CA00070BD2DE9F04107460D4610480678002436
:100CB000002028700A2000F099F80C48007886423D
:100CC0000FD176B100BF04E00948005D3855601CC3
:100CD000C4B2B442F8DB054800782870002003490C
:100CE0000870BDE8F0810000004400403A00002098
:100CF0008900002000140140000801409C8122422C
:100D00007FB505460C460121022004F02CF9ADF810
:100D10000850ADF804400020ADF80A00ADF8060018
:100D200001A9134805F048F901221146104805F0C1
:100D3000BAFC1D208DF8000000208DF80100032072
:100D40008DF8020001208DF80300684603F07FFD56
:100D50000121074805F08CFC7FBD10B50121044836
:100D600005F04FFF18B1A121012003F02FFD10BDA8
:100D70000004004010B56FF0040003F0B3FD2D48EF
:100D800000682D49B0FBF1F02C4908700846007846
:100D900000EB4001C1EBC0104FF6FF7101EAC0004B
:100DA0002749088010BD0146244A12784A434FF073
:100DB000E0235A6100229A611A46126942F0010248
:100DC0001A6100BF4FF0E022106910F0010F02D04D
:100DD00010F4803FF6D04FF0E022126922F00102B9
:100DE0004FF0E0231A6100229A6170470146144ACD
:100DF00012884A434FF0E0235A6100229A611A4652
:100E0000126942F001021A6100BF4FF0E02210693E
:100E100010F0010F02D010F4803FF6D04FF0E02226
:100E2000126922F001024FF0E0231A6100229A6158
:100E3000704700000000002000127A003C000020F3
:100E40003E00002010B586B00446012144F20400A3
:100E500004F07CF84FF40070ADF8140003208DF816
:100E6000160018208DF8170005A93B4803F0B8FDBF
:100E70004FF48060ADF8140004208DF8170005A928
:100E8000354803F0ADFD25208DF8000003208DF8D6
:100E900001008DF8020001208DF80300684603F080
:100EA000D6FC01940020ADF80800ADF80A00ADF8BA
:100EB0000C00ADF810000C20ADF80E0001A9274879
:100EC00004F0E5FD012240F22551244804F077FEAC
:100ED0000121224804F067FE06B010BD10B540F2B3
:100EE00025511E4804F050FF10B31C4804F0CCFEFE
:100EF000C4B21B48008810F4004F2BD1184800885A
:100F000010F4804F0CD00A2C03D000201449088024
:100F100020E01348008840F400401149088019E09F
:100F20000D2C06D10E48008840F480400C49088002
:100F300010E00B480088C0F30D000A490C54084823
:100F40000088401C0649088008460088C72801DD43
:100F50000020088010BD000000080140003801405A
:100F600040000020C900002001808270C3707047DB
:100F700010B5002400BF59E1C4EB0412FD49096813
:100F8000383101EB021101F12A001023002246F250
:100F90004001FFF7E9FFC4EB0412F6490968383154
:100FA00001EB021101F132001023002246F241014F
:100FB000FFF7DAFFC4EB0412EE490968383101EBA0
:100FC000021101F13A000823002246F26001FFF706
:100FD000CBFFC4EB0412E7490968383101EB021179
:100FE00001F142000823002246F26101FFF7BCFF35
:100FF000C4EB0412DF490968383101EB021101F139
:1010000052002023002242F26B01FFF7ADFFC4EB38
:101010000412D8490968383101EB021101F14A0084
:101020002023002246F2FF01FFF79EFFC4EB0412CB
:10103000D0490968383101EB021101F15A0020232F
:10104000002246F26B01FFF78FFFC4EB0412C9497F
:101050000968383101EB021101F1620020230022FE
:1010600046F26C01FFF780FFC4EB0412C149096826
:10107000383101EB021101F16A002023002246F20F
:101080007A01FFF771FFC4EB0412BA4909683831DD
:1010900001EB021101F172002023002246F26201ED
:1010A000FFF762FFC4EB0412B2490968383101EB63
:1010B000021101F17A002023002246F26401FFF7B9
:1010C00053FFC4EB0412AB490968383101EB02113C
:1010D00001F182002023002246F27F01FFF744FF46
:1010E000C4EB0412A3490968383101EB021101F184
:1010F0008A00202301224FF4A051FFF735FFC4EBF3
:1011000004129C490968383101EB021101F1920087
:10111000082302224FF4A051FFF726FFC4EB04126C
:1011200094490968383101EB021101F19A00082352
:1011300000224FF4B051FFF717FFC4EB04128D49A2
:101140000968383101EB021101F1A20020230122CC
:101150004FF4B051FFF708FFC4EB0412854909684A
:10116000383101EB021101F1AA00202302224FF4D1
:10117000B051FFF7F9FEC4EB04127E49096838311B
:1011800001EB021101F1B200202301224FF4C05102
:10119000FFF7EAFEC4EB041276490968383101EB27
:1011A000021101F1BA00082302224FF4C051FFF7E7
:1011B000DBFEC4EB04126F490968383101EB021100
:1011C00001F1C200082300224FF4D051FFF7CCFEFA
:1011D000C4EB041267490968383101EB021101F1CF
:1011E000CA00202301224FF4D051FFF7BDFEC4EB0B
:1011F000041260490968383101EB021101F1D20093
:10120000202302224FF4D051FFF7AEFEC4EB0412AC
:1012100058490968383101EB021101F1DA00102355
:10122000002241F21701FFF79FFE641C042CFFF619
:10123000A3AE10BD70B586B004460D461646601CC0
:1012400040F4C060019000208DF80C008DF80D0076
:1012500008208DF80E00C4EB0411464800683830B1
:1012600000EB01102A3000EBC500C078082806D03A
:10127000102813D018282CD020287DD150E0C4EBA2
:1012800004123C480068383000EB02102A3000EBB2
:10129000C50006712F208DF80F0079E0C4EB041211
:1012A00034480068383000EB02102A3000EBC500EB
:1012B0000671310AC4EB04122E480068383000EB86
:1012C00002102A3000EBC50041712B208DF80F0071
:1012D0005EE0C4EB041227480068383000EB0210CF
:1012E0002A3000EBC5000671310AC4EB0412214814
:1012F0000068383000EB02102A3000EBC500417165
:10130000310CC4EB04121B480068383000EB0210AB
:101310002A3000EBC500817127208DF80F0037E0DF
:10132000C4EB041213480068383000EB02102A3076
:1013300000EBC5000671310AC4EB04120D480068C9
:10134000383000EB02102A3000EBC5004171310C3F
:10135000C4EB041207480068383000EB02102A3052
:1013600000EBC5008171310EC4EB04120148006826
:10137000383002E06000002009E000EB02102A3063
:1013800000EBC500C17123208DF80F0000E000BF05
:1013900000BFC4EB041194480068383000EB011022
:1013A0002A3010F835108DF81010C4EB04118E4857
:1013B0000068383000EB01102A3030F83500010A9F
:1013C0008DF81110C4EB041187480068383000EB29
:1013D00001102A3000EBC50081788DF81210C4EBA3
:1013E000041181480068383000EB01102A3000EB0E
:1013F000C50001798DF81310C4EB04117A48006818
:10140000383000EB01102A3000EBC50041798DF82F
:101410001410C4EB041174480068383000EB01105C
:101420002A3000EBC50081798DF81510C4EB04114A
:101430006D480068383000EB01102A3000EBC50021
:10144000C1798DF8161001A9684803F079FF06B03C
:1014500070BD30B585B004460D46601C40F4C060D8
:10146000009000208DF808008DF8090008208DF804
:101470000A0040208DF80B00C4EB04115A480068A4
:10148000383000EB01102A3010F835108DF80C10B0
:10149000C4EB041154480068383000EB01102A30C6
:1014A00030F83500010A8DF80D10C4EB04114E48D8
:1014B0000068383000EB01102A3000EBC50081785D
:1014C0008DF80E106946494803F03AFF05B030BD6B
:1014D00000B585B0002000908DF808008DF8090057
:1014E00002208DF80A0001208DF80B0000218DF8F4
:1014F0000C1069463D4803F023FF05B000BD00B560
:1015000085B0002000908DF808008DF809000220B9
:101510008DF80A0080208DF80B0000218DF80C104A
:101520006946324803F00CFF05B000BD00B585B038
:101530008020009000208DF808008DF8090002201E
:101540008DF80A0080208DF80B0000218DF80C101A
:101550006946264803F0F4FE05B000BD10B586B01C
:101560000446601C40F40070019000208DF80C00CF
:101570008DF80D0006208DF80E000F208DF80F005D
:1015800000218DF81010C4EB0411174800683830A2
:1015900000EB0110017C8DF81110C4EB041112480E
:1015A0000068383000EB0110008A010A8DF8121033
:1015B000C4EB04110C480068383000EB01100069DE
:1015C000010C8DF81310C4EB041107480068383083
:1015D00000EB01100069010E8DF8141001A90348F9
:1015E00003F0AEFE06B010BD6000002000640040B5
:1015F00010B5FEF74DFF0121084603F0A7FC0121BD
:10160000084603F096FC0121480603F0ACFC0121DA
:10161000480203F09BFC01217D2003F097FC10BDE4
:1016200008B57F20ADF8000010208DF803000320DE
:101630008DF802006946FE4803F0D2F94FF4FF40EE
:10164000ADF8000048208DF8030003208DF802005B
:101650006946F74803F0C4F9F020ADF800004820CF
:101660008DF8030003208DF802006946F14803F06D
:10167000B7F94FF20300ADF8000048208DF80300E1
:1016800003208DF802006946EB4803F0A9F94FF4F6
:101690007C70ADF8000048208DF8030003208DF821
:1016A00002006946E54803F09BF94FF47F40ADF82E
:1016B000000048208DF8030003208DF802006946E1
:1016C000DF4803F08DF90320ADF8000048208DF8C5
:1016D000030003208DF802006946D94803F080F921
:1016E0004FF4E040ADF8000010208DF80300032017
:1016F0008DF802006946D14803F072F90420ADF874
:10170000000010208DF8030003208DF802006946C8
:10171000CB4803F065F95020ADF8000048208DF863
:10172000030003208DF802006946C34803F058F90E
:101730005020ADF8000048208DF8030003208DF8FC
:1017400002006946BE4803F04BF9A820ADF800003E
:1017500010208DF8030003208DF802006946B84878
:1017600003F03EF908BD08B54FF4C06003F06AF815
:1017700014208DF8000002208DF8010000208DF863
:10178000020001208DF80300684603F060F8252070
:101790008DF8000001208DF8010000208DF8020076
:1017A00001208DF80300684603F051F826208DF8DB
:1017B000000000208DF801008DF8020001208DF856
:1017C0000300684603F043F834208DF80000012040
:1017D0008DF801008DF802008DF80300684603F0D3
:1017E00036F836208DF8000002208DF80100062022
:1017F0008DF8020001208DF80300684603F027F8F9
:1018000008BD01B502E00098401E00900098002835
:10181000F9D108BD00B585B00121880303F096FB1E
:101820004FF40070ADF8100003208DF8120018205E
:101830008DF8130004A97F4803F0D2F84FF48060BC
:10184000ADF8100004208DF8130004A9794803F0C6
:10185000C7F84FF4165000900020ADF80400ADF822
:101860000600ADF80800ADF80C000C20ADF80A0039
:101870006946744804F00BF9012240F22551714881
:1018800004F09DF901216F4804F08DF905B000BD09
:1018900000B585B00121480403F065FB0420ADF8D4
:1018A000100003208DF8120018208DF8130004A9F1
:1018B000604803F095F80820ADF8100004208DF87A
:1018C000130004A95B4803F08BF84FF4E13000905B
:1018D0000020ADF80400ADF80600ADF80800ADF842
:1018E0000C000C20ADF80A006946574804F0CFF808
:1018F000012240F22551544804F061F9002240F2DF
:101900002661514804F05BF901214F4804F04BF97E
:1019100005B000BD00B585B00121C80403F023FB6C
:101920004FF48060ADF8100003208DF812001820ED
:101930008DF8130004A9414803F052F84FF40060F9
:10194000ADF8100004208DF8130004A93B4803F003
:1019500047F84FF4165000900020ADF80400ADF8A1
:101960000600ADF80800ADF80C000C20ADF80A0038
:101970006946364804F08BF8012240F2255133487D
:1019800004F01DF90121314804F00DF905B000BD46
:1019900000B589B001214FF4EA1003F0F0F84FF4DC
:1019A0008070ADF8040048208DF8070001A9224896
:1019B00003F016F84FF40070ADF8040018208DF80D
:1019C000070003208DF8060001A91B4803F008F862
:1019D0001F4803F023FB06A803F044FC00208DF809
:1019E0001E0001208DF81F0000208DF820008DF8CA
:1019F00021008DF8220001208DF8230000208DF8B1
:101A00001A008DF81B0001208DF81C0002208DF8B3
:101A10001D0006A90E4803F01AFB00208DF81200E5
:101A20008DF8130001208DF81400002012E0000052
:101A30000018014000080140000C01400010014066
:101A4000001401400038014000440040004C0040B8
:101A500000640040ADF80800ADF80A00ADF80C00D5
:101A6000ADF80E00ADF8100001208DF8150002A8A9
:101A700003F077FB01220221FE4803F071FE0020F3
:101A800009B000BD70B5FFF7B3FDFFF7C9FDFFF763
:101A90006AFEF949B1F1807F01D301201DE021F0F8
:101AA0007F40401E4FF0E022506150170F22002867
:101AB00007DA13071D0EF14B00F00F04241F1D550C
:101AC00003E013071C0EEE4B1C5400BF00204FF028
:101AD000E022906107201061002001280FD10DE065
:101AE0000121E84803F027F8E748FFF78AFE0121C3
:101AF000E44803F022F8E448FFF783FEF0E704210E
:101B0000E04803F01AF80821DE4803F014F8FFF764
:101B100081FEFFF7BDFEFFF7FDFEFFF739FF70BD49
:101B200010B54FF4B96005F080F8D8490860084650
:101B30000068D7490860D5480068C030D5490860BA
:101B4000D248006800F5C470D3490860CF480068E7
:101B500000F5B060D1490860CC48006800F2A4509C
:101B6000CF490860CF49D048CA4A1268C2E900107C
:101B7000CE49CF48C74A1268C2E90210CD49CE48C3
:101B8000C44A1268C2E904100021CC48C14A126854
:101B9000C2E906100020CA49BE4A1268C2E908011B
:101BA0004FF03331C748BB4A126842F8881F506073
:101BB0000020C549B74A126842F8900F5160C349E6
:101BC000C348B44A126842F8981F50600021C148C7
:101BD000B04A1268C2E91C10AE4A12689167D16718
:101BE000BA49BD48AB4A1268C2E912104FF0FF3142
:101BF000A9480068C164A8480068C0F83C110121E8
:101C0000A5480068C0F82C12A3480068C0F81C134F
:101C100000219F4A126842F8981F51609C4A12683E
:101C200042F8A01F51600020994A126842F8A80F9C
:101C3000506010BD70B502460C46002300214FF6DF
:101C4000FF7010E012F8015B6840002309E010F01B
:101C5000010F04D04AF2010585EA500000E0400877
:101C60005B1C082BF3DB2500A4F10106F4B2E9D1DB
:101C700001464FF47F4505EA0020C1F307210844DF
:101C800070BD70B50525002400260DE001209349A4
:101C900008609348FFF7B5FD00209249C1F8940110
:101CA0008F48FFF7AEFD6D1E002DEFDC1E2546E1CF
:101CB0000026802200210846FFF7BCFA00243AE102
:101CC000C4EB041174480068383000EB011090F840
:101CD000280030B101287CD002287BD003287AD19B
:101CE00024E104F201220C212046FFF7A3FA44F676
:101CF0002060FFF786FD01220D212046FFF79AFAAA
:101D000044F62060FFF77DFD02220E212046FFF7FA
:101D100091FA44F62060FFF774FD734A0F212046C4
:101D2000FFF788FA44F62060FFF76BFD6F4A102139
:101D30002046FFF77FFA44F62060FFF762FD6C480B
:101D4000221811212046FFF775FA44F62060FFF7AC
:101D500058FD012212212046FFF76CFA44F620605C
:101D6000FFF74FFD022213212046FFF763FA44F6E6
:101D70002060FFF746FD5F4A14212046FFF75AFA1C
:101D800044F62060FFF73DFD5B4A15212046FFF732
:101D900051FA44F62060FFF734FD42F2107216212A
:101DA0002046FFF747FA44F62060FFF72AFD03229A
:101DB00002212046FFF73EFA44F62060FFF721FD9E
:101DC00003212046FFF745FB44F62060FFF719FD8D
:101DD00002E017E03DE0ABE0C4EB04112E480068E0
:101DE000383000EB011090F84600032809D101219A
:101DF000C4EB041228480068383000EB021080F869
:101E0000281096E0062200212046FFF713FA44F638
:101E10002060FFF7F6FC01212046FFF71AFB44F68D
:101E20002060FFF7EEFCC4EB04111B48006838305B
:101E300000EB011090F83600212809D10221C4EBF3
:101E4000041215480068383000EB021080F82810A2
:101E50006FE00F2200212046FFF7ECF944F62060E6
:101E6000FFF7CFFC01212046FFF7F3FA44F620608C
:101E700044E00000006400404019010018ED00E05B
:101E800000E400E00018014040420F005400002030
:101E9000580000205C00002060000020640000204A
:101EA00068000020F6285C8FC2F5E03FD7A3703DA4
:101EB0000AD7E33FFB3FD94F8A6DE43F000044401F
:101EC0000040AF403333D33F0000F03F7B14AE47B8
:101ED000E17A943F00000840E17A843F94812142F6
:101EE000C0C62D0000802142100040602000FF602D
:101EF000810100401000416020006460FFF781FC18
:101F0000C4EB0411FE480068383000EB011090F873
:101F10003600372809D10321C4EB0412F8480068C1
:101F2000383000EB021080F8281002E0761C00E048
:101F300000BF00BF641C042CFFF6C2AE6D1E002D56
:101F400002DD042E7FF4B4AE042E1CD1FFF7C0FADC
:101F500000250FE00120EB49086047F23050FFF701
:101F600050FC0020E849C1F8940147F23050FFF7D7
:101F700048FC6D1C502DEDDCFFF7D8FA4EF66020C2
:101F8000FFF73FFC0EE00CE00120DE490860DF486F
:101F9000FFF737FC0020DC49C1F89401DB48FFF76C
:101FA00030FCF1E770BD2DE9F04F93B04FF0000A1F
:101FB00020210AA804F068FE00BF00BF00BF00BFD8
:101FC000F8E0CAEB0A11CE480068383000EB011087
:101FD00090F8360008B1012000E0002010F0080F52
:101FE00009D1CAEB0A11C6480068383000EB01106D
:101FF00090F8360048B9C648006890F8C20040F032
:102000000100C349096881F8C200CAEB0A12BC4941
:102010000968383101EB0211486905F0CCFDCDE9C2
:102020000401BB4800680022BA4BD0E906B158460B
:1020300005F028FECDE90201DDE9042305F022FECA
:10204000CAEB0A12CDE90801AD490968383101EB44
:102050000211D1F8660005F0AEFDCDE90401AC48EF
:102060000168D1E904B35A46DDE9040105F00AFE2E
:10207000CDE90601DDE9082305F016FCCAEB0A13D9
:102080009F4A1268383202EB0312C2E90201CAEB1E
:102090000A129B490968383101EB0211486905F0C1
:1020A0008AFDCDE904019A480168D1E90801CDE92A
:1020B000000197480168D1E906B15846DDE90023DF
:1020C00005F0E0FDCDE90201DDE9042305F0DAFDCC
:1020D000CAEB0A12CDE9080189490968383101EBD8
:1020E0000211D1F87E0005F066FDCDE904018848B3
:1020F0000168D1E904B35A46DDE9040105F0C2FDE7
:10210000CDE90601DDE9082305F0CEFBCAEB0A1391
:102110007B4A1268383202EB0312C2E906017E489C
:1021200050F82A00A8B9CAEB0A117548006838307F
:1021300000EB0111D1E90601CAEB0A13704A1268DB
:10214000383202EB0312C2E908010120724941F85A
:102150002A00CAEB0A116A480068383000EB011106
:10216000D1E90801CDE90801CAEB0A116448006809
:10217000383000EB0110D0E906B15846DDE90823FC
:1021800005F0A6FF0AAA02EBCA0203C2CAEB0A11B3
:102190005B480068383000EB0111D1E90601CAEB59
:1021A0000A13574A1268383202EB0312C2E90801D7
:1021B0000AF1010ABAF1040FFFF603AFDDE90C01E1
:1021C000CDE90201DDE90AB35A4605F0B1FACDE9DD
:1021D0000401DDE90EB35A4605F0AAFACDE906017D
:1021E000DDE910B35A4605F0A3FA00224B4BCDE9C6
:1021F000080105F059FB04460D46DDE90A0181F0AE
:102200000041CDE90201DDE90CB35A4605F090FA30
:10221000CDE90401DDE90EB35A4605F089FACDE9AE
:102220000601DDE910B35A4605F052FF00223B4B90
:10223000CDE9080105F038FB06460F463448016831
:10224000D1E902B3006803C85A46CDE9020105F09E
:102250006FFA00224FF08043CDE9040105F012FD32
:10226000CDE90801DDE90A0181F00041CDE9000175
:10227000DDE90CB35A4605F05BFACDE90201DDE970
:102280000EB35A4605F024FFCDE90401DDE910B391
:102290005A4605F04DFACDE90601DDE9082305F0BF
:1022A00003FB804689461E48006850F8A82F416805
:1022B000104605F0BFF932463B46CDE9020105F074
:1022C000E1FCCDE906011648016851F8A82F4968DC
:1022D000104605F059F922462B46CDE9020105F0DA
:1022E000D1FCCDE90401DDE9062305F0F1FECDE9DD
:1022F00008010B48006850F898BF5A46436811E03F
:1023000060000020948121420080214240548900D5
:102310005C00002000004E40380300200000104008
:1023200058000020089805F003FAFE4A126842F8A7
:10233000980F5160FB48016851F8A82F4968104672
:1023400005F022F932463B46CDE9020105F09AFC40
:10235000CDE90601F348016851F8A82F49681046F5
:1023600005F068F922462B46CDE9020105F08AFC0A
:10237000CDE90401DDE9062305F0DAF9CDE908012C
:10238000E848006850F8A0BF5A464368089805F02E
:10239000CFF9E44A126842F8A00F5160E1480068A2
:1023A00050F8A8BF42464B464168584605F0C0F970
:1023B000DC4A126842F8A80F5160DA48006850F809
:1023C000A82F4168104605F035F932463B46CDE965
:1023D000020105F057FCCDE90601D248006850F82B
:1023E000A82F4168104605F0CFF822462B46CDE9CC
:1023F000020105F047FCCDE90401DDE9062305F003
:1024000067FEC94AC94BCDE9080105F04DFAC54A36
:10241000126842F8800F5160C248006850F8A82F37
:102420004168104605F0B0F832463B46CDE902015E
:1024300005F028FCCDE90601BA48016851F8A82F3B
:102440004968104605F0F6F822462B46CDE9020110
:1024500005F018FCCDE90401DDE9062305F068F973
:10246000B14AB24BCDE9080105F01EFAAD4A126837
:1024700042F8880F5160AC4AAC4B4046494605F0E3
:1024800013FAA84A126842F8900F516013B0BDE8E1
:10249000F08F70477047704700B59DB000201B90CB
:1024A00000211A9100BF00BF00BF13911290A049F4
:1024B000096848769F48006890F8C000012870D1EC
:1024C0009B490968487600201A900AE09A480168FA
:1024D0001A98095C1B980844C1B21B911A98401CB9
:1024E0001A901A982028F1DB9348006890F8201081
:1024F0001B98814254D191480078401C8F49087044
:1025000008460078119000EBD07041101198B0EBA4
:10251000410004D102218A4802F00FFB03E00221AE
:10252000874802F008FB0220814909684876824802
:102530000068807F732835D100207E49096881F8C2
:10254000C4007D48006800680F9005F034FB00224D
:102550007C4BCDE9100105F0A7F9724A126803C25D
:102560007548006840680F9005F025FB0022754B08
:10257000CDE9100105F098F96A4A1268C2E9020132
:102580006D48006880680F9005F015FB00226D4BC8
:10259000CDE9100105F088F9624A1268C2E9040128
:1025A000D2E2D6E264480068807F72287DD10320A1
:1025B0005F490968487660480068007F012875D146
:1025C0005D4800684069119005F0F5FA554A1268B7
:1025D00042F8B00F5160584800688169084611916F
:1025E00005F0E9FA4F4A126842F8B80F51605248B4
:1025F0000068016808460D9105F0DDFA524A534B18
:10260000CDE90E0105F03EFB0022514BCDE9100152
:1026100005F04AF9434A126842F8A80F5160414850
:10262000006850F8A81F4068CDE9061008460799D1
:1026300005F000F8CDE90A013F48006881680846C6
:10264000039105F0B8FA384A424BCDE9040105F090
:1026500019FB414A414BCDE9060105F013FBCDE9D9
:102660000801DDE90A2305F00DFBCDE90E012D4837
:10267000006850F8A81F4068CDE906100846079981
:1026800004F082FFCDE90A012B48006840680390FE
:1026900005F091FA244A2F4BCDE9040105F0F2FA36
:1026A0002D4A2E4BCDE9060101E066E1A1E005F0DF
:1026B000E9FACDE90801DDE90A2305F0E3FACDE9FD
:1026C0000C01DDE90E2305F003FDCDE910011548ED
:1026D000016851F8B00F4968CDE90E01DDE910231A
:1026E00005F026F80F4A126842F8980F51600D481D
:1026F000016851F8A80F4968CDE9060104F044FFCC
:10270000CDE90A010C48006881680846039105F08C
:1027100052FA054A0F4BCDE9040105F0B3FA0E4A0F
:102720000E4B1DE0580000207B14AE47E17A943F29
:10273000680000205C0000206400002050000020A1
:102740000018014000408F404AD8124DFB2109403B
:102750000094D140E17A843F4D840D4FAF94953F72
:10276000CDE9060105F08EFACDE90801DDE90A237D
:1027700005F088FACDE90E01FE48006850F8A81F60
:102780004068CDE906100846079904F053FFCDE9EB
:102790000A01F94800684068039005F00CFAF74A0E
:1027A000F74BCDE9040105F06DFAF64AF64BCDE999
:1027B000060105F067FACDE90801DDE90A2305F015
:1027C00061FACDE90C01DDE90E2304F0B1FFCDE99A
:1027D0001001E848016851F8B80F4968CDE90E01C9
:1027E000DDE9102304F0A4FFE24A126842F8A00FCA
:1027F0005160E1480068C068119005F0DCF9DD4ADD
:102800001268C2E90E01DC480068016908461191AE
:1028100005F0D1F9D74A1268C2E91001D64800681C
:10282000407FDA49096888423BD0D248006850F8B6
:10283000981F40680022D64BCDE90C1008460D9930
:1028400004F076FFCDE90E0105F086F9119005F050
:10285000B2F9C84A1268C2E91801C648016851F8BD
:10286000A00F49680022CA4BCDE90C0104F060FFBB
:10287000CDE90E0105F070F9119005F09CF9BD4A03
:102880001268C2E91A010020BA49096881F8780083
:10289000B849096881F87900B7480068407FBB49AA
:1028A0000860BA480078BB4909680876B1480168F1
:1028B000D1E9100121F00041CDE90E01AD480168D8
:1028C000D1E90E0121F00041CDE90C01DDE90E2333
:1028D00004F02EFF0022B04BCDE9100105F0D2F933
:1028E000A44A1268C2E91401A3480068C068A2495A
:1028F00009680969484300280DD19F480068C068ED
:10290000002809DD9C480068006928B90021994A1F
:1029100012689164D16417E197480068C068002884
:102920000ADA95480068006930B99C499C48914A88
:102930001268C2E9121007E18F480068C06858B9F0
:102940008D4800680069002806DD94499548894A49
:102950001268C2E91210F7E087480068C0680028D2
:10296000D9D18548006800690028D4DA8B498E489F
:10297000804A1268C2E91210E6E07F480068807F52
:102980007128C8D17C480068007F0128C3D17A48EB
:10299000006800680D9005F00EF9804A834BCDE980
:1029A0000E0105F06FF90022814BCDE9100104F012
:1029B0007BFF704A126842F8A80F51606E480068A9
:1029C000C0680D9005F0F7F8CDE91001694801687D
:1029D00051F8A80F4968CDE9040104F02BFECDE9B8
:1029E0000801654800688068019005F0E4F8634AD2
:1029F000634BCDE9020105F045F96E4A6E4BCDE916
:102A0000040105F03FF9CDE90601DDE9082305F0F1
:102A100039F9CDE90C015748016851F8A80F496808
:102A2000CDE9040104F0B0FDCDE908015248006889
:102A30004068019005F0BFF8504A514BCDE90201C2
:102A400005F020F95B4A5C4BCDE9040105F01AF969
:102A5000CDE90601DDE9082305F014F9CDE90A0105
:102A6000DDE90C2305F034FBCDE90E01DDE910238F
:102A700004F05EFE3F4A126842F8980F51603E48EB
:102A8000006800690D9005F096F8CDE9100139480D
:102A9000016851F8A80F4968CDE9040104F074FDFC
:102AA000CDE908013448006881680846019105F0C5
:102AB00082F8324A324BCDE9020105F0E3F83D4A93
:102AC0003D4BCDE9040105F0DDF8CDE90601DDE976
:102AD000082305F0D7F8CDE90C012648006850F826
:102AE000A81F4068CDE904100846059904F0A2FD2E
:102AF000CDE908012048006841680846019105F0C9
:102B00005AF81E4A1E4BCDE9020105F0BBF8294ACE
:102B1000294BCDE9040105F0B5F8CDE90601DDE961
:102B2000082305F0AFF8CDE90A01DDE90C2304F034
:102B3000FFFDCDE90E01DDE9102304F0F9FD0D4A9A
:102B4000126842F8A00F516000201C49096881F802
:102B5000C0000848006890F8780088BB0548006805
:102B600050F8A81F4068CDE90E1002480068C16CFB
:102B7000806C26E058000020640000207B14AE47E3
:102B8000E17A843F4D840D4FAF94953F480000207B
:102B90000000E03F680000200000F03F4AD8124DDE
:102BA000FB2109C0FB21F93FFB21F9BFFB210940B3
:102BB0000094D140C3F5285C8FC2953F5C00002093
:102BC00033E0CDE90C01DDE90E2305F081FA21F0B7
:102BD0000041FE4AFE4BCDE9100105F051F91FD22C
:102BE000FC48006850F8A81F4068CDE90E10F9486D
:102BF0000168D1E91201CDE90C01DDE90E2305F0F0
:102C000067FA21F00041F44AF44BCDE9100104F0D9
:102C1000FDFF05D20620EF49096881F8780004E03D
:102C20000720EC49096881F87800EA48006890F8C4
:102C30007800062805D0E748006890F87800072853
:102C40007ED1E448006850F8981F40680022E44BA9
:102C5000CDE90A1008460B9904F06AFDCDE90C0194
:102C600004F07AFF0F9004F0A6FFCDE91001D948D7
:102C7000016851F8980F4968CDE90E01DDE910238C
:102C800005F026FACDE91601D248016851F8A00FE7
:102C900049680022D24BCDE90A0104F049FDCDE993
:102CA0000C0104F059FF0F9004F085FFCDE91001ED
:102CB000C848016851F8A00F4968CDE90E01DDE967
:102CC000102305F005FACDE91401C248016851F856
:102CD000A80F4968CDE9080104F0ACFCCDE90A0170
:102CE000DDE9142304F0CEFFCDE90E01B9480068F8
:102CF00050F8A81F4068CDE908100846099904F06B
:102D000043FCCDE90A01DDE9162304F0BBFFCDE960
:102D10000C01DDE90E2304F00BFD81F000410022DF
:102D2000B04BCDE9100104F0ADFFAA4A126803C20E
:102D3000A848016851F8A80F4968CDE9080100E0EA
:102D400016E204F077FCCDE90A01DDE9162304F070
:102D500099FFCDE90E019F48016851F8A80F496815
:102D6000CDE9080104F010FCCDE90A01DDE91423E6
:102D700004F088FFCDE90C01DDE90E2305F0A8F988
:102D800081F000410022974BCDE9100104F07AFF59
:102D9000904A1268C2E902018E48016851F8A80FF2
:102DA0004968914A914BCDE9100105F069F80FD8B7
:102DB0008848016851F8A80F49688B4A8C4BCDE9C7
:102DC000100105F085F9834A126842F8A80F516096
:102DD0008048006890F87800072835D17D48016860
:102DE00051F8A80F4968CDE90E017A480168D1E988
:102DF0001201CDE90C01DDE90E2305F069F921F09E
:102E00000041794A794BCDE9100104F0FFFE1CD254
:102E10007048006850F8A81F4068CDE90E106D4852
:102E20000168D1E91201CDE90C01DDE90E2305F0BD
:102E30004FF94FF066326F4BCDE9100104F022FFDD
:102E4000644A1268C2E9040158E06248006850F818
:102E5000A81F4068CDE910105E480168D1E9120151
:102E6000CDE90E01DDE9102305F00AF822D2594818
:102E7000016851F8A80F49685B4A5D4BCDE90C0128
:102E800004F056FCCDE90E0152480068C16C806C1C
:102E9000CDE90C01DDE90E2305F01AF94FF0663299
:102EA000544BCDE9100104F0EDFE4A4A1268C2E924
:102EB000040123E047480168D1E9120102460B46AC
:102EC000CDE90C014848494904F032FCCDE90E0136
:102ED0004048016851F8A80F4968CDE90C01DDE9C7
:102EE0000E2304F025FC4FF06632424BCDE9100171
:102EF00004F0C8FE374A1268C2E904013548006888
:102F000090F87800062852D13248006850F8A81F7F
:102F10004068CDE90E102F480068C16C806CCDE987
:102F20000C01DDE90E2305F0D3F821F000412E4A13
:102F30002E4BCDE9100104F069FE1CD22548016832
:102F4000D1E91201CDE90E012248016851F8A80F1C
:102F50004968CDE90C01DDE90E2305F0B9F84FF021
:102F60006632244BCDE9100104F08CFE194A126838
:102F7000C2E904011BE01748006850F8A81F406828
:102F8000CDE90E1013480168D1E91201CDE90C0119
:102F9000DDE90E2305F09CF84FF06632154BCDE9C4
:102FA000100104F06FFE0B4A1268C2E904010948DF
:102FB000016851F8A80F4968CDE90E01054800687D
:102FC000C16C806CCDE90C0116E00000CDCCCCCCFE
:102FD000CCCC0240580000205C8FC2F5285C0F402A
:102FE0000000E03F000014404AD8124DFB21094088
:102FF000FB2119406666EE3FDDE90E2305F068F817
:1030000021F00041FD4AFE4BCDE9100104F0FEFD28
:1030100021D3FC48006850F8A81F4068CDE90C1087
:10302000F8480168D1E91201CDE90A01DDE90C2374
:1030300005F04EF821F00041F34AF44BCDE90E01C2
:1030400005F046F821F00041EC4AED4BCDE91001C6
:1030500004F0DCFD0AD20120EA49096881F8780011
:103060000021E84A12681160516081E0E54800687B
:1030700050F8A81F4068CDE90E10E2480168D1E978
:103080001201CDE90C01DDE90E2305F021F821F054
:103090000041DF4ADF4BCDE9100104F0F1FE19D207
:1030A000D848006850F8A81F4068CDE90E10D548F0
:1030B0000068C16C806CCDE90C01DDE90E2305F0E0
:1030C00007F821F00041D44AD44BCDE9100104F0B7
:1030D0009DFD43D3CB48006850F8A81F4068CDE958
:1030E0000C10C8480068C16C806CCDE90A01DDE9AC
:1030F0000C2304F0EDFF21F00041C34AC34BCDE99E
:103100000E0104F0E5FF21F00041C14AC14BCDE9B9
:10311000100104F0B5FE2BD2BA48016851F8A80F8F
:103120004968CDE90C01B7480168D1E91201CDE940
:103130000A01DDE90C2304F0CBFF21F00041B24A83
:10314000B24BCDE90E0104F0C3FF21F00041B24AB9
:10315000B24BCDE9100104F059FD09D20520A9496F
:10316000096881F878000020A64A12681060506053
:10317000A448006890F87800012805D0A1480068AC
:1031800090F8780005287CD19E48006850F8A81F68
:1031900040689D4AA24BCDE910100846119904F0F1
:1031A0006FFE11D89748006850F8A81F4068964AEB
:1031B000964BCDE910100846119904F089FF914A09
:1031C000126842F8A80F51608E48006890F87800A5
:1031D000012835D18B48006850F8A81F4068CDE918
:1031E0000E1088480068C16C806CCDE90C01DDE9E7
:1031F0000E2304F06DFF21F00041834A884BCDE996
:10320000100104F003FD1CD27E48016851F8A80F9C
:103210004968CDE90E017B480168D1E91201CDE989
:103220000C01DDE90E2304F053FF4FF066327D4BB5
:10323000CDE9100104F026FD724A1268C2E90401CA
:103240005CE07048006850F8A81F4068CDE9101095
:103250006C480168D1E91201CDE90E01DDE91023C6
:1032600004F00EFE26D26748006850F8A81F406898
:10327000654A664BCDE90C1008460D9904F058FAE2
:1032800000E0FCE3CDE90E015E480168D1E91201DE
:10329000CDE90C01DDE90E2304F01AFF4FF0663290
:1032A000604BCDE9100104F0EDFC564A1268C2E90A
:1032B000040123E053480068C16C806C02460B4651
:1032C000CDE90C015048514904F032FACDE90E0124
:1032D0004C48016851F8A80F4968CDE90C01DDE9B7
:1032E0000E2304F003FE4FF066324E4BCDE9100181
:1032F00004F0C8FC434A1268C2E90401414800686E
:1033000090F87800052837D13E480168D1E91201CC
:1033100021F00041444A454BCDE9100104F076FC10
:103320002BD238480168D1E9120121F00041404A0E
:10333000404BCDE9100104F0A3FD1ED231480168D5
:1033400051F8A80F496881F00041CDE90E012D48E0
:103350000168D1E91201CDE90C01DDE90E2304F089
:10336000C5FD4FF066322F4BCDE9100104F08AFC09
:10337000244A1268C2E90401A3E022480068C16C33
:10338000806C00221346CDE9100104F03FFC24D2EA
:103390001C480068C16C806C1B4A214BCDE90C01B4
:1033A00004F0C6F9CDE90E011648006850F8A81FD0
:1033B00040680A460346CDE90C10DDE90E0104F031
:1033C00087FE4FF06632174BCDE9100104F05AFC2E
:1033D0000C4A1268C2E9040173E00A48016851F816
:1033E000A80F496800221346CDE9100104F048FDFA
:1033F00043D204480068C16C806C1DE07B14AE476A
:10340000E17A843F580000204AD8124DFB21194030
:103410000AD7A3703D0A09409EEFA7C64B37094063
:10342000FB2109406666EE3F444C89247AD902406C
:10343000C45F9335EA21E93FFD4AFE4BCDE90C011B
:1034400004F076F9CDE90E01FB48006850F8A81F9A
:1034500040680A460346CDE90C10DDE90E0104F090
:1034600037FE4FF06632F54BCDE9100104F00AFC4F
:10347000F14A1268C2E9040123E0EF480068C16C18
:10348000806CEB4AEB4BCDE90C0104F021FECDE959
:103490000E01E948006850F8A81F40680A46034634
:1034A000CDE90C10DDE90E0104F012FE4FF066329A
:1034B000E24BCDE9100104F0E5FBDF4A1268C2E9F6
:1034C0000401DD48006850F8981F40680022DC4B7A
:1034D000CDE90A1008460B9904F02AF9CDE90C0150
:1034E00004F03AFB0F9004F066FBCDE91001D248DE
:1034F000006850F8981F40680A460346CDE90E1050
:10350000DDE9100104F0F2FCCDE91601CA480068BB
:1035100050F8A01F40680022C94BCDE90A100846A8
:103520000B9904F005F9CDE90C0104F015FB0F909F
:1035300004F041FBCDE91001BF48016851F8A00F2C
:103540004968CDE90E01DDE9102304F0C1FDCDE9A4
:103550001401B948016851F8A80F4968CDE908017C
:1035600004F068F8CDE90A01DDE9162304F08AFBCE
:10357000CDE90E01B048006850F8A81F4068CDE9B9
:1035800008100846099903F0FFFFCDE90A01DDE9BB
:10359000142304F077FBCDE90C01DDE90E2304F0E0
:1035A00097FD81F00041A74AA74BCDE9100104F037
:1035B00069FBA14A1268C2E90201A448006850F8F8
:1035C000881F40680A460346CDE90E100020A04936
:1035D00004F06AF9CDE9100197480168D1E91401B6
:1035E00002460B46CDE90E01DDE9100104F00EFBA9
:1035F00006D298499848904A1268C2E900101DE026
:103600009248016851F8880F4968CDE90C018A4851
:103610000168D1E91401CDE90A01DDE90C2304F0C8
:1036200031FBCDE90E0104F05DF80022844BCDE9B9
:10363000100104F027FB804A126803C27E4800682C
:10364000416E006ECDE90C017B48016851F8980F7E
:103650004968CDE90A01DDE90C2304F039FDCDE923
:10366000100175480168D1E91801CDE90C017248D3
:10367000006850F8981F4068CDE90A1008460BA969
:103680000EC904F025FDCDE90E01DDE9102304F09B
:10369000F9FACDE9180168480168D1E91A01CDE9C4
:1036A0000A016548016851F8A00F4968CDE9080191
:1036B000DDE90A2304F00CFDCDE90E015E48016846
:1036C000D1E91A01CDE90A015B48016851F8A00F60
:1036D0004968CDE90801DDE90A2304F0F9FCCDE9E8
:1036E0000C01DDE90E2304F0CDFACDE91001DDE98E
:1036F000182304F01DF8CDE91801DDE9180103F0E5
:10370000F1FF4D4A1268C2E916015048006850F8AE
:10371000881F406800224FF08043CDE90C10084616
:103720000D9904F0AFFACDE910014348016803C9CF
:10373000CDE90C014048006803C8CDE90A01DDE984
:103740000C2304F09FFACDE90E01DDE9102304F00B
:10375000ABF8CDE9180138480168D1E91401CDE989
:103760000C01DDE9182304F0B3FC3A4A3B4BCDE9E8
:103770000E0104F0ADFCCDE910012F480068C16DC9
:10378000806D02460B46CDE90E01DDE9100104F023
:103790003DFA04D80021284A126811605160264879
:1037A000006890F8780001286DD123480168D1E9BC
:1037B0001401CDE90E0120480068C16D806DCDE98E
:1037C0000C01DDE90E2304F083FC21F00041214AC5
:1037D000224BCDE9100104F019FA55D216480168C0
:1037E00051F8A80F4968CDE9080103F023FFCDE99E
:1037F0000A01DDE9142304F045FACDE90E010E4873
:10380000016851F8A80F4968CDE9080103F0BCFE32
:10381000CDE90A01DDE9162304F034FACDE90C0103
:10382000DDE90E2303F084FF81F00041002217E060
:103830004AD8124DFB210940580000206666EE3F31
:103840000000E03FCDCCCCCCCCCCFC3F5C000020D9
:103850000000D03F9A9999999999C93F9999A93FA0
:10386000FE4BCDE9100104F00DFACDE91801FC483A
:10387000006803C8CDE91001DDE9182303F058FF03
:10388000F74A126803C255E0F5480068416D006DC3
:10389000CDE90E01F2480168D1E91601CDE90C012C
:1038A000DDE90E2304F014FC21F000414FF0333227
:1038B000EC4BCDE9100104F0A9F93BD2E8480168CE
:1038C00051F8A80F4968CDE9080103F0B3FECDE92E
:1038D0000A01DDE9142304F0D5F9CDE90E01E04831
:1038E000016851F8A80F4968CDE9080103F04CFEC2
:1038F000CDE90A01DDE9162304F0C4F9CDE90C0194
:10390000DDE90E2303F014FF81F000410022D64BC5
:10391000CDE9100104F0B6F9CDE91801D0480168ED
:1039200003C9CDE91001DDE9182303F001FFCC4AFA
:10393000126803C2CA48006890F87800052854D17C
:10394000C7480068416D006DCDE90E01C4480068AC
:10395000C16D806DCDE90C01DDE90E2304F0B8FBEB
:1039600021F00041C14AC24BCDE9100104F04EF9EB
:103970003CD2BB48016851F8A80F4968CDE908015D
:1039800003F058FECDE90A01DDE9142304F07AF9C9
:10399000CDE90E01B248006850F8A81F4068CDE993
:1039A00008100846099903F0EFFDCDE90A01DDE9A9
:1039B000162304F067F9CDE90C01DDE90E2303F0CD
:1039C000B7FE0022A54BCDE9100104F05BF9CDE96B
:1039D0001801A348016803C9CDE91001DDE91823E6
:1039E00003F0A6FE9E4A126803C257E09C48006896
:1039F000416D006DCDE90E0199480168D1E91601CC
:103A0000CDE90C01DDE90E2304F062FB21F0004159
:103A10004FF03332934BCDE9100104F0F7F83DD26B
:103A20008F48016851F8A80F4968CDE9080103F0F3
:103A300001FECDE90A01DDE9142304F023F9CDE903
:103A40000E018748006850F8A81F4068CDE90810AB
:103A50000846099903F098FDCDE90A01DDE916232E
:103A600004F010F9CDE90C01DDE90E2303F060FE4E
:103A700000227D4BCDE9100104F004F900E090E054
:103A8000CDE918017648006803C8CDE91001DDE9E9
:103A9000182303F04DFE724A126803C27048006892
:103AA00050F8A81F4068CDE908100846099903F0AE
:103AB000C1FDCDE90A01DDE9142304F0E3F8CDE905
:103AC0000E016748016851F8A80F4968CDE908015F
:103AD00003F05AFDCDE90A01DDE9162304F0D2F81E
:103AE000CDE90C01DDE90E2303F022FE21F00041B7
:103AF000604A614BCDE9100104F088F81FD858489E
:103B00000168D1E91401CDE90E0155480068C16D85
:103B1000806DCDE90C01DDE90E2304F0D9FA21F026
:103B20000041524A524BCDE9100104F06FF806D221
:103B300001205249524A126841F8220005E0002053
:103B40004E494F4A126841F822004D480068401C17
:103B50000A2190FBF1F201FB1200494908600020A4
:103B6000139009E04549139851F820101298014428
:103B700012911398401C139013980A28F2DB1298A4
:103B80000A2809D13F480068007F012804D1344940
:103B9000096881F8790004E000203149096881F85A
:103BA000790000213048384A126842F8801F50607E
:103BB0002B480068C16880682C4A344BCDE910015D
:103BC00004F05EF906D229483049254A1268C2E954
:103BD000020110E022480068C1688068234A2C4B2B
:103BE000CDE9100104F012F805D2204928481C4AFA
:103BF0001268C2E902102448016851F8980F496818
:103C0000CDE90C012048006850F8901F4068CDE9CC
:103C10000A1008460BA90EC904F034F8CDE90E01CC
:103C20000F480168D1E90801CDE90C01DDE90E2357
:103C300003F07EFDCDE9100109480168D1E90401D6
:103C400002460B46CDE90E01DDE9100103F0DEFF6F
:103C50003FD20D48016851F8980F1BE00000144056
:103C6000580000203333C33F0000F03F9A999999E0
:103C70009999A93F7B14AE47E17A743F480300202D
:103C80004C000020640000205C0000209999C93F8E
:103C90009999C9BF4968CDE90E01FE48016851F8FC
:103CA000900F4968CDE90C01DDE90E2303F0EAFF2E
:103CB000CDE91001F8480068416A006ACDE90E01BB
:103CC000DDE9102303F034FDF34A1268C2E9040170
:103CD0004FE0F048006850F8981F4068CDE90C109C
:103CE000EC48016851F8900F4968CDE90A01DDE917
:103CF0000C2303F0C7FFCDE90E01E7480068416AD5
:103D0000006ACDE90C01DDE90E2304F0E1F9CDE90B
:103D10001001E14800684169006902460B46CDE99F
:103D20000E01DDE9100104F0ABF822D2D948006899
:103D300050F8981F4068CDE90E10D648006850F83A
:103D4000901F4068CDE90C1008460DA90EC903F07C
:103D500099FFCDE91001D0480068416A006ACDE9B9
:103D60000E01DDE9102304F0B3F9CB4A1268C2E971
:103D70000401C9480168D1E90401C84AC84BCDE92A
:103D8000100104F07DF806D2C449C548C24A126841
:103D9000C2E9041010E0C048006841690069BF4AE8
:103DA000C04BCDE9100103F031FF05D2BB48BD493E
:103DB000B94A1268C2E90401B7480168D1E90401AF
:103DC000B54A1268C2E90801B248006850F8981F65
:103DD0004068CDE90C10AF48016851F8880F496878
:103DE000CDE90A01DDE90C2303F04CFFCDE90E011A
:103DF000A9480168D1E90601CDE90C01DDE90E23EE
:103E000003F096FCCDE91001A348016803C90246FE
:103E10000B46CDE90E01DDE9100103F0F7FE22D2D9
:103E20009C48016851F8980F4968CDE90E019948FE
:103E3000006850F8881F4068CDE90C1008460DA9AD
:103E40000EC903F01FFFCDE9100193480068C16956
:103E50008069CDE90E01DDE9102303F069FC8E4A8B
:103E6000126803C24EE08B48016851F8980F496808
:103E7000CDE90C018748006850F8881F4068CDE9FB
:103E80000A1008460BA90EC903F0FCFECDE90E018D
:103E900081480168D1E90601CDE90C01DDE90E2375
:103EA00004F016F9CDE910017B48016803C9024608
:103EB0000B46CDE90E01DDE9100103F0E1FF21D24F
:103EC0007448006850F8981F4068CDE90E1071489A
:103ED000006850F8881F4068CDE90C1008460DA90D
:103EE0000EC903F0CFFECDE910016B480168D1E99E
:103EF0000601CDE90E01DDE9102304F0E9F8664A78
:103F0000126803C26448016803C9634A1268C2E9BF
:103F100006016148006890F8780001287DD15D486D
:103F20000068C1688068CDE906015A48006803C886
:103F3000CDE90401DDE9062303F0FAFBCDE9080130
:103F40005548006841690069CDE90601DDE90823AB
:103F500003F098FE00224FF08043CDE90A0103F000
:103F6000A3FCCDE90E014C480168D1E90201CDE97D
:103F70000A014948016803C9CDE90801DDE90A23BE
:103F800004F0A6F8CDE90C01DDE90E2304F0A0F859
:103F9000CDE910013F48006850F8801F40680A468C
:103FA0000346CDE90E10DDE9100103F06BFE3E4A39
:103FB0001268C2E90E0137480068C1688068CDE91F
:103FC00006013448006803C8CDE90401DDE9062391
:103FD00003F0AEFBCDE908012F480168D1E90401E7
:103FE000CDE90601DDE9082303F04CFE00224FF085
:103FF0008043CDE90A0103F057FCCDE90E012648C4
:104000000168D1E90201CDE90A012348006803C82B
:10401000CDE90801DDE90A2300E0C2E003F088FBF6
:10402000CDE90C01DDE90E2303F082FBCDE910019F
:104030001848016851F8800F4968CDE90E01DDE9A3
:10404000102303F01FFE184A126802F1F002C2E9C1
:104050000E0110480068C1688068CDE906010D486E
:10406000016803C9CDE90401DDE9062303F060FB23
:10407000CDE908010848006841690069CDE90601F9
:10408000DDE9082303F0FEFD00224FF08043CDE977
:104090000A010BE05C000020580000209A999999D1
:1040A0009999D93F9999D9BF6000002003F0FCFB92
:1040B000CDE90E01FE480068C1688068CDE90A01BB
:1040C000FB48006803C8CDE90801DDE90A2303F0D5
:1040D0002FFBCDE90C01DDE90E2303F0F9FFCDE95B
:1040E0001001F448006850F8801F40680A460346F3
:1040F000CDE90E10DDE9100103F0C4FDEE4A1268AF
:1041000002F5067203C2EB480168D1E90201CDE96C
:104110000601E848006803C8CDE90401DDE906238B
:1041200003F006FBCDE90801E1480168D1E904018B
:10413000CDE90601DDE9082303F0A4FD00224FF0DC
:104140008043CDE90A0103F0AFFBCDE90E01D84869
:104150000068C1688068CDE90A01D548006803C8D5
:10416000CDE90801DDE90A2303F0B2FFCDE90C0136
:10417000DDE90E2303F0DCFACDE91001CD4800683B
:1041800050F8801F40680A460346CDE90E10DDE96D
:10419000100103F077FDC84A126802F5427203C2AB
:1041A0007AE2C348006890F8780005287DD1C148BC
:1041B0000168D1E90201CDE90601BE48016803C9E1
:1041C000CDE90401DDE9062303F0B2FACDE90801E7
:1041D000B748006841690069CDE90601DDE90823B7
:1041E00003F050FD00224FF08043CDE90A0103F0B7
:1041F0005BFBCDE90E01AE48016803C981F00041C7
:10420000CDE90A01AA480168D1E90201CDE9080116
:10421000DDE90A2303F06AFECDE90C01DDE90E2396
:1042200003F056FFCDE91001A248016851F8800F54
:104230004968CDE90E01DDE9102303F023FD9E4A14
:104240001268C2E90E019B480068C1688068CDE928
:1042500006019848006803C8CDE90401DDE906239A
:1042600003F066FACDE908019148006841690069E8
:10427000CDE90601DDE9082303F004FD00224FF03B
:104280008043CDE90A0103F00FFBCDE90E01884818
:10429000016803C981F00041CDE90A018448006842
:1042A000C1688068CDE9080100E0BBE0DDE90A23D0
:1042B00003F03EFACDE90C01DDE90E2303F038FAF4
:1042C000CDE910017B48006850F8801F40680A461D
:1042D0000346CDE90E10DDE9100103F0D3FC764A68
:1042E000126802F1F002C2E90E0172480168D1E9D8
:1042F0000201CDE906016F48006803C8CDE9040159
:10430000DDE9062303F014FACDE9080168480068E6
:1043100041690069CDE90601DDE9082303F0B2FC3B
:1043200000224FF08043CDE90A0103F0BDFACDE948
:104330000E015F48016803C981F00041CDE90A011F
:104340005B480068C1688068CDE90801DDE90A239F
:1043500003F0EEF9CDE90C01DDE90E2303F0B8FE20
:10436000CDE910015348006850F8801F40680A46A4
:104370000346CDE90E10DDE9100103F083FC4E4A3F
:10438000126802F5067203C24A480068C168806874
:10439000CDE906014748006803C8CDE90401DDE91D
:1043A000062303F0C5F9CDE9080141480168D1E9C8
:1043B0000401CDE90601DDE9082303F063FC0022D6
:1043C0004FF08043CDE90A0103F06EFACDE90E010A
:1043D0003748016803C981F00041CDE90A0134483A
:1043E0000168D1E90201CDE90801DDE90A2303F002
:1043F0007DFDCDE90C01DDE90E2303F099F9CDE94E
:1044000010012C48016851F8800F4968CDE90E0170
:10441000DDE9102303F036FC274A126802F54272E8
:1044200003C239E123480168D1E90201CDE906015F
:104430002048016803C9CDE90401DDE9062303F042
:1044400077F9CDE908011A48006841690069CDE9AA
:104450000601DDE9082303F015FC00224FF080433C
:10446000CDE90A0103F020FACDE90E0110480168F8
:10447000D1E90201CDE90A010D48006803C8CDE980
:104480000801DDE90A2303F023FECDE90C01DDE993
:104490000E2303F01DFECDE910010648006850F818
:1044A000801F40680A460346CDE90E1006E0000072
:1044B000580000205C00002060000020DDE91001B1
:1044C00003F0E0FBAF4A1268C2E90E01AE48006893
:1044D000C1688068CDE90601AB48006803C8CDE932
:1044E0000401DDE9062303F023F9CDE90801A7481B
:1044F0000168D1E90401CDE90601DDE9082303F0F3
:10450000C1FB00224FF08043CDE90A0103F0CCF952
:10451000CDE90E019D480068C1688068CDE90A01B7
:104520009A48006803C8CDE90801DDE90A2303F0D1
:10453000FFF8CDE90C01DDE90E2303F0F9F8CDE930
:1045400010019148016851F8800F4968CDE90E01CA
:10455000DDE9102303F096FB8A4A126802F1F002AB
:10456000C2E90E0188480168D1E90201CDE90601DE
:104570008548016803C9CDE90401DDE9062303F09C
:10458000D7F8CDE9080181480168D1E90401CDE9F6
:104590000601DDE9082303F075FB00224FF080439C
:1045A000CDE90A0103F080F9CDE90E0177480068F2
:1045B000C1688068CDE90A017448006803C8CDE984
:1045C0000801DDE90A2303F0B3F8CDE90C01DDE9C8
:1045D0000E2303F07DFDCDE910016B48006850F813
:1045E000801F40680A460346CDE90E10DDE9100140
:1045F00003F048FB634A126802F5067203C2624880
:104600000068C1688068CDE906015F48006803C89A
:10461000CDE90401DDE9062303F08AF8CDE90801BC
:104620005A480168D1E90401CDE90601DDE9082312
:1046300003F028FB00224FF08043CDE90A0103F08C
:1046400033F9CDE90E0151480068C1688068CDE9B1
:104650000A014E48016803C9CDE90801DDE90A23D2
:1046600003F036FDCDE90C01DDE90E2303F060F81F
:10467000CDE910014448006850F8801F40680A46A0
:104680000346CDE90E10DDE9100103F0FBFA3D4AC7
:10469000126802F5427203C21DB000BD2DE9F04759
:1046A00088B04FF0000A00BF61E03748006890F81A
:1046B000C20000283FD1CAEB0A12324909683831DA
:1046C00001EB0211486903F076FA804689462E48CC
:1046D0000068CAEB0A11D0E906432A48006838305E
:1046E00000EB01102246D0E90061304603F0CAFA1F
:1046F0000022274BCDE9000103F0C4FA42464B46A5
:10470000CDE9020103F0BEFACDE904011E480068BC
:10471000D0E904432246049803F0C6F8CDE9060127
:1047200003F01AFACAEB0A1216490968383101EB8C
:104730000211086108E00021CAEB0A121148006862
:10474000383000EB021001615046FCF707FF0021F2
:10475000CAEB0A120B480068383000EB021080F8F0
:10476000361044F62060FDF74CF80AF1010ABAF160
:10477000040F9ADB08B0BDE8F08710B5FCF7D6FE51
:1047800010BD0000600000205C00002058000020E8
:1047900000004E4030B502464FF6FF70002312E095
:1047A00015786840521C08240AE010F0010F04D06C
:1047B00040084AF20105684000E04008651EECB27E
:1047C000002CF2D15B1C8B42EAD330BD7CB5054690
:1047D0000C461B208DF800008DF801508DF802402A
:1047E00000208DF8030040208DF80400BF208DF8D4
:1047F000050005208DF8060007216846FCF72CFA15
:104800007CBD00000948804709480047FEE7FEE7F5
:10481000FEE7FEE7FEE7FEE7FEE7FEE7FEE7FEE770
:1048200004480549054A064B7047000091040008FA
:1048300031010008D0030020D0870020D083002061
:10484000D083002031490143314A1160704770B56F
:10485000002100230F22C4780CB32D4C246804F4EB
:10486000E064C4F5E064210AC1F10403CA4044785D
:1048700004FA03F18478144021430901254C067899
:10488000A155047804F01F050124AC4005786D1192
:104890004FF0E02606EB8505C5F8004109E00478F5
:1048A00004F01F050124AC401B4D0678761145F835
:1048B000264070BD194A0A400243154B1B1F1A605F
:1048C000704739B1124A121D12680243104B1B1D6A
:1048D0001A6006E00E4A121D126882430C4B1B1D23
:1048E0001A607047042808D14FF0E021096941F0AF
:1048F00004014FF0E022116107E04FF0E021096967
:1049000021F004014FF0E022116170470000FA0528
:104910000CED00E000E400E080E100E080FFFF1F1C
:1049200010B50446CA48844208D10121042000F091
:1049300027FB0021042000F023FB46E0C548844209
:1049400008D10121082000F01BFB0021082000F005
:1049500017FB3AE0C048844208D10121102000F042
:104960000FFB0021102000F00BFB2EE0BB4884421F
:1049700008D10121202000F003FB0021202000F0BD
:10498000FFFA22E0B648844208D10121402000F01D
:10499000F7FA0021402000F0F3FA16E0B148844213
:1049A00008D10121802000F0EBFA0021802000F0E6
:1049B000E7FA0AE0AC48844207D10121801500F0F3
:1049C000DFFA0021A01500F0DBFA10BD10B50121BF
:1049D000084600F0D5FA0021012000F0D1FA10BD00
:1049E0002DE9F04102460025002600200023002486
:1049F000002791F803C00CF00F0591F803C01CF0DC
:104A0000100F03D091F802C04CEA050591F800C0E0
:104A1000BCF1000F31D0146800202BE04FF0010CE6
:104A20000CFA00F3B1F800C00CEA03069E4220D154
:104A300083004FF00F0C0CFA03F7BC4305FA03FC9C
:104A40004CEA040491F803C0BCF1280F06D14FF0E2
:104A5000010C0CFA00FCC2F814C00AE091F803C083
:104A6000BCF1480F05D14FF0010C0CFA00FCC2F864
:104A700010C0401C0828D1D31460B1F800C0BCF1AC
:104A8000FF0F34DD546800202EE000F1080C4FF0D9
:104A9000010808FA0CF3B1F800C00CEA03069E42C4
:104AA00021D183004FF00F0C0CFA03F7BC4305FA39
:104AB00003FC4CEA040491F803C0BCF1280F05D1B3
:104AC00000F1080C08FA0CF8C2F8148091F803C041
:104AD000BCF1480F07D100F1080C4FF0010808FAAB
:104AE0000CF8C2F81080401C0828CED35460BDE8F2
:104AF000F0814FF6FF710180022181700421C170A5
:104B000070470246002093680B4201D0012000E06C
:104B1000002070470146886880B270470246002036
:104B2000D3680B4201D0012000E00020704701460D
:104B3000C86880B2704701617047416170470AB12F
:104B4000016100E041617047C16070474FF48032FD
:104B50000A4382618161826182698269704702468B
:104B60000020424B18684FF68073184040EA02104C
:104B700008433E4B186070473D49C8617047F0B527
:104B80000A46002300240021002500F00046B6F16B
:104B9000004F02D1354EF16901E0344E7168C0F327
:104BA000034583B200F44016B6F5401F08D121F04A
:104BB00070612E4E766826F070662C4F7E6012E093
:104BC00000F48016B6F5801F06D1032606FA05F418
:104BD000A14341F0706106E0460D360103FA06F686
:104BE000B14341F0706122B1460D360103FA06F679
:104BF000314300F00046B6F1004F02D11B4EF16187
:104C000001E01A4E7160F0BD30B500228B071C0F19
:104C10000F2303FA04F2154B08338C1053F8243099
:104C20009343124C08348D1044F8253023468C10E1
:104C300053F824308C07240F00FA04F423430B4C60
:104C400008348D1044F8253030BD0A49086070479B
:104C500000080140000C0140001001400014014018
:104C600000180140001C01400020014000000140EC
:104C700000002042DC002042DD48006840F00100D6
:104C8000DB49086008464068DA490840D84948606E
:104C900008460068D8490840D549086008460068B9
:104CA00020F4802008600846406820F4FE00486038
:104CB0004FF41F0088607047CD49096821F48031A6
:104CC000CB4A11601146096821F480211160B0F5CA
:104CD000803F03D0B0F5802F0ED106E0C4490968AB
:104CE00041F48031C24A116007E0C149096841F4CA
:104CF000A021BF4A116000E000BF00BF704710B59F
:104D000001460022002300204A11012A02D1B84C9A
:104D1000236806E0022A02D1B54C236A01E0B44CB4
:104D2000636A01F01F02012494401C4201D001205B
:104D300000E0002010BD38B50020009000240025C0
:104D400000BF3120FFF7DBFF05460098401C0090B4
:104D50000098B0F5A06F01D0002DF2D03120FFF700
:104D6000CEFF08B1012400E00024204638BD0146F2
:104D700000209F4A106820F0F80040EAC10010604F
:104D800070479E490860704702460020984B58685B
:104D900020F47C1042EA01031843954B5860704799
:104DA00096490866704701460020914A506820F0F5
:104DB00003000843506070478D48406800F00C00C5
:104DC0007047014600208A4A506820F0F0000843EE
:104DD0005060704701460020854A506820F4E0602A
:104DE00008435060704701460020814A506820F413
:104DF000605040EAC1005060704729B17C4A527A45
:104E000002437B4B5A7204E0794A527A8243784BD0
:104E10005A7270477A490860704701460020744A08
:104E2000506820F440400843506070470021754AA4
:104E300011706F4A82F82010012802D0042808D18E
:104E400003E001216F4A117004E005216D4A1170E1
:104E500000E000BF00BF70476B49086070476449BD
:104E6000096A0143624A1162704767494439086020
:104E7000704730B500210022002400235C4D6D688E
:104E800005F00C0121B1042905D0082923D105E042
:104E90005E4D056022E05D4D05601FE0544D6D687C
:104EA00005F47012524D6D6805F48034022505EB4F
:104EB00092421CB9564D554305600BE04C4D6D6850
:104EC00015F4003F03D0524D5543056002E04F4DAD
:104ED0005543056002E04D4D056000BF00BF444DE5
:104EE0006D6805F0F00109094A4D6B5C0568DD400D
:104EF00045603F4D6D6805F4E061090A454D6B5C06
:104F00004568DD4085603A4D6D6805F46051C90A19
:104F1000404D6B5C4568DD40C560354D6D6805F4FE
:104F20004041890B3C4D6B5CC568B5FBF3F50561F1
:104F300030BD29B12E4A526902432D4B5A6104E01B
:104F40002B4A526982432A4B5A61704729B1284A39
:104F500092690243264B9A6104E0254A9269824392
:104F6000234B9A61704729B1214AD2690243204BF1
:104F7000DA6104E01E4AD26982431D4BDA61704750
:104F800029B11B4AD2680243194BDA6004E0184A7F
:104F9000D2688243164BDA60704729B1144A12690D
:104FA0000243134B1A6104E0114A12698243104B09
:104FB0001A61704714494039086070470F49C86446
:104FC00070470B49C87170470948406A40F08070CB
:104FD00007494862704701460020054A92680A4224
:104FE00001D0012000E0002070470149887270471D
:104FF000001002400000FFF8FFFFF6FE00004242F2
:10500000D8004242201002408004424200127A003E
:1050100000093D006C0000207C00002010B5044613
:10502000FE48844209D101214806FFF7B6FF00215E
:105030004FF00070FFF7B1FF08E001218806FFF78D
:10504000ACFF00214FF08060FFF7A7FF10BD30B527
:10505000024600200023146824F00204146014683F
:1050600044F00104146000E05B1C546814F0010F6C
:1050700003D1A3F57F44FF3CF6D1546814F0010F2F
:1050800001D100206CE08C79012C04D1146844F02B
:105090008004146003E0146824F080041460CC7968
:1050A000012C04D1146844F04004146003E0146837
:1050B00024F0400414600C7A012C04D1146844F0EC
:1050C0002004146003E0146824F0200414604C7A77
:1050D000012C04D1146844F01004146003E0146837
:1050E00024F0100414608C7A012C04D1146844F06C
:1050F0000804146003E0146824F008041460CC7AF7
:10510000012C04D1146844F00404146003E0146812
:1051100024F0040414608C78A407CD7844EA056474
:105120000D7944EA05444D7944EA05540D886D1E15
:105130002C43D461146824F001041460002300E0BF
:105140005B1C546814F0010F03D0A3F57F44FF3CAF
:10515000F6D1546814F0010F01D0002000E00120C6
:1051600030BD10B50021837A012202FA03F1AC4A66
:10517000126842F00102AA4B1A60A94A1C32126856
:105180008A43A74B1C331A60027BCAB9A44A0C326B
:1051900012688A43A24B0C331A604288C38842EAE1
:1051A00003439F4A4032847A42F83430028883882D
:1051B00042EA03439A4A4032847A02EBC4025360C3
:1051C000027B012A19D1964A0C3212680A43944B89
:1051D0000C331A604288038842EA0343904A403203
:1051E000847A42F83430C288838842EA03438C4A86
:1051F0004032847A02EBC4025360C27A3AB9884AD8
:10520000121D12688A43864B1B1D1A6006E0844AF1
:10521000121D12680A43824B1B1D1A60028932B9A3
:105220007F4A143212688A437D4B14331A60028914
:10523000012A06D17A4A143212680A43784B143391
:105240001A60427B012A06D1754A1C3212680A4351
:10525000734B1C331A60724A126822F00102704BC1
:105260001A6010BD00218171C17101724172817299
:10527000C1728170C170032101710221417101214C
:10528000018070476649096841F00101644A116074
:105290001146096843F60E729143614A1160114646
:1052A000096841EA002111601146096821F00101F5
:1052B0001160704721B1026842F48032026003E05D
:1052C000026822F4803202607047E1B1026842F065
:1052D000800202604FF4C272125842F480734FF49D
:1052E000C27213504FF4CA72125842F480734FF4D2
:1052F000CA7213504FF4D272125842F480734FF4B2
:10530000D27213501BE0026822F0800202604FF458
:10531000C272125822F480734FF4C27213504FF4C9
:10532000CA72125822F480734FF4CA7213504FF4A9
:10533000D272125822F480734FF4D2721350704715
:1053400010B502460020936803F08063B3F1806FCC
:1053500000D110E0936803F00063B3F1006F01D156
:10536000012008E0936803F08053B3F1805F01D11E
:10537000022000E00420042879D002F5C07303EB7A
:1053800000131B6803F0010402F5C07303EB001364
:105390001C600B7A7BB94B7A0C8843EA445302F5C4
:1053A000C07404EB00142468234302F5C07404EBBA
:1053B0000014236010E00B7A4C6843EAC4034C7A73
:1053C000234302F5C07404EB00142468234302F560
:1053D000C07404EB001423608B7A03F00F038B720C
:1053E00002F5C07303EB00135B6823F00F0402F5B2
:1053F000C07303EB00135C6002F5C07303EB001392
:105400005B688C7A234302F5C07404EB001463607C
:105410008B7B1C064B7B44EA034403E000640040A2
:10542000006600400B7B44EA0323CC7A234302F559
:10543000C07404EB0014A3608B7C1C064B7C44EA14
:1054400003440B7C44EA0323CC7B234302F5C07462
:1054500004EB0014E36002F5C07303EB00131B6858
:1054600043F0010402F5C07303EB00131C6010BD90
:1054700010B50246002321B1012907D002290FD11E
:1054800009E09068F84C00EA04030BE09068F74CE0
:1054900000EA040306E09068F54C00EA040301E02A
:1054A000002300BF00BFF34C181BA34216D007DC3B
:1054B00083B16FF0806018180ED0022818D111E067
:1054C000B0F5007F10D0EC4C001909D0B0F5003FCA
:1054D0000ED10BE002230DE000230BE0002309E0D6
:1054E000002307E0012305E0012303E0012301E09D
:1054F000002300BF00BFD8B210BD21B1012907D0E1
:1055000002290FD109E0826842F0800282600AE03D
:10551000826842F40042826005E0826842F4000240
:10552000826000E000BF00BF704710B500F5D8737F
:1055300003EB01131B6803F004031372137A53B9CE
:1055400000F5D87303EB01131B6840F2FF7404EA03
:105550005353136009E000F5D87303EB01131B6884
:105560006FF0604404EAD303536000F5D87303EB93
:1055700001131B6803F00203537200F5D87303EBA9
:1055800001135B6803F00F03937200F5D87303EB0C
:1055900001135B681B0AD37400F5D87303EB011386
:1055A0009B68D37200F5D87303EB01139B681C0A48
:1055B000147300F5D87303EB01139B681C0C547330
:1055C00000F5D87303EB01139B681B0E937300F572
:1055D000D87303EB0113DB68D37300F5D87303EBC7
:1055E0000113DB681C0A147400F5D87303EB011374
:1055F000DB681C0C547400F5D87303EB0113DB68F3
:105600001B0E937421B9C36843F02003C36003E009
:10561000036943F02003036110BD21B9C26842F061
:105620002002C26003E0026942F02002026170477A
:105630000246002019B9D36803F0030006E00129EF
:1056400003D1136903F0030000E00020704710B598
:1056500002460B4600204FF6FF71BBB9146824F0D8
:10566000020444F00104146000E0491E546804F090
:105670000304012C01D00029F7D1546804F003047D
:10568000012C01D0002032E0012030E0012B13D1A9
:10569000146824F00304146000E0491E546814F0F8
:1056A000030F01D00029F8D1546814F0030F01D082
:1056B00000201CE001201AE0022B17D1146824F00E
:1056C000010444F00204146000E0491E546804F030
:1056D0000304022C01D00029F7D1546804F003041C
:1056E000022C01D0002002E0012000E0002010BDCB
:1056F000014600200A6822F0010242F002020A601C
:105700004A6802F00302022A00D1012070470146D4
:105710004FF6FF7200200B6823F002030B6000E0DD
:10572000521E4B6803F00203022B01D1002AF7D16D
:105730004B6803F00203022B00D0012070470146A2
:1057400000208A6902F070007047014600208A69D3
:10575000100E7047014600208A69C2F30740704767
:105760001AB143690B43436102E043698B434361D0
:10577000704710B50246002011F4700F08D09369ED
:10578000C1F31304234201D001202DE000202BE0BF
:1057900011F0807F08D05368C1F31304234201D075
:1057A000012021E000201FE011F0006F08D0936875
:1057B000C1F31304234201D0012015E0002013E0BF
:1057C00011F0007F08D0D368C1F31304234201D045
:1057D000012009E0002007E01369C1F3130423420C
:1057E00001D0012000E0002010BD0022234B99428F
:1057F00002D10023836111E0C1F3130211F0007F95
:1058000001D0C2600AE011F0806F01D0026105E0B2
:1058100011F0006F01D0826000E0426070470246E4
:1058200000200A4201D0012000E00020704770B53E
:1058300004460D4600266069284272D0B5F5807F87
:1058400069D01DDC082D42D006DC012D2DD0022DA3
:1058500031D0042D7FD134E0102D3ED0202D42D008
:10586000402D78D145E0000003000004000300084B
:1058700000000310000100080001FFF77000F03085
:10588000B5F5004F61D009DCB5F5007F4AD0B5F51C
:10589000806F4DD0B5F5006F5DD150E0B5F5803F1C
:1058A0002DD0B5F5003F56D12FE0A0685549FFF740
:1058B000B6FF064651E0E0680321FFF7B0FF064659
:1058C0004BE0E0680821FFF7AAFF064645E0E068E4
:1058D0001021FFF7A4FF06463FE020690321FFF7F0
:1058E0009EFF064639E020690821FFF798FF06462B
:1058F00033E020691021FFF792FF06462DE0606833
:105900000821FFF78CFF064627E060681021FFF7AB
:1059100086FF064621E0A0690121FFF780FF0646C9
:105920001BE01BE0A0690221FFF779FF064614E0A7
:10593000A0690421FFF773FF06460EE00BE0A069A3
:105940007021FFF76CFF064607E060680421FFF74F
:1059500066FF064601E0002600BF00E00026304654
:1059600070BDB1F5007F3AD00FDC202928D006DCCD
:1059700001291CD004291DD0082940D11DE040294F
:1059800021D0B1F5807F3AD126E0B1F5004F31D07A
:1059900006DCB1F5806F25D0B1F5006F2FD124E082
:1059A000B1F5803F12D0B1F5003F28D111E0154A82
:1059B000826025E00822C26022E01022C2601FE05F
:1059C000082202611CE01022026119E008224260F4
:1059D00016E01022426013E00422426010E004222C
:1059E00042600DE0042242600AE00022826104224B
:1059F000426005E0002282610422426000E000BFB4
:105A000000BF70470101010010B50446FB48844205
:105A100009D101218803FFF7B3FA00214FF4804038
:105A2000FFF7AEFA32E0F648844209D1012148047A
:105A3000FFF7B3FA00214FF40030FFF7AEFA25E08C
:105A4000F048844209D101218804FFF7A6FA002119
:105A50004FF48020FFF7A1FA18E0EB48844209D107
:105A60000121C804FFF799FA00214FF40020FFF745
:105A700094FA0BE0E548844208D101210805FFF7BC
:105A80008CFA00214FF48010FFF787FA10BD2DE942
:105A9000F04786B005460E460024A24600BFA14648
:105AA0000027B08900B100BF2F462C8A4CF6FF704A
:105AB0000440F08804432C82AC894EF6F310044075
:105AC000B08831890843718908430443AC81AC8AAA
:105AD0004FF6FF400440B0890443AC8201A8FFF7B1
