:020000040800F2
:10000000F812002045010008690100086B01000892
:100010006F0100087301000877010008000000006C
:100020000000000000000000000000007B0100084C
:100030007D010008000000007F0100088101000828
:100040005F0100085F0100085F0100085F01000810
:100050005F0100085F0100085F0100085F01000800
:10006000BF0500085F0100085F0100085F0100088C
:100070005F0100085F0100085F0100085F010008E0
:100080005F0100085F0100085F010008BD0500086E
:10009000E10300085F0100085F0100085F0100083C
:1000A0005F0100085F0100085F0100085F010008B0
:1000B0005F0100085F0100085F0100085F010008A0
:1000C0005F0100085F0100085F0100085F01000890
:1000D0005F010008A5010008110200085F01000887
:1000E0005F0100085F0100085F0100085F01000870
:1000F0005F0100085F0100085F0100085F01000860
:100100005F0100085F0100085F0100085F0100084F
:10011000F50200085F010008C10500085F01000842
:100120005F0100085F0100085F0100085F0100082F
:10013000DFF80CD007F022FC00480047D10500088A
:10014000F81200200648804706480047FEE7FEE711
:10015000FEE7FEE7FEE7FEE7FEE7FEE7FEE7FEE777
:10016000A972000831010008704700BFFEE700BF18
:10017000FEE700BFFEE700BFFEE77047704770472D
:10018000F748006828B1F6480068401EF449086046
:1001900007E01420F2490860F2480068401CF14969
:1001A0000860704710B540F22551EF4805F076F829
:1001B00018B340F22551EC4805F067F8EA4804F01E
:1001C000EDFFC1B2E94802680068401CE74B1860C7
:1001D000E74881541846006808280EDB194608686D
:1001E000C11700EB5171C910A0EBC1011A46116093
:1001F0000120E049096881F829000821DA4805F062
:1002000037F8012803D10821D74805F03EF810BD82
:1002100010B540F22551D84805F040F8002868D0C4
:10022000D54804F0BBFFC1B2D44802780078401C26
:10023000D24B1870D2488154184600781A2851DBE6
:1002400004E0D0480078401CCE490870CC48CD4925
:100250000978405C552806D0C949CA4800781A3048
:10026000085CAA28EDD1C5480078C6490978401A2B
:100270001A283EDBC249C3480078401C0858C249CE
:100280000860BF49BF480078401D0858BE49486013
:10029000BB49BC48007809300858BB4988606421D4
:1002A000B74807F088F80120B7490876B7480078C2
:1002B0000A2190FBF1F201FB120020B90121B448A0
:1002C00004F0BBFB03E00121B14804F0B4FBAF48EC
:1002D0000078401CAD4908700020A8490870A94961
:1002E000087006E0A5480078502802DD0020A349E8
:1002F000087010BD70B50025002440F22551A548B6
:1003000004F0CCFF00286AD0A24804F047FFC1B235
:10031000A14802680068401C9F4B18609F488154A8
:1003200018460068102853DB00E0641C9B48005D01
:1003300002280FD1994904F10D00085C0D2809D15C
:1003400004F10E00085C0A2804D104F10F00085CD7
:10035000032804D0904800680E38A042E5DC8E489F
:100360000068001B102833DB00208B49086081499E
:1003700009680860251D20E08848405D39280ADDAD
:100380007C48006800688549495D373908437949E8
:100390000968086009E07748006800687F49495D9E
:1003A000303908437349096808607248006800687A
:1003B00000017049096808606D1C04F10B0085425A
:1003C000DADB6C480068006800096A49096808605F
:1003D00071480068962802DD00206F49086070BDF2
:1003E00000B585B0002000906A4600216C4805F0F9
:1003F00070FD009800F4F060B0F5C07F3FD0B0F51C
:10040000B06F7CD19DF80C109DF80D0041EA0020E2
:10041000A0F5C040413811D020282ED19DF80F10F2
:10042000009800F07F00401EC0EB001251480068A9
:10043000383000EB021080F846101EE09DF80F10D7
:10044000009800F07F00401EC0EB00124948006891
:10045000383000EB021080F836109DF8101000982C
:1004600000F07F00401EC0EB0012424800683830A8
:1004700000EB021080F8371000BF00BF9BE09DF832
:100480000B10009800F07F00401EC0EB00123948AE
:100490000068383000EB021080F836109DF80C1020
:1004A000009800F07F00401EC0EB00123148006849
:1004B000383000EB021080F837109DF80D100098CE
:1004C00000F07F00401EC0EB00122A480068383060
:1004D00000EB021080F87E109DF80E10009800F0DE
:1004E0007F00401EC0EB001222480068383000EB4D
:1004F000021080F87F109DF80F10009800E059E07E
:1005000000F07F00401EC0EB00121A48006838302F
:1005100000EB021080F880109DF81010009800F099
:100520007F00401EC0EB001212480068383000EB1C
:10053000021080F881101B48007801280FD11A485A
:10054000007860B9012018490870009800F07F0019
:10055000401E16490870DDF80D00154908602AE0B4
:100560000000002014000020003801401C00002082
:10057000A8010020380000200044004004000020B2
:100580008400002006000020E80000200500002074
:1005900000180140004C0040080000201602002016
:1005A000006400404C0000200C0000204D000020A2
:1005B0004800002000BF00BF05B000BD7047704775
:1005C00010B50121014806F0FDFD10BD00100040EE
:1005D0001CB500F057FB00F0A3FB03F0F5F900F0A9
:1005E0005CFC0020154908600221154B40F2CF2227
:1005F000CDE90010C721134804F07AF80821124809
:1006000004F01BFA2021104804F017FA80210E484C
:1006100004F013FA40210D4804F00FFA02210C48AF
:1006200004F009FA01200B49087005E003F00CFD05
:1006300003F03BF903F0ACF9F8E7000014000020E8
:10064000000801400010004000140140000C01406F
:10065000001801404C00002001B502E00098401E47
:10066000009000980028F9D108BD08B54FF4C0608B
:1006700004F068F814208DF8000002208DF80100C5
:1006800000208DF8020001208DF80300684604F078
:100690005EF8FF208DF8000002208DF80100012097
:1006A0008DF802008DF80300684604F050F825200C
:1006B0008DF8000001208DF8010000208DF8020067
:1006C00001208DF80300684604F041F826208DF8DB
:1006D000000000208DF801008DF8020001208DF847
:1006E0000300684604F033F834208DF80000012040
:1006F0008DF801008DF802008DF80300684604F0C3
:1007000026F836208DF8000002208DF80100062022
:100710008DF8020001208DF80300684604F017F8F8
:1007200008BD08B57F20ADF8000010208DF803004B
:1007300003208DF802006946FE4804F0D1F84FF41A
:10074000FF40ADF8000048208DF8030003208DF82D
:1007500002006946F74804F0C3F8F020ADF8000045
:1007600048208DF8030003208DF802006946F24806
:1007700004F0B6F84FF20300ADF8000048208DF801
:10078000030003208DF802006946EC4804F0A8F845
:100790004FF47C70ADF8000048208DF80300032072
:1007A0008DF802006946E64804F09AF84FF47F405D
:1007B000ADF8000048208DF8030003208DF80200FA
:1007C0006946E04804F08CF80320ADF800004820AA
:1007D0008DF8030003208DF802006946D94804F023
:1007E0007FF84FF4E040ADF8000010208DF80300D2
:1007F00003208DF802006946D14804F071F8042006
:10080000ADF8000010208DF8030003208DF80200E1
:100810006946CC4804F064F85020ADF80000482048
:100820008DF8030003208DF802006946C34804F0E8
:1008300057F85020ADF8000048208DF80300032041
:100840008DF802006946BF4804F04AF8A820ADF8C8
:10085000000010208DF8030003208DF80200694687
:10086000B84804F03DF808BD10B506F01DFD0121A3
:10087000084604F0EBFA0121084604F0DAFA0121F7
:10088000480604F0F0FA0121480204F0DFFA0121E1
:100890007D2004F0DBFA10BD00B589B001214FF4D2
:1008A000EA1004F0ECF84FF48070ADF80400482032
:1008B0008DF8070001A9A14804F012F84FF4007068
:1008C000ADF8040018208DF8070003208DF806000D
:1008D00001A99A4804F004F89B4805F073F806A8AB
:1008E00005F094F900208DF81E0001208DF81F00FE
:1008F00000208DF820008DF821008DF822000120C5
:100900008DF8230000208DF81A008DF81B000120BF
:100910008DF81C0002208DF81D000C20ADF8180089
:1009200006A9894805F067F800208DF812008DF8B7
:10093000130001208DF814000020ADF80800ADF878
:100940000A00ADF80C00ADF80E00ADF81000012063
:100950008DF8150002A805F0D8F8012202217A4886
:1009600005F0D2FB002009B000BD00B591B02020F9
:10097000ADF82C0000208DF82F000BA9704803F073
:10098000AFFF0121084604F054FA0121480204F0A7
:100990005DFA6E4804F0C6FC6D4800906D48019009
:1009A00000200290012003900020049080200590F8
:1009B00040000690800007902020089000020990D7
:1009C00000200A906946614804F04EFD01215F480D
:1009D00004F075FD00200C9001208DF834008DF896
:1009E00035004FF460200E9000200F9001208DF80C
:1009F00040000CA956484C3804F0E3FD05230122C1
:100A00000F2153484C3804F074FE012150484C38F3
:100A100004F00EFE01214E484C3804F0FEFD4C4817
:100A20004C3804F01CFE00BF49484C3804F01CFE52
:100A30000028F9D146484C3804F020FE00BF444855
:100A40004C3804F020FE0028F9D1012140484C38F0
:100A500004F023FE11B000BD00B585B0012188036C
:100A600004F0F4F94FF40070ADF8100003208DF895
:100A7000120018208DF8130004A92F4803F030FF4E
:100A80004FF48060ADF8100004208DF8130004A925
:100A9000294803F025FF4FF4165000900020ADF8D0
:100AA0000400ADF80600ADF80800ADF80C000C200D
:100AB000ADF80A006946284804F073FA012240F2B2
:100AC0002551254804F005FB0121234804F0F5FADF
:100AD00005B000BD00B585B00121480404F0C3F99C
:100AE0000420ADF8100003208DF8120018208DF8B6
:100AF000130004A9104803F0F3FE0820ADF810001D
:100B000004208DF8130004A90B4803F0E9FE4FF40C
:100B1000E13000900020ADF80400ADF80600ADF81B
:100B20000800ADF80C000C20ADF80A0069460B482F
:100B300016E000000018014000080140000C0140D0
:100B40000010014000140140006400400800024011
:100B50004C240140180000200038014000440040AF
:100B600004F01FFA012240F22551424804F0B1FA84
:100B7000002240F226613F4804F0ABFA01213D48D3
:100B800004F09BFA05B000BD00B585B00121C80492
:100B900004F069F94FF48060ADF8100003208DF87F
:100BA000120018208DF8130004A9334803F098FEB2
:100BB0004FF40060ADF8100004208DF8130004A974
:100BC0002D4803F08DFE4FF4165000900020ADF834
:100BD0000400ADF80600ADF80800ADF80C000C20DC
:100BE000ADF80A006946254804F0DBF9012240F21D
:100BF0002551224804F06DFA0121204804F05DFAE5
:100C000005B000BD10B5044621461A4804F0C2FAEA
:100C100000BF1848008810F0800FFAD0204610BDA1
:100C200010B5044603E02078FFF7ECFF641C207841
:100C30000028F8D110BD10B50446E1B2104804F008
:100C4000A9FA00BF0E48008810F0800FFAD02046A5
:100C500010BD70B504460D46E1B2064804F09AFA9C
:100C600000BF4021034804F003FB0028F9D02046D0
:100C700070BD00000044004000100140004C0040E6
:100C80000038014070B5FFF7EFFDFFF74AFDFFF7B1
:100C9000ECFCFE49B1F1807F01D301201DE021F081
:100CA0007F40401E4FF0E022506150170F22002875
:100CB00007DA13071D0EF64B00F00F04241F1D5515
:100CC00003E013071C0EF34B1C5400BF00204FF031
:100CD000E022906107201061002001280FD10DE073
:100CE0000121ED4803F0A7FEEC48FFF7B5FC012118
:100CF000E94803F0A2FEE948FFF7AEFCF0E7042163
:100D0000E54803F09AFE0821E34803F094FEFFF75C
:100D1000A3FEFFF7DFFEFFF737FFFFF7BDFD70BD56
:100D200010B54FF4F56007F0DFF9DD4908604FF4C6
:100D3000F561DB48006806F03EFBD9480068D949F8
:100D40000860D7480068C030D7490860D4480068B8
:100D500000F5C470D5490860D148006800F5EC6022
:100D6000D3490860CE48006800F28470D149086019
:100D7000D149D248CC4A1268C2E90010D049D148C2
:100D8000C94A1268C2E90210CF49D048C64A12685F
:100D9000C2E904100021CE48C34A1268C2E9061015
:100DA000CC48C14A1268C2E908104FF03331CA4832
:100DB000BD4A126842F8881F50600021C748BA4AED
:100DC000126842F8901F5060C548C649B64A12687A
:100DD00042F8980F51600020C349B34A1268C2E933
:100DE0001C010021B04A12689167D167BC48BF4915
:100DF000AD4A1268C2E912010121AC480068C16421
:100E0000AA480068C0F83C11A8480068C0F82C1235
:100E1000A6480068C0F81C13A4480068C0F80C1469
:100E2000A2480068C0F8FC1400209E4A126842F8EC
:100E3000980F50609B4A126842F8A00F5060002142
:100E4000984A126842F8A81F516010BD70B502465A
:100E50000C46002300214FF6FF7010E012F8015BF2
:100E60006840002309E010F0010F04D04AF20105A8
:100E700085EA500000E040085B1C082BF3DB2500EE
:100E8000A4F10106F4B2E9D101464FF47F4505EA29
:100E90000020C1F30721084470BD70B50A25002465
:100EA00000260EE001217C4803F0C5FD9048FFF7C5
:100EB000D3FB0121784803F0C0FD8D48FFF7CCFB40
:100EC0006D1E002DEEDC1E253FE100268022002154
:100ED000084602F0DBFE002433E1C4EB0411734842
:100EE0000068383000EB011090F8280030B101287C
:100EF0007ED002287DD003287CD11DE104F201229E
:100F00000C21204602F0C2FE44F62060FFF7A4FB4D
:100F100001220D21204602F0B9FE44F62060FFF7C1
:100F20009BFB02220E21204602F0B0FE44F6206018
:100F3000FFF792FB6F4A0F21204602F0A7FE44F60E
:100F40002060FFF789FB6C4A1021204602F09EFECC
:100F500044F62060FFF780FB6848221811212046E4
:100F600002F094FE44F62060FFF776FB0122122186
:100F7000204602F08BFE44F62060FFF76DFB022254
:100F80001321204602F082FE44F62060FFF764FB46
:100F90005B4A1421204602F079FE44F62060FFF7F8
:100FA0005BFB584A1521204602F070FE44F6206093
:100FB000FFF752FB42F210721621204602F066FE45
:100FC00044F62060FFF748FB03220221204602F08E
:100FD0005DFE44F62060FFF73FFB0321204602F050
:100FE00064FF44F62060FFF737FBC4EB041102E016
:100FF00015E03BE0A2E02D480068383000EB01101E
:1010000090F84600032809D10121C4EB04122748B7
:101010000068383000EB021080F828108FE00622BC
:101020000021204602F032FE44F62060FFF714FB58
:101030000121204602F039FF44F62060FFF70CFB47
:10104000C4EB041119480068383000EB011090F827
:101050003600212809D10221C4EB0412134800688C
:10106000383000EB021080F8281068E00F220021D1
:10107000204602F00BFE44F62060FFF7EDFA012156
:10108000204602F012FF44F620603DE040190100C6
:1010900018ED00E000E400E00018014040420F00BD
:1010A0002C000020300000203400002038000020F8
:1010B0003C00002040000020F6285C8FC2F5E03F95
:1010C000D7A3703D0AD7E33FFB3FD94F8A6DE43F7A
:1010D000000044400040AF403333D33F0000F03FB6
:1010E0007B14AE47E17A943F00000840E17A843FE8
:1010F000C0C62D00100040602000FF60810100404C
:101100001000416020006460FFF7A6FAC4EB0411F0
:10111000FE480068383000EB011090F836003728A0
:1011200009D10321C4EB0412F8480068383000EB01
:10113000021080F8281002E0761C00E000BF00BF1B
:10114000641C062CFFF6C9AE6D1E002D02DD062EB6
:101150007FF4BBAE062E1DD102F0E6FE002510E0A6
:101160000121EB4803F067FC47F23050FFF774FAB7
:101170000121E74803F061FC47F23050FFF76CFAB9
:101180006D1C502DECDC02F0FDFE4EF66020FFF7EA
:1011900063FA0FE00DE00121DD4803F04CFCDD486F
:1011A000FFF75AFA0121DA4803F047FCD948FFF764
:1011B00053FAF0E770BD2DE9F04F93B04FF0000AFD
:1011C00020210AA806F0F7F800BF00BF00BF00BF4B
:1011D000F8E0CAEB0A11CD480068383000EB011086
:1011E00090F8360008B1012000E0002010F0080F50
:1011F00009D1CAEB0A11C5480068383000EB01106C
:1012000090F8360048B9C448006890F8C20040F031
:101210000100C149096881F8C200CAEB0A12BB4942
:101220000968383101EB0211486906F057FACDE937
:101230000401B94800680022B84BD0E906B158460D
:1012400006F06BF9CDE90201DDE9042306F065F94A
:10125000CAEB0A12CDE90801AC490968383101EB43
:101260000211D1F8660006F039FACDE90401AA4866
:101270000168D1E904B35A46DDE9040106F04DF9ED
:10128000CDE90601DDE9082306F0B9F9CAEB0A1336
:101290009E4A1268383202EB0312C2E90201CAEB1D
:1012A0000A129A490968383101EB0211486906F0BF
:1012B00015FACDE9040198480168D1E90801CDE9A2
:1012C000000195480168D1E906B15846DDE90023DF
:1012D00006F023F9CDE90201DDE9042306F01DF94A
:1012E000CAEB0A12CDE9080188490968383101EBD7
:1012F0000211D1F87E0006F0F1F9CDE9040186482B
:101300000168D1E904B35A46DDE9040106F005F9A4
:10131000CDE90601DDE9082306F071F9CAEB0A13ED
:101320007A4A1268383202EB0312C2E906017C489D
:1013300050F82A00A8B9CAEB0A117448006838307E
:1013400000EB0111D1E90601CAEB0A136F4A1268DA
:10135000383202EB0312C2E908010120704941F85A
:101360002A00CAEB0A1169480068383000EB011105
:10137000D1E90801CDE90801CAEB0A116348006808
:10138000383000EB0110D0E906B15846DDE90823FA
:1013900006F0BDF80AAA02EBCA0203C2CAEB0A11A0
:1013A0005A480068383000EB0111D1E90601CAEB58
:1013B0000A13564A1268383202EB0312C2E90801D6
:1013C0000AF1010ABAF1060FFFF603AFDDE90C01DD
:1013D000CDE90201DDE90AB35A4605F0F7FFCDE990
:1013E0000401DDE90EB35A4605F0F0FFCDE9060130
:1013F000DDE910B35A4605F0E9FF0022494BCDE97B
:10140000080106F0FCF804460D46DDE90A0181F00A
:101410000041CDE90201DDE90CB35A4605F0D6FFE3
:10142000CDE90401DDE90EB35A4605F0CFFFCDE961
:101430000601DDE910B35A4606F069F80022394B7F
:10144000CDE9080106F0DBF806460F463248016890
:10145000D1E902B3006803C85A46CDE9020105F09C
:10146000B5FF00224FF08043CDE9040106F055F8A6
:10147000CDE90801DDE90A0181F00041CDE9000173
:10148000DDE90CB35A4605F0A1FFCDE90201DDE923
:101490000EB35A4606F03BF8CDE90401DDE910B37E
:1014A0005A4605F093FFCDE90601DDE9082306F071
:1014B000A6F8804689461C48006850F8A82F416865
:1014C000104606F047FE32463B46CDE9020106F0E3
:1014D00024F8CDE906011448016851F8A82F49689D
:1014E000104606F0ABFD22462B46CDE9020106F080
:1014F00014F8CDE90401DDE9062306F008F8CDE98A
:1015000008010948006850F898BF0FE03800002033
:1015100000180140405489003400002000004E4073
:10152000AC02002000001040300000205A46436802
:10153000089805F04BFFFE4A126842F8980F516078
:10154000FB48016851F8A82F4968104606F076FD5F
:1015500032463B46CDE9020105F0DFFFCDE9060149
:10156000F348016851F8A82F4968104606F0F2FDCB
:1015700022462B46CDE9020105F0CFFFCDE904015B
:10158000DDE9062305F022FFCDE90801E8480068FF
:1015900050F8A0BF5A464368089805F017FFE44A80
:1015A000126842F8A00F5160E148006850F8A8BFE7
:1015B00042464B464168584605F008FFDC4A12682F
:1015C00042F8A80F5160DA48006850F8A82F416827
:1015D000104606F0BFFD32463B46CDE9020105F05C
:1015E0009CFFCDE90601D248006850F8A82F416859
:1015F000104606F023FD22462B46CDE9020105F0F8
:101600008CFFCDE90401DDE9062305F080FFC94A1E
:10161000C94BCDE9080105F0F2FFC54A126842F84E
:10162000800F5160C248006850F8A82F41681046EA
:1016300006F004FD32463B46CDE9020105F06DFFA0
:10164000CDE90601BA48016851F8A82F496810464B
:1016500006F080FD22462B46CDE9020105F05DFF34
:10166000CDE90401DDE9062305F0B0FEB14AB24B35
:10167000CDE9080105F0C3FFAD4A126842F8880FB2
:101680005160AC4AAC4B4046494605F0B8FFA84A09
:10169000126842F8900F516013B0BDE8F08F7047A8
:1016A0007047704700B59DB000201B9000211A9133
:1016B00000BF00BF00BF00BF00BF139112909F4941
:1016C000096848769E48006890F8C000012870D1EB
:1016D0009A490968487600201A900AE099480168FA
:1016E0001A98095C1B980844C1B21B911A98401CB7
:1016F0001A901A982028F1DB9248006890F8201080
:101700001B98814254D190480078401C8E49087043
:1017100008460078119000EBD07041101198B0EBA2
:10172000410004D10221894803F087F903E0022136
:10173000864803F080F9022080490968487681488C
:101740000068807F732835D100207D49096881F8C1
:10175000C4007C48006800680F9005F0BFFF0022BD
:101760007B4BCDE9100105F04AFF714A126803C2B4
:101770007448006840680F9005F0B0FF0022744B79
:10178000CDE9100105F03BFF694A1268C2E9020188
:101790006C48006880680F9005F0A0FF00226C4B39
:1017A000CDE9100105F02BFF614A1268C2E904017E
:1017B000D2E2D6E263480068807F72287DD10320A0
:1017C0005E49096848765F480068007F012875D146
:1017D0005C4800684069119005F080FF544A126827
:1017E00042F8B00F5160574800688169084611916E
:1017F00005F074FF4E4A126842F8B80F5160514824
:101800000068016808460D9105F068FF514A524B87
:10181000CDE90E0105F081FE0022504BCDE910010B
:1018200005F0EDFE424A126842F8A80F51604048A8
:10183000006850F8A81F4068CDE9061008460799CF
:1018400006F088FCCDE90A013E4800688168084638
:10185000039105F043FF374A414BCDE9040105F000
:101860005CFE404A404BCDE9060105F056FECDE94D
:101870000801DDE90A2305F050FECDE90E012C48F0
:10188000006850F8A81F4068CDE90610084607997F
:1018900006F0D4FBCDE90A012A48006840680390AD
:1018A00005F01CFF234A2E4BCDE9040105F035FE5F
:1018B0002C4A2D4BCDE9060101E066E1A1E005F0DF
:1018C0002CFECDE90801DDE90A2305F026FECDE96D
:1018D0000C01DDE90E2305F01AFECDE910011448D4
:1018E000016851F8B00F4968CDE90E01DDE9102318
:1018F00005F06CFD0E4A126842F8980F51600C48D2
:10190000016851F8A80F4968CDE9060106F096FB79
:10191000CDE90A010B48006881680846039105F08B
:10192000DDFE044A0E4BCDE9040105F0F6FD1DE095
:10193000300000207B14AE47E17A943F4000002045
:10194000340000203C000020280000200018014046
:1019500000408F404AD8124DFB2109400094D140ED
:10196000E17A843F4D840D4FAF94953FFD4AFE4B85
:10197000CDE9060105F0D1FDCDE90801DDE90A2335
:1019800005F0CBFDCDE90E01F848006850F8A81F1E
:101990004068CDE906100846079906F0DBFBCDE963
:1019A0000A01F34800684068039005F097FEF14A89
:1019B000F14BCDE9040105F0B0FDEA4AEA4BCDE96F
:1019C000060105F0AAFDCDE90801DDE90A2305F0CD
:1019D000A4FDCDE90C01DDE90E2305F0F7FCCDE90E
:1019E0001001E248016851F8B80F4968CDE90E01CD
:1019F000DDE9102305F0EAFCDC4A126842F8A00F8A
:101A00005160DB480068C068119005F067FED74A56
:101A10001268C2E90E01D6480068016908461191B2
:101A200005F05CFED14A1268C2E91001D048006896
:101A3000407FD249096888423BD0CC48006850F8C2
:101A4000981F40680022CE4BCDE90C1008460D9936
:101A500005F0BCFCCDE90E0105F051FE119005F03A
:101A60003DFEC24A1268C2E91801C048016851F837
:101A7000A00F49680022C24BCDE90C0105F0A6FC7D
:101A8000CDE90E0105F03BFE119005F027FEB74AA7
:101A90001268C2E91A010020B449096881F8780087
:101AA000B249096881F87900B1480068407FB349BC
:101AB0000860B2480078B34909680876AB48016805
:101AC000D1E9100121F00041CDE90E01A7480168DC
:101AD000D1E90E0121F00041CDE90C01DDE90E2331
:101AE00005F074FC0022A84BCDE9100105F015FDAE
:101AF0009E4A1268C2E914019D480068C0689C496A
:101B000009680969484300280DD199480068C068F0
:101B1000002809DD96480068006928B90021934A29
:101B200012689164D16417E191480068C068002888
:101B30000ADA8F480068006930B9944994488B4AA2
:101B40001268C2E9121007E189480068C06858B9F4
:101B5000874800680069002806DD8C498D48834A63
:101B60001268C2E91210F7E081480068C0680028D6
:101B7000D9D17F48006800690028D4DA83498648B3
:101B80007A4A1268C2E91210E6E079480068807F5C
:101B90007128C8D176480068007F0128C3D17448F5
:101BA000006800680D9005F099FD784A7B4BCDE9FF
:101BB0000E0105F0B2FC0022794BCDE9100105F0D1
:101BC0001EFD6A4A126842F8A80F51606848006812
:101BD000C0680D9005F082FDCDE9100163480168F1
:101BE00051F8A80F4968CDE9040106F0B3FACDE930
:101BF00008015F4800688068019005F06FFD5D4A4C
:101C00005D4BCDE9020105F088FC664A664BCDE9E3
:101C1000040105F082FCCDE90601DDE9082305F0A9
:101C20007CFCCDE90C015148016851F8A80F4968C6
:101C3000CDE9040106F002FACDE908014C4800683C
:101C40004068019005F04AFD4A4A4B4BCDE902013C
:101C500005F063FC534A544BCDE9040105F05DFCEB
:101C6000CDE90601DDE9082305F057FCCDE90A01BD
:101C7000DDE90C2305F04BFCCDE90E01DDE9102375
:101C800005F0A4FB394A126842F8980F51603848B1
:101C9000006800690D9005F021FDCDE91001334881
:101CA000016851F8A80F4968CDE9040106F0C6F9AA
:101CB000CDE908012E48006881680846019105F0C9
:101CC0000DFD2C4A2C4BCDE9020105F026FC354ACE
:101CD000354BCDE9040105F020FCCDE90601DDE935
:101CE000082305F01AFCCDE90C012048006850F8E3
:101CF000A81F4068CDE904100846059906F02AFAA5
:101D0000CDE908011A48006841680846019105F0CC
:101D1000E5FC184A184BCDE9020105F0FEFB214A0B
:101D2000214BCDE9040105F0F8FBCDE90601DDE921
:101D3000082305F0F2FBCDE90A01DDE90C2305F0EB
:101D400045FBCDE90E01DDE9102305F03FFB074A15
:101D5000126842F8A00F516000201449096881F808
:101D6000C00025E04D840D4FAF94953F300000201A
:101D70003C0000207B14AE47E17A843F2000002025
:101D80000000E03F400000200000F03F4AD8124D24
:101D9000FB2109C0FB21F93FFB21F9BFFB210940D1
:101DA0000094D140C3F5285C8FC2953F34000020D9
:101DB000FE48006890F87800C0BBFC48006850F806
:101DC000A81F4068CDE90E10F8480068C16C806C0F
:101DD000CDE90C01DDE90E2305F099FB21F000416E
:101DE000F34AF44BCDE9100105F0BCFC1FD2EF48DB
:101DF000006850F8A81F4068CDE90E10EB48016854
:101E0000D1E91201CDE90C01DDE90E2305F07FFBDC
:101E100021F00041E84AE94BCDE9100105F08EFCC4
:101E200005D20620E149096881F8780004E007201E
:101E3000DE49096881F87800DC48006890F878008D
:101E4000062805D0D948006890F8780007287CD18A
:101E5000D648006850F8981F40680022D84BCDE95A
:101E60000A1008460B9905F0B1FACDE90C0105F00E
:101E700046FC0F9005F032FCCDE91001CB4801681B
:101E800051F8980F4968CDE90E01DDE9102305F0FE
:101E90003EFBCDE91601C548016851F8A00F49681D
:101EA0000022C74BCDE90A0105F090FACDE90C01FB
:101EB00005F025FC0F9005F011FCCDE91001BB48A1
:101EC000016851F8A00F4968CDE90E01DDE9102342
:101ED00005F01DFBCDE91401B448016851F8A80FC5
:101EE0004968CDE9080106F035F9CDE90A01DDE9D7
:101EF000142305F012FBCDE90E01AC48006850F840
:101F0000A81F4068CDE908100846099906F096F820
:101F1000CDE90A01DDE9162305F0FFFACDE90C0150
:101F2000DDE90E2305F052FA81F000410022A54BB5
:101F3000CDE9100105F0F1FA9C4A126803C29B48F2
:101F4000016851F8A80F496800E017E2CDE90801DF
:101F500006F000F9CDE90A01DDE9162305F0DDFA06
:101F6000CDE90E019148016851F8A80F4968CDE903
:101F7000080106F063F8CDE90A01DDE9142305F054
:101F8000CCFACDE90C01DDE90E2305F0C0FA81F0B1
:101F9000004100228B4BCDE9100105F0BEFA834AC7
:101FA0001268C2E902018148016851F8A80F496826
:101FB000854A864BCDE9100105F0D4FB0FD87B484C
:101FC000016851F8A80F49687F4A814BCDE910019B
:101FD00005F09DFA754A126842F8A80F51607348DF
:101FE000006890F87800072835D17048016851F8EA
:101FF000A80F4968CDE90E016C480168D1E91201CA
:10200000CDE90C01DDE90E2305F081FA21F0004154
:102010006D4A6E4BCDE9100105F090FB1CD2634870
:10202000006850F8A81F4068CDE90E105F480168AD
:10203000D1E91201CDE90C01DDE90E2305F067FAC3
:102040004FF06632634BCDE9100105F066FA574A4E
:102050001268C2E9040158E05448006850F8A81F0B
:102060004068CDE9101051480168D1E91201CDE96D
:102070000E01DDE9102305F075FB22D24B48016803
:1020800051F8A80F4968504A514BCDE90C0105F0B1
:102090009DF9CDE90E0145480068C16C806CCDE921
:1020A0000C01DDE90E2305F032FA4FF06632494BA0
:1020B000CDE9100105F031FA3C4A1268C2E9040189
:1020C00023E03A480168D1E9120102460B46CDE906
:1020D0000C013D483D4905F079F9CDE90E01334841
:1020E000016851F8A80F4968CDE90C01DDE90E231C
:1020F00005F06CF94FF06632364BCDE9100105F072
:102100000CFA2A4A1268C2E904012848006890F8CB
:102110007800062869D12548006850F8A81F406853
:10212000CDE90E1021480068C16C806CCDE90C012E
:10213000DDE90E2305F0EBF921F00041224A234BA3
:10214000CDE9100105F0FAFA1CD218480168D1E96E
:102150001201CDE90E011548016851F8A80F496830
:10216000CDE90C01DDE90E2305F0D1F94FF066321F
:10217000184BCDE9100105F0D0F90C4A1268C2E9FC
:10218000040132E00948006850F8A81F4068CDE912
:102190000E1006480168D1E91201CDE90C01DDE914
:1021A0000E2305F0B4F94FF0663215E03000002040
:1021B000CDCCCCCCCCCC02405C8FC2F5285C0F409F
:1021C0000000E03F000014404AD8124DFB210940B6
:1021D000FB2119406666EE3FFE4BCDE9100105F08C
:1021E0009CF9FD4A1268C2E90401FB48016851F8F4
:1021F000A80F4968CDE90E01F7480068C16C806CF2
:10220000CDE90C01DDE90E2305F081F921F0004153
:10221000F24AF34BCDE9100105F090FA21D3EE48D4
:10222000006850F8A81F4068CDE90C10EA48016822
:10223000D1E91201CDE90A01DDE90C2305F067F9C6
:1022400021F00041E74AE84BCDE90E0105F05FF9C6
:1022500021F00041E14AE24BCDE9100105F06EFAB0
:102260000AD20120DC49096881F878000021DA4AA5
:1022700012681160516081E0D748006850F8A81FCB
:102280004068CDE90E10D4480168D1E91201CDE9CA
:102290000C01DDE90E2305F03AF921F00041D34AA3
:1022A000D34BCDE9100105F05DFA19D2CA48006898
:1022B00050F8A81F4068CDE90E10C7480068C16CEF
:1022C000806CCDE90C01DDE90E2305F020F921F049
:1022D0000041C84AC84BCDE9100105F02FFA43D39D
:1022E000BD48006850F8A81F4068CDE90C10BA48F6
:1022F0000068C16C806CCDE90A01DDE90C2305F0B2
:1023000006F921F00041B74AB74BCDE90E0105F0BF
:10231000FEF821F00041B54AB54BCDE9100105F0BA
:1023200021FA2BD2AC48016851F8A80F4968CDE9D1
:102330000C01A9480168D1E91201CDE90A01DDE9E2
:102340000C2305F0E4F821F00041A64AA64BCDE9A4
:102350000E0105F0DCF821F00041A64AA64BCDE9BC
:10236000100105F0EBF909D205209B49096881F8B5
:1023700078000020984A1268106050609648006803
:1023800090F87800012805D09348006890F878000C
:1023900005287CD19048006850F8A81F4068914AF1
:1023A000964BCDE910100846119905F0DBF911D8CC
:1023B0008948006850F8A81F40688A4A8A4BCDE9CE
:1023C00010100846119905F0A2F8834A126842F8E5
:1023D000A80F51608048006890F87800012835D136
:1023E0007D48006850F8A81F4068CDE90E107A4873
:1023F0000068C16C806CCDE90C01DDE90E2305F0AD
:1024000086F821F00041774A7C4BCDE9100105F0B8
:1024100095F91CD27048016851F8A80F4968CDE9B8
:102420000E016D480168D1E91201CDE90C01DDE929
:102430000E2305F06CF84FF06632664BCDE91001C3
:1024400005F06BF8644A1268C2E904015CE0624876
:10245000006850F8A81F4068CDE910105E48016878
:10246000D1E91201CDE90E01DDE9102305F07AF979
:1024700026D25948006850F8A81F4068594A5A4B5C
:10248000CDE90C1008460D9904F0A0FF00E0FCE334
:10249000CDE90E0150480168D1E91201CDE90C01E6
:1024A000DDE90E2305F033F84FF06632494BCDE9F4
:1024B000100105F032F8484A1268C2E9040123E02D
:1024C00045480068C16C806C02460B46CDE90C01A2
:1024D0004448454904F07AFFCDE90E013E480168C1
:1024E00051F8A80F4968CDE90C01DDE90E2305F08C
:1024F00011F84FF06632374BCDE9100105F00DF8B9
:10250000354A1268C2E904013348006890F878003F
:10251000052837D130480168D1E9120121F0004186
:10252000374A384BCDE9100105F008F92BD22A487B
:102530000168D1E9120121F00041334A334BCDE962
:10254000100105F00FF91ED22348016851F8A80FB9
:10255000496881F00041CDE90E011F480168D1E9C9
:102560001201CDE90C01DDE90E2304F0D3FF4FF099
:102570006632184BCDE9100104F0CFFF164A1268FD
:10258000C2E90401A3E014480068C16C806C002219
:102590001346CDE9100105F0D1F843D20E4800688A
:1025A000C16C806C0F4A154BCDE90C0104F00EFF95
:1025B000CDE90E010848006850F8A81F40680A4697
:1025C0000346CDE90C10DDE90E0104F0A0FF4FF049
:1025D00066321DE06666EE3F300000207B14AE4799
:1025E000E17A843F4AD8124DFB2119400AD7A370E3
:1025F0003D0A09409EEFA7C64B370940FB21094021
:10260000444C89247AD90240C45F9335EA21E93FDA
:10261000FE4BCDE9100104F080FFFD4A1268C2E9CB
:10262000040154E0FA48016851F8A80F49680022F3
:102630001346CDE9100105F095F824D2F44800685E
:10264000C16C806CF34AF44BCDE90C0104F0BEFE82
:10265000CDE90E01EE48006850F8A81F40680A4610
:102660000346CDE90C10DDE90E0104F050FF4FF0F8
:102670006632E64BCDE9100104F04FFFE44A1268E0
:10268000C2E9040123E0E2480068C16C806CE14AC1
:10269000E14BCDE90C0104F03AFFCDE90E01DC4835
:1026A000006850F8A81F40680A460346CDE90C10A0
:1026B000DDE90E0104F02BFF4FF06632D34BCDE97C
:1026C000100104F02AFFD24A1268C2E90401D0487E
:1026D000006850F8981F40680022D04BCDE90A10DE
:1026E00008460B9904F072FECDE90C0105F007F8DD
:1026F0000F9004F0F3FFCDE91001C548006850F8D1
:10270000981F40680A460346CDE90E10DDE9100126
:1027100004F000FFCDE91601BD48006850F8A01F85
:1027200040680022BD4BCDE90A1008460B9904F021
:102730004DFECDE90C0104F0E2FF0F9004F0CEFF56
:10274000CDE91001B248016851F8A00F4968CDE900
:102750000E01DDE9102304F0DAFECDE91401AC48E6
:10276000016851F8A80F4968CDE9080105F0F2FCAD
:10277000CDE90A01DDE9162304F0CFFECDE90E0113
:10278000A348006850F8A81F4068CDE90810084623
:10279000099905F053FCCDE90A01DDE9142304F0A1
:1027A000BCFECDE90C01DDE90E2304F0B0FE81F0A2
:1027B00000419B4A9B4BCDE9100104F0AEFE944AC8
:1027C0001268C2E902019848006850F8881F406802
:1027D0000A460346CDE90E100020944904F00FFF8D
:1027E000CDE910018A480168D1E9140102460B467F
:1027F000CDE90E01DDE9100104F0A0FF06D28C49FD
:102800008C48834A1268C2E900101DE086480168BE
:1028100051F8880F4968CDE90C017D480168D1E97C
:102820001401CDE90A01DDE90C2304F076FECDE9BF
:102830000E0105F0E7FC0022784BCDE9100104F011
:102840006CFE734A126803C271480068416E006EE4
:10285000CDE90C016E48016851F8980F4968CDE93F
:102860000A01DDE90C2304F052FECDE910016848AD
:102870000168D1E91801CDE90C016548006850F8FC
:10288000981F4068CDE90A1008460BA90EC904F04C
:102890003EFECDE90E01DDE9102304F03EFECDE958
:1028A00018015B480168D1E91A01CDE90A015848CD
:1028B000016851F8A00F4968CDE90801DDE90A2354
:1028C00004F025FECDE90E0151480168D1E91A0155
:1028D000CDE90A014E48016851F8A00F4968CDE9D9
:1028E0000801DDE90A2304F012FECDE90C01DDE95F
:1028F0000E2304F012FECDE91001DDE9182304F0E7
:1029000065FDCDE91801DDE9180105F07BFC404AC1
:102910001268C2E916014448006850F8881F4068F0
:1029200000224FF08043CDE90C1008460D9904F0C9
:10293000F4FDCDE910013648016803C9CDE90C0169
:102940003348006803C8CDE90A01DDE90C2304F02F
:10295000E4FDCDE90E01DDE9102304F050FECDE9E0
:1029600018012B480168D1E91401CDE90C01DDE91A
:10297000182304F0CCFD2E4A2F4BCDE90E0104F0B4
:10298000C6FDCDE9100122480068C16D806D024688
:102990000B46CDE90E01DDE9100104F0CFFE04D8AD
:1029A00000211B4A1268116051601948006890F8B4
:1029B000780001286DD116480168D1E91401CDE9EC
:1029C0000E0113480068C16D806DCDE90C01DDE991
:1029D0000E2304F09CFD21F00041154A164BCDE971
:1029E000100104F0ABFE55D20948016851F8A80F58
:1029F0004968CDE9080105F0ADFBCDE90A01DDE943
:102A0000142304F08AFDCDE90E0117E06666EE3F5F
:102A1000300000204AD8124DFB2109400000E03F61
:102A2000CDCCCCCCCCCCFC3F340000200000D03F3F
:102A30009A9999999999C93F9999A93FFE4801682E
:102A400051F8A80F4968CDE9080105F0F7FACDE97A
:102A50000A01DDE9162304F060FDCDE90C01DDE992
:102A60000E2304F0B3FC81F000410022F34BCDE9CA
:102A7000100104F052FDCDE91801EF48006803C8C9
:102A8000CDE91001DDE9182304F0A0FCEA4A126840
:102A900003C255E0E8480068416D006DCDE90E01C4
:102AA000E5480168D1E91601CDE90C01DDE90E2305
:102AB00004F02DFD21F000414FF03332E04BCDE921
:102AC000100104F03BFE3BD2DB48016851F8A80F2F
:102AD0004968CDE9080105F03DFBCDE90A01DDE9D2
:102AE000142304F01AFDCDE90E01D348016851F812
:102AF000A80F4968CDE9080105F0A0FACDE90A015F
:102B0000DDE9162304F009FDCDE90C01DDE90E2312
:102B100004F05CFC81F000410022CA4BCDE91001B9
:102B200004F0FBFCCDE91801C348016803C9CDE9F5
:102B30001001DDE9182304F049FCBF4A126803C202
:102B4000BD48006890F87800052854D1BA4800685C
:102B5000416D006DCDE90E01B7480068C16D806D13
:102B6000CDE90C01DDE90E2304F0D1FC21F0004198
:102B7000B54AB64BCDE9100104F0E0FD3CD2AE48B9
:102B8000016851F8A80F4968CDE9080105F0E2FA9B
:102B9000CDE90A01DDE9142304F0BFFCCDE90E0103
:102BA000A548006850F8A81F4068CDE908100846FD
:102BB000099905F043FACDE90A01DDE9162304F08D
:102BC000ACFCCDE90C01DDE90E2304F0FFFB002293
:102BD0009A4BCDE9100104F0A0FCCDE9180196480C
:102BE000016803C9CDE91001DDE9182304F0EEFB0B
:102BF000914A126803C257E08F480068416D006D2A
:102C0000CDE90E018C480168D1E91601CDE90C012E
:102C1000DDE90E2304F07BFC21F000414FF033325C
:102C2000874BCDE9100104F089FD3DD2824801684F
:102C300051F8A80F4968CDE9080105F08BFACDE9F4
:102C40000A01DDE9142304F068FCCDE90E017A489D
:102C5000006850F8A81F4068CDE908100846099997
:102C600005F0ECF9CDE90A01DDE9162304F055FC85
:102C7000CDE90C01DDE90E2304F0A8FB0022714B25
:102C8000CDE9100104F049FC00E090E0CDE9180125
:102C90006948006803C8CDE91001DDE9182304F094
:102CA00095FB654A126803C26348006850F8A81F84
:102CB0004068CDE908100846099905F04BFACDE9BE
:102CC0000A01DDE9142304F028FCCDE90E015A487D
:102CD000016851F8A80F4968CDE9080105F0AEF97F
:102CE000CDE90A01DDE9162304F017FCCDE90C015A
:102CF000DDE90E2304F06AFB21F00041544A554BF4
:102D0000CDE9100104F01AFD1FD84B480168D1E944
:102D10001401CDE90E0148480068C16D806DCDE910
:102D20000C01DDE90E2304F0F2FB21F00041464ADC
:102D3000464BCDE9100104F001FD06D201204649C1
:102D4000464A126841F8220005E000204249434A01
:102D5000126841F8220041480068401C0A2190FB9B
:102D6000F1F201FB12003D4908600020139009E0D8
:102D70003949139851F82010129801441291139870
:102D8000401C139013980A28F2DB12980A2809D1E4
:102D900033480068007F012804D12749096881F879
:102DA000790004E000202449096881F879000021B5
:102DB00024482C4A126842F8801F50601E48006860
:102DC000C1688068204A284BCDE9100104F0CAFC94
:102DD00006D21D482449184A1268C2E9020110E0CF
:102DE00015480068C1688068174A204BCDE910017A
:102DF00004F0A4FC05D214491C480F4A1268C2E929
:102E000002101848016851F8980F4968CDE90C0183
:102E10001448006850F8901F4068CDE90A10084631
:102E20000BA90EC904F079FBCDE90E010248016837
:102E3000D1E908011CE0000030000020000014402F
:102E40003333C33F0000F03F9A9999999999A93F6C
:102E50007B14AE47E17A743FBC02002024000020BE
:102E60003C000020340000209999C93F9999C9BFBE
:102E7000CDE90C01DDE90E2304F0A8FACDE910013B
:102E8000FE480168D1E9040102460B46CDE90E0176
:102E9000DDE9100104F052FC22D2F948016851F832
:102EA000980F4968CDE90E01F548016851F8900F77
:102EB0004968CDE90C01DDE90E2304F02EFBCDE9D4
:102EC0001001EE480068416A006ACDE90E01DDE9B3
:102ED000102304F07BFAE94A1268C2E904014FE0CA
:102EE000E748006850F8981F4068CDE90C10E448A6
:102EF000016851F8900F4968CDE90A01DDE90C231A
:102F000004F00BFBCDE90E01DC480068416A006A61
:102F1000CDE90C01DDE90E2304F0F9FACDE9100149
:102F2000D64800684169006902460B46CDE90E01AA
:102F3000DDE9100104F016FC22D2D148006850F8F7
:102F4000981F4068CDE90E10CD48006850F8901FDA
:102F50004068CDE90C1008460DA90EC904F0DDFA51
:102F6000CDE91001C5480068416A006ACDE90E014B
:102F7000DDE9102304F0CBFAC04A1268C2E904016B
:102F8000BE480168D1E90401BE4ABF4BCDE910013A
:102F900004F0E8FB06D2BB49BB48B84A1268C2E954
:102FA000041010E0B548006841690069B54AB74BA4
:102FB000CDE9100104F0C2FB05D2B248B349AF4AD3
:102FC0001268C2E90401AD480168D1E90401AB4AC5
:102FD0001268C2E90801AA48006850F8981F4068C2
:102FE000CDE90C10A648016851F8880F4968CDE971
:102FF0000A01DDE90C2304F090FACDE90E019F48A7
:103000000168D1E90601CDE90C01DDE90E2304F0E8
:10301000DDF9CDE910019948016803C902460B4664
:10302000CDE90E01DDE9100104F088FB22D29448BD
:10303000016851F8980F4968CDE90E019048006881
:1030400050F8881F4068CDE90C1008460DA90EC93C
:1030500004F063FACDE9100188480068C16980690D
:10306000CDE90E01DDE9102304F0B0F9834A1268BE
:1030700003C24EE08248016851F8980F4968CDE9D3
:103080000C017F48006850F8881F4068CDE90A109D
:1030900008460BA90EC904F040FACDE90E017748A5
:1030A0000168D1E90601CDE90C01DDE90E2304F048
:1030B0002EFACDE910017148016803C902460B469A
:1030C000CDE90E01DDE9100104F04CFB21D26C4882
:1030D000006850F8981F4068CDE90E1068480068F5
:1030E00050F8881F4068CDE90C1008460DA90EC99C
:1030F00004F013FACDE9100160480168D1E9060136
:10310000CDE90E01DDE9102304F001FA5B4A1268F3
:1031100003C25A48016803C9584A1268C2E9060145
:103120005648006890F8780001287DD1544800681E
:10313000C1688068CDE906015148006803C8CDE93F
:103140000401DDE9062304F041F9CDE908014B480B
:10315000006841690069CDE90601DDE9082304F052
:10316000DCF900224FF08043CDE90A0104F047FA70
:10317000CDE90E0141480168D1E90201CDE90A011A
:103180003E48016803C9CDE90801DDE90A2304F0DE
:10319000BEF9CDE90C01DDE90E2304F0B8F9CDE963
:1031A00010013748006850F8801F40680A460346FF
:1031B000CDE90E10DDE9100104F0AFF9344A1268D0
:1031C000C2E90E012E480068C1688068CDE9060199
:1031D0002B48006803C8CDE90401DDE9062304F0AB
:1031E000F5F8CDE9080125480168D1E90401CDE9E8
:1031F0000601DDE9082304F090F900224FF0804336
:10320000CDE90A0104F0FBF9CDE90E011B48016884
:10321000D1E90201CDE90A011848006803C8CDE9E7
:103220000801DDE90A2300E0C2E004F0CFF8CDE9AF
:103230000C01DDE90E2304F0C9F8CDE910011048B6
:10324000016851F8800F4968CDE90E01DDE91023CE
:1032500004F063F90E4A126802F1F002C2E90E01AD
:1032600007480068C1688068CDE906010448016824
:1032700003C9CDE90401DDE906230BE0300000209D
:10328000340000209A9999999999D93F9999D9BF71
:103290003800002004F09AF8CDE90801FE480068E3
:1032A00041690069CDE90601DDE9082304F035F93B
:1032B00000224FF08043CDE90A0104F0A0F9CDE9E6
:1032C0000E01F5480068C1688068CDE90A01F2483E
:1032D000006803C8CDE90801DDE90A2304F076F8A7
:1032E000CDE90C01DDE90E2304F011F9CDE910015F
:1032F000EA48006850F8801F40680A460346CDE956
:103300000E10DDE9100104F008F9E54A126802F533
:10331000067203C2E1480168D1E90201CDE9060164
:10332000DE48006803C8CDE90401DDE9062304F0A6
:103330004DF8CDE90801D8480168D1E90401CDE98B
:103340000601DDE9082304F0E8F800224FF080438D
:10335000CDE90A0104F053F9CDE90E01CE48006829
:10336000C1688068CDE90A01CB48006803C8CDE98F
:103370000801DDE90A2304F0CAF8CDE90C01DDE912
:103380000E2304F023F8CDE91001C448006850F87A
:10339000801F40680A460346CDE90E10DDE91001A2
:1033A00004F0BBF8BE4A126802F5427203C27AE228
:1033B000B948006890F8780005287DD1B7480168C1
:1033C000D1E90201CDE90601B448016803C9CDE99C
:1033D0000401DDE9062303F0F9FFCDE90801AE4859
:1033E000006841690069CDE90601DDE9082304F0C0
:1033F00094F800224FF08043CDE90A0104F0FFF871
:10340000CDE90E01A448016803C981F00041CDE96E
:103410000A01A1480168D1E90201CDE90801DDE90D
:103420000A2304F077F8CDE90C01DDE90E2304F05E
:103430006EF8CDE910019948016851F8800F49688C
:10344000CDE90E01DDE9102304F067F8944A126813
:10345000C2E90E0191480068C1688068CDE90601A3
:103460008E48006803C8CDE90401DDE9062303F0B6
:10347000ADFFCDE908018848006841690069CDE9E0
:103480000601DDE9082304F048F800224FF08043EC
:10349000CDE90A0104F0B3F8CDE90E017E480168D8
:1034A00003C981F00041CDE90A017B480068C16889
:1034B0008068CDE9080100E0BBE0DDE90A2303F004
:1034C00085FFCDE90C01DDE90E2303F07FFFCDE997
:1034D00010017248006850F8801F40680A46034691
:1034E000CDE90E10DDE9100104F017F86C4A1268FE
:1034F00002F1F002C2E90E0168480168D1E9020157
:10350000CDE906016548006803C8CDE90401DDE99D
:10351000062303F05BFFCDE908015F4800684169BD
:103520000069CDE90601DDE9082303F0F6FF00227A
:103530004FF08043CDE90A0104F061F8CDE90E01B6
:103540005548016803C981F00041CDE90A0152489C
:103550000068C1688068CDE90801DDE90A2303F04D
:1035600035FFCDE90C01DDE90E2303F0D0FFCDE9F5
:1035700010014A48006850F8801F40680A46034618
:10358000CDE90E10DDE9100103F0C7FF444A1268CF
:1035900002F5067203C241480068C1688068CDE93F
:1035A00006013E48006803C8CDE90401DDE90623B1
:1035B00003F00CFFCDE9080137480168D1E90401A7
:1035C000CDE90601DDE9082303F0A7FF00224FF053
:1035D0008043CDE90A0104F012F8CDE90E012E482E
:1035E000016803C981F00041CDE90A012A48016858
:1035F000D1E90201CDE90801DDE90A2303F08AFFE0
:10360000CDE90C01DDE90E2303F0E0FECDE9100168
:103610002248016851F8800F4968CDE90E01DDE9C3
:10362000102303F07AFF1E4A126802F5427203C2A9
:1036300039E11A480168D1E90201CDE906011748CC
:10364000016803C9CDE90401DDE9062303F0BEFEEC
:10365000CDE908011048006841690069CDE906011B
:10366000DDE9082303F059FF00224FF08043CDE944
:103670000A0103F0C4FFCDE90E0107480168D1E952
:103680000201CDE90A010448006803C8CDE9080138
:10369000DDE90A2306E000003000002034000020AD
:1036A0003800002003F033FFCDE90C01DDE90E23E3
:1036B00003F02DFFCDE91001BB48006850F8801FD2
:1036C00040680A460346CDE90E10DDE9100103F01B
:1036D00024FFB64A1268C2E90E01B3480068C16807
:1036E0008068CDE90601B048006803C8CDE904014F
:1036F000DDE9062303F06AFECDE90801AC48016864
:10370000D1E90401CDE90601DDE9082303F005FF55
:1037100000224FF08043CDE90A0103F070FFCDE9AC
:103720000E01A3480068C1688068CDE90A01A0487D
:10373000006803C8CDE90801DDE90A2303F046FE6D
:10374000CDE90C01DDE90E2303F040FECDE91001C7
:103750009548016851F8800F4968CDE90E01DDE90F
:10376000102303F0DAFE914A126802F1F002C2E976
:103770000E018D480168D1E90201CDE906018A48B0
:10378000016803C9CDE90401DDE9062303F01EFE4B
:10379000CDE9080186480168D1E90401CDE90601B7
:1037A000DDE9082303F0B9FE00224FF08043CDE9A4
:1037B0000A0103F024FFCDE90E017D480068C168CD
:1037C0008068CDE90A017A48006803C8CDE908019C
:1037D000DDE90A2303F0FAFDCDE90C01DDE90E2352
:1037E00003F095FECDE910016F48006850F8801F86
:1037F00040680A460346CDE90E10DDE9100103F0EA
:103800008CFE6A4A126802F5067203C266480068B6
:10381000C1688068CDE906016348006803C8CDE946
:103820000401DDE9062303F0D1FDCDE9080160487C
:103830000168D1E90401CDE90601DDE9082303F0BF
:103840006CFE00224FF08043CDE90A0103F0D7FE61
:10385000CDE90E0156480068C1688068CDE90A01CB
:103860005348016803C9CDE90801DDE90A2303F0E3
:103870004EFECDE90C01DDE90E2303F0A7FDCDE9F5
:1038800010014948006850F8801F40680A46034606
:10389000CDE90E10DDE9100103F03FFE434A126846
:1038A00002F5427203C21DB000BD2DE9F04788B099
:1038B0004FF0000A00BF65E03B48006890F8C20086
:1038C00000283FD1CAEB0A1238490968383101EBA8
:1038D0000211486903F002FF8046894632480068B9
:1038E000CAEB0A11D0E9064330480068383000EBD3
:1038F00001102246D0E90061304603F00EFE00229E
:103900002C4BCDE9000103F008FE42464B46CDE9C1
:10391000020103F002FECDE9040123480068D0E96A
:1039200004432246049803F06AFECDE9060103F041
:10393000E6FECAEB0A121D490968383101EB021193
:1039400008610CE00021CAEB0A1218480068383000
:1039500000EB021001610421174801F06CF8504699
:1039600000F028FB0021CAEB0A121048006838302A
:1039700000EB021080F8361044F62060FCF76CFE75
:103980000AF1010ABAF1060F96DB08B0BDE8F0872C
:1039900070B50024002500F0F5FA08480078401CB6
:1039A0000649087070BD0000340000203800002077
:1039B0003000002000004E40001801402900002087
:1039C00001808270C370704710B5002400BF59E1B8
:1039D000C4EB0412FD490968383101EB021101F111
:1039E0002A001023002246F24001FFF7E9FFC4EB52
:1039F0000412F6490968383101EB021101F1320075
:103A00001023002246F24101FFF7DAFFC4EB041253
:103A1000EE490968383101EB021101F13A0008233F
:103A2000002246F26001FFF7CBFFC4EB0412E74926
:103A30000968383101EB021101F14200082300222C
:103A400046F26101FFF7BCFFC4EB0412DF490968CD
:103A5000383101EB021101F152002023002242F221
:103A60006B01FFF7ADFFC4EB0412D8490968383188
:103A700001EB021101F14A002023002246F2FF016E
:103A8000FFF79EFFC4EB0412D0490968383101EBFF
:103A9000021101F15A002023002246F26B01FFF7C8
:103AA0008FFFC4EB0412C9490968383101EB0211D8
:103AB00001F162002023002246F26C01FFF780FF33
:103AC000C4EB0412C1490968383101EB021101F15C
:103AD0006A002023002246F27A01FFF771FFC4EB4F
:103AE0000412BA490968383101EB021101F1720080
:103AF0002023002246F26201FFF762FFC4EB0412AA
:103B0000B2490968383101EB021101F17A00202332
:103B1000002246F26401FFF753FFC4EB0412AB49E5
:103B20000968383101EB021101F1820020230022E3
:103B300046F27F01FFF744FFC4EB0412A349096872
:103B4000383101EB021101F18A00202301224FF4E8
:103B5000A051FFF735FFC4EB04129C4909683831C6
:103B600001EB021101F19200082302224FF4A0514F
:103B7000FFF726FFC4EB041294490968383101EBC2
:103B8000021101F19A00082300224FF4B051FFF70F
:103B900017FFC4EB04128D490968383101EB02119B
:103BA00001F1A200202301224FF4B051FFF708FFDA
:103BB000C4EB041285490968383101EB021101F1A7
:103BC000AA00202302224FF4B051FFF7F9FEC4EB04
:103BD00004127E490968383101EB021101F1B2008B
:103BE000202301224FF4C051FFF7EAFEC4EB041278
:103BF00076490968383101EB021101F1BA00082356
:103C000002224FF4C051FFF7DBFEC4EB04126F49F0
:103C10000968383101EB021101F1C20008230022CA
:103C20004FF4D051FFF7CCFEC4EB0412674909688A
:103C3000383101EB021101F1CA00202301224FF4B7
:103C4000D051FFF7BDFEC4EB04126049096838315A
:103C500001EB021101F1D200202302224FF4D051D6
:103C6000FFF7AEFEC4EB041258490968383101EB86
:103C7000021101F1DA001023002241F21701FFF7CF
:103C80009FFE641C062CFFF6A3AE10BD70B586B077
:103C900004460D461646601C40F4C06001900020AA
:103CA0008DF80C008DF80D0008208DF80E00C4EB87
:103CB000041146480068383000EB01102A3000EB50
:103CC000C500C078082806D0102813D018282CD09A
:103CD00020287DD150E0C4EB04123C480068383005
:103CE00000EB02102A3000EBC50006712F208DF882
:103CF0000F0079E0C4EB041234480068383000EB60
:103D000002102A3000EBC5000671310AC4EB041220
:103D10002E480068383000EB02102A3000EBC50056
:103D200041712B208DF80F005EE0C4EB0412274890
:103D30000068383000EB02102A3000EBC500067135
:103D4000310AC4EB041221480068383000EB02103D
:103D50002A3000EBC5004171310CC4EB04121B4842
:103D60000068383000EB02102A3000EBC50081718A
:103D700027208DF80F0037E0C4EB041213480068C9
:103D8000383000EB02102A3000EBC5000671310A12
:103D9000C4EB04120D480068383000EB02102A30E2
:103DA00000EBC5004171310CC4EB041207480068F8
:103DB000383000EB02102A3000EBC5008171310E63
:103DC000C4EB041201480068383002E038000020DB
:103DD00009E000EB02102A3000EBC500C17123207E
:103DE0008DF80F0000E000BF00BFC4EB0411944841
:103DF0000068383000EB01102A3010F835108DF8CB
:103E00001010C4EB04118E480068383000EB01102C
:103E10002A3030F83500010A8DF81110C4EB041176
:103E200087480068383000EB01102A3000EBC500ED
:103E300081788DF81210C4EB041181480068383085
:103E400000EB01102A3000EBC50001798DF813104A
:103E5000C4EB04117A480068383000EB01102A30B6
:103E600000EBC50041798DF81410C4EB04117448BF
:103E70000068383000EB01102A3000EBC500817972
:103E80008DF81510C4EB04116D480068383000EB54
:103E900001102A3000EBC500C1798DF8161001A978
:103EA000684801F021FF06B070BD30B585B004460A
:103EB0000D46601C40F4C060009000208DF80800A2
:103EC0008DF8090008208DF80A0040208DF80B00BD
:103ED000C4EB04115A480068383000EB01102A3056
:103EE00010F835108DF80C10C4EB0411544800681C
:103EF000383000EB01102A3030F83500010A8DF817
:103F00000D10C4EB04114E480068383000EB01106E
:103F10002A3000EBC50081788DF80E1069464948BB
:103F200001F0E2FE05B030BD00B585B00020009084
:103F30008DF808008DF8090002208DF80A00012094
:103F40008DF80B0000218DF80C1069463D4801F0FA
:103F5000CBFE05B000BD00B585B0002000908DF807
:103F600008008DF8090002208DF80A0080208DF8E5
:103F70000B0000218DF80C106946324801F0B4FEA8
:103F800005B000BD00B585B08020009000208DF800
:103F900008008DF8090002208DF80A0080208DF8B5
:103FA0000B0000218DF80C106946264801F09CFE9C
:103FB00005B000BD10B586B00446601C40F400702A
:103FC000019000208DF80C008DF80D0006208DF872
:103FD0000E000F208DF80F0000218DF81010C4EB9B
:103FE000041117480068383000EB0110017C8DF88F
:103FF0001110C4EB041112480068383000EB0110B6
:10400000008A010A8DF81210C4EB04110C480068F4
:10401000383000EB01100069010C8DF81310C4EB6F
:10402000041107480068383000EB01100069010EE8
:104030008DF8141001A9034801F056FE06B010BD1A
:10404000380000200064004070B5002400BF0CE080
:10405000C4EB0411FE480068383000EB0110D0F8C2
:104060007E00FC4941F82400641C042CF0DBFA4873
:10407000007E012878D1F9480078002854D1F6480C
:10408000406850B9F448806838B9F348006820B1F6
:104090000020F3490870F3490870EF48406850B9B0
:1040A000ED48806838B9EC48006820B90C20EC492C
:1040B0000870EC490870E848406810B1E6480068AC
:1040C00028B1E5488068B8B1E3480068A0B901208C
:1040D000E3490870E048406828B1DF48006810B93B
:1040E0000220E0490870DC48806828B1DA4800689E
:1040F00010B90320DB490870D7484068002807DD65
:10410000D548006820B10620D5490870D549087007
:10411000D1484068002807DACF48006820B1052060
:10412000CF490870CF490870CD4800780E287DD25D
:10413000DFE800F01BB27C7CDDFEFDFCFBFAF9F849
:10414000077D00240AE00021C4EB0413C04A126872
:10415000383202EB031211605160641C062CF2DB52
:104160000020BE490870A5E2A8E2BF48007848B91F
:104170000A20BB4908700020BB4908700120B749DC
:10418000087052E0B8480078012803D0B64800789B
:10419000032825D1B548B649AD4A1268C2E90E01D7
:1041A00002460846AA49096801F1F001C1E90E205A
:1041B0001046AF4AA649096801F5067105C10146D6
:1041C0001046A34A1268C2F80813C2F80C034FF055
:1041D0000100A24908704FF00D00A149087024E0C9
:1041E000A1480078022820D1A048A249984A126824
:1041F000C2E90E0102469648006800F1F000C0E9ED
:104200000E2193480068C0F81822C0F81C1290488C
:104210000068C0F80823C0F80C134FF001008F4964
:1042200008704FF00D008E49087043E23EE2894964
:10423000914A127851F82210904A1268881A01D4D3
:10424000014600E04142642925DC0020804A1268D2
:104250009063D06300227E49096801F1F0018A630E
:10426000CA6301467A480068C0F81812C0F81C12E8
:104270000846774A1268C2F80803C2F80C034FF0E8
:104280000A00774908704FF00000774908704FF036
:104290000100724908700DE27348007801281FD0B0
:1042A000724974486A4A1268C2E90E1002466848A8
:1042B000006800F1F000C0E90E121046644A12686E
:1042C000C2F81812C2F81C0208466A4A6049096816
:1042D00001F5427105C14FF004006149087002E028
:1042E0000A205F49087001205C490870E2E15949E1
:1042F000614A127851F82210604A1268881A01D473
:10430000014600E0414240F2E332914227DB0021C6
:104310004F4A12689163D1634D48006800F1F00084
:10432000816306E0B3E14DE113E141E0E0E079E0D3
:1043300016E0C1630A4646480068C0F81822C0F873
:104340001C22434A1268C2F80813C2F80C134FF03B
:104350000100454908704FF00A0041490870A9E181
:104360004148007802281ED001203C4908703E4890
:104370000078012817D13D483D49354A1268C2E905
:104380000E010A463249096801F1F001C1E90E0245
:1043900001462F48006800F5067006C02C480068EA
:1043A00000F5427006C04FF008002D49087081E109
:1043B0002849314A127851F82210304A1268881A76
:1043C00001D4014600E04142B1F5F77F29DD2149E2
:1043D000294A127851F82210284A1268914220DAAC
:1043E00000211B4A12689163D163194A126802F1D5
:1043F000F0029163D1630A4615480068C0F818229C
:10440000C0F81C220846124A1268C2F80803C2F813
:104410000C034FF00200144908704FF00A001049D5
:10442000087047E110480078022802D00E48007852
:1044300068B90120094908700C490E48044A1268FD
:10444000C2E90E1008460B4A0149096818E02CE041
:1044500038000020E4020020E80000204500002091
:104460004E0000204F000020440000207B14AE4787
:10447000E17A74BFE17A743F4D00002048000020CB
:1044800001F1F001C1E90E0211468D4A126802F5F0
:10449000067203C20A468A49096801F5427105C1DC
:1044A0004FF009008749087021E08748007801280B
:1044B0001DD18649087086488649814A1268C2E93A
:1044C0000E0102467E48006800F1F000C0E90E21AE
:1044D00010467B4A126802F5067203C2784A1268D7
:1044E00002F5427203C24FF0070076490870E1E01E
:1044F00079497A4A127851F82210794A1268881A52
:1045000001D4014600E04142B1F5FC7F20DC0020EF
:104510006B4A12689063D06300226948006800F11A
:10452000F0008263C2631146654A1268C2F818122D
:10453000C2F81C1262480068C0F80813C0F80C13D7
:104540004FF00300604908704FF00A005D490870A1
:10455000B0E06149614A127851F82210604A12684D
:10456000881A01D4014600E04142B1F5F77F28DD09
:1045700059495A4A127851F82210594A1268914200
:104580001FDD00214E4A12689163D16300224C481E
:10459000006800F1F0008263C26349480068C0F817
:1045A0001822C0F81C2246490968C1F80823C1F83E
:1045B0000C234FF00200444908704FF00A004149B3
:1045C000087077E047480078D8B94749086803F091
:1045D00085F805460022454B03F011F8384A126869
:1045E00002F57E7203C24049086803F077F8054679
:1045F00000223E4B03F003F8314A126802F59D6237
:1046000003C23848007802281BD13749486803F0B4
:1046100065F805460022354B02F0F1FF284A126882
:1046200002F57E7203C23049486803F057F8054628
:1046300000222E4B02F0E3FF214A126802F59D6230
:1046400003C22848007803281DD12749886803F051
:1046500045F805460022254B02F0D1FF184A1268A2
:1046600002F57E7203C22049886803F037F80546D8
:1046700000221E4B02F0C3FF81F00042104909687E
:1046800001F59D6105C100201049087012E016482F
:104690008068002802DD00200C49087012488068FC
:1046A000002802DA00200949087003E000200749C9
:1046B000087000BF00BF00200B49087670BD0000E5
:1046C000380000204E00002044000020450000205B
:1046D0007B14AE47E17A74BFE40200204D00002055
:1046E000480000204F000020E800002000407F40EC
:1046F0002DE9FE4306460C4615469946DDE90A7843
:104700000121102000F0AFFBADF80050ADF80440DF
:104710000020ADF80600ADF802008DF808006946EB
:10472000304601F019FF01221146304602F08BFAA3
:104730000121304602F06CFB0121304602F068FA9C
:10474000BDE8FE8331490143314A1160704770B5BD
:10475000002100230F22C4780CB32D4C246804F4EC
:10476000E064C4F5E064210AC1F10403CA4044785E
:1047700004FA03F18478144021430901254C06789A
:10478000A155047804F01F050124AC4005786D1193
:104790004FF0E02606EB8505C5F8004109E00478F6
:1047A00004F01F050124AC401B4D0678761145F836
:1047B000264070BD194A0A400243154B1B1F1A6060
:1047C000704739B1124A121D12680243104B1B1D6B
:1047D0001A6006E00E4A121D126882430C4B1B1D24
:1047E0001A607047042808D14FF0E021096941F0B0
:1047F00004014FF0E022116107E04FF0E021096968
:1048000021F004014FF0E022116170470000FA0529
:104810000CED00E000E400E080E100E080FFFF1F1D
:1048200010B50446CA48844208D10121042000F092
:1048300027FB0021042000F023FB46E0C54884420A
:1048400008D10121082000F01BFB0021082000F006
:1048500017FB3AE0C048844208D10121102000F043
:104860000FFB0021102000F00BFB2EE0BB48844220
:1048700008D10121202000F003FB0021202000F0BE
:10488000FFFA22E0B648844208D10121402000F01E
:10489000F7FA0021402000F0F3FA16E0B148844214
:1048A00008D10121802000F0EBFA0021802000F0E7
:1048B000E7FA0AE0AC48844207D10121801500F0F4
:1048C000DFFA0021A01500F0DBFA10BD10B50121C0
:1048D000084600F0D5FA0021012000F0D1FA10BD01
:1048E0002DE9F04102460025002600200023002487
:1048F000002791F803C00CF00F0591F803C01CF0DD
:10490000100F03D091F802C04CEA050591F800C0E1
:10491000BCF1000F31D0146800202BE04FF0010CE7
:104920000CFA00F3B1F800C00CEA03069E4220D155
:1049300083004FF00F0C0CFA03F7BC4305FA03FC9D
:104940004CEA040491F803C0BCF1280F06D14FF0E3
:10495000010C0CFA00FCC2F814C00AE091F803C084
:10496000BCF1480F05D14FF0010C0CFA00FCC2F865
:1049700010C0401C0828D1D31460B1F800C0BCF1AD
:10498000FF0F34DD546800202EE000F1080C4FF0DA
:10499000010808FA0CF3B1F800C00CEA03069E42C5
:1049A00021D183004FF00F0C0CFA03F7BC4305FA3A
:1049B00003FC4CEA040491F803C0BCF1280F05D1B4
:1049C00000F1080C08FA0CF8C2F8148091F803C042
:1049D000BCF1480F07D100F1080C4FF0010808FAAC
:1049E0000CF8C2F81080401C0828CED35460BDE8F3
:1049F000F0814FF6FF710180022181700421C170A6
:104A000070470246002093680B4201D0012000E06D
:104A1000002070470146886880B270470246002037
:104A2000D3680B4201D0012000E00020704701460E
:104A3000C86880B2704701617047416170470AB130
:104A4000016100E041617047C16070474FF48032FE
:104A50000A4382618161826182698269704702468C
:104A60000020424B18684FF68073184040EA02104D
:104A700008433E4B186070473D49C8617047F0B528
:104A80000A46002300240021002500F00046B6F16C
:104A9000004F02D1354EF16901E0344E7168C0F328
:104AA000034583B200F44016B6F5401F08D121F04B
:104AB00070612E4E766826F070662C4F7E6012E094
:104AC00000F48016B6F5801F06D1032606FA05F419
:104AD000A14341F0706106E0460D360103FA06F687
:104AE000B14341F0706122B1460D360103FA06F67A
:104AF000314300F00046B6F1004F02D11B4EF16188
:104B000001E01A4E7160F0BD30B500228B071C0F1A
:104B10000F2303FA04F2154B08338C1053F824309A
:104B20009343124C08348D1044F8253023468C10E2
:104B300053F824308C07240F00FA04F423430B4C61
:104B400008348D1044F8253030BD0A49086070479C
:104B500000080140000C0140001001400014014019
:104B600000180140001C01400020014000000140ED
:104B700000002042DC002042DD48006840F00100D7
:104B8000DB49086008464068DA490840D84948606F
:104B900008460068D8490840D549086008460068BA
:104BA00020F4802008600846406820F4FE00486039
:104BB0004FF41F0088607047CD49096821F48031A7
:104BC000CB4A11601146096821F480211160B0F5CB
:104BD000803F03D0B0F5802F0ED106E0C4490968AC
:104BE00041F48031C24A116007E0C149096841F4CB
:104BF000A021BF4A116000E000BF00BF704710B5A0
:104C000001460022002300204A11012A02D1B84C9B
:104C1000236806E0022A02D1B54C236A01E0B44CB5
:104C2000636A01F01F02012494401C4201D001205C
:104C300000E0002010BD38B50020009000240025C1
:104C400000BF3120FFF7DBFF05460098401C0090B5
:104C50000098B0F5A06F01D0002DF2D03120FFF701
:104C6000CEFF08B1012400E00024204638BD0146F3
:104C700000209F4A106820F0F80040EAC100106050
:104C800070479E490860704702460020984B58685C
:104C900020F47C1042EA01031843954B586070479A
:104CA00096490866704701460020914A506820F0F6
:104CB00003000843506070478D48406800F00C00C6
:104CC0007047014600208A4A506820F0F0000843EF
:104CD0005060704701460020854A506820F4E0602B
:104CE00008435060704701460020814A506820F414
:104CF000605040EAC1005060704729B17C4A527A46
:104D000002437B4B5A7204E0794A527A8243784BD1
:104D10005A7270477A490860704701460020744A09
:104D2000506820F440400843506070470021754AA5
:104D300011706F4A82F82010012802D0042808D18F
:104D400003E001216F4A117004E005216D4A1170E2
:104D500000E000BF00BF70476B49086070476449BE
:104D6000096A0143624A1162704767494439086021
:104D7000704730B500210022002400235C4D6D688F
:104D800005F00C0121B1042905D0082923D105E043
:104D90005E4D056022E05D4D05601FE0544D6D687D
:104DA00005F47012524D6D6805F48034022505EB50
:104DB00092421CB9564D554305600BE04C4D6D6851
:104DC00015F4003F03D0524D5543056002E04F4DAE
:104DD0005543056002E04D4D056000BF00BF444DE6
:104DE0006D6805F0F00109094A4D6B5C0568DD400E
:104DF00045603F4D6D6805F4E061090A454D6B5C07
:104E00004568DD4085603A4D6D6805F46051C90A1A
:104E1000404D6B5C4568DD40C560354D6D6805F4FF
:104E20004041890B3C4D6B5CC568B5FBF3F50561F2
:104E300030BD29B12E4A526902432D4B5A6104E01C
:104E40002B4A526982432A4B5A61704729B1284A3A
:104E500092690243264B9A6104E0254A9269824393
:104E6000234B9A61704729B1214AD2690243204BF2
:104E7000DA6104E01E4AD26982431D4BDA61704751
:104E800029B11B4AD2680243194BDA6004E0184A80
:104E9000D2688243164BDA60704729B1144A12690E
:104EA0000243134B1A6104E0114A12698243104B0A
:104EB0001A61704714494039086070470F49C86447
:104EC00070470B49C87170470948406A40F08070CC
:104ED00007494862704701460020054A92680A4225
:104EE00001D0012000E0002070470149887270471E
:104EF000001002400000FFF8FFFFF6FE00004242F3
:104F0000D8004242201002408004424200127A003F
:104F100000093D00500000206000002010B504464C
:104F2000FB48844209D101218803FFF7A9FF002132
:104F30004FF48040FFF7A4FF32E0F648844209D1E5
:104F400001214804FFF7A9FF00214FF40030FFF7CB
:104F5000A4FF25E0F048844209D101218804FFF72D
:104F60009CFF00214FF48020FFF797FF18E0EB48EB
:104F7000844209D10121C804FFF78FFF00214FF4BB
:104F80000020FFF78AFF0BE0E548844208D10121A9
:104F90000805FFF782FF00214FF48010FFF77DFF27
:104FA00010BD2DE9F04786B005460E460024A24606
:104FB00000BFA1460027B08900B100BF2F462C8A50
:104FC0004CF6FF700440F08804432C82AC894EF606
:104FD000F3100440B08831890843718908430443C1
:104FE000AC81AC8A4FF6FF400440B0890443AC82E8
:104FF00001A8FFF7BEFEC648874202D1DDF810A027
:1050000001E0DDF80CA0A88910F4004F08D00AEBED
:10501000CA0000EB0A1031684900B0FBF1F807E064
:105020000AEBCA0000EB0A1031688900B0FBF1F806
:105030006420B8FBF0F004012009642101FB108911
:10504000A88910F4004F08D0322000EBC900B0FB53
:10505000F1F000F00700044308E0322000EB0910F3
:105060006421B0FBF1F000F00F0004432C8106B086
:10507000BDE8F0874FF41651016000218180C180A6
:1050800001810C21418100218181704710B50246C8
:105090000020108A4FF2FF0318400B884C882343EE
:1050A0008C882343CC8823431843108210BD0021F1
:1050B000018041808180C180704721B1828942F4A2
:1050C0000052828104E082894DF6FF731A4082818A
:1050D0007047F0B503460024002600250020A1F506
:1050E00010676A3F00D100BF1846C1F3421401F0B7
:1050F0001F06012707FA06F5012C01D10C3004E048
:10510000022C01D1103000E014301AB107682F438F
:10511000076002E00768AF430760F0BD1AB1838AF9
:105120000B43838202E0838A8B4383827047028A27
:105130004FF6F0731A400282028A0A4302827047D5
:1051400082894FF2FF731A40828182890A438281E9
:10515000704721B1828942F00202828104E0828993
:105160004FF6FD731A4082817047028A4FF6DF7353
:105170001A400282028A0A430282704721B1028ADF
:1051800042F48042028204E0028A4BF6FF731A4026
:1051900002827047C1F30802828070470146888806
:1051A000C0F308007047818941F001018181704797
:1051B000028BD2B20283028B42EA01220283704741
:1051C000028B02F47F420283028B0A430283704700
:1051D00021B1828A42F02002828204E0828A4FF664
:1051E000DF731A408282704721B1828A42F0100236
:1051F000828204E0828A4FF6EF731A4082827047FF
:1052000021B1828A42F00802828204E0828A4FF64B
:10521000F7731A408282704721B1828942F40042BA
:10522000828103E08289C2F30E028281704721B13C
:10523000828A42F40062828204E0828A4FF2FF7323
:105240001A4082827047828A4FF6FB731A4082822C
:10525000828A0A438282704721B1828A42F0020226
:10526000828204E0828A4FF6FD731A408282704780
:1052700002460020B1F5007F00D100BF13880B4229
:1052800001D0012000E00020704701F40072B2F567
:10529000007F00D100BFCA4302807047F0B50246CC
:1052A00000240023002500260020A1F510676A3F96
:1052B00000D100BFC1F3421501F01F03012707FA17
:1052C00003F3012D02D197893B4006E0022D02D164
:1052D000178A3B4001E0978A3B400C12012707FAEE
:1052E00004F41688344013B10CB1012000E0002012
:1052F000F0BD10B500220023A1F510646A3C00D176
:1053000000BF0A1201249440A3B2DC43048010BD04
:10531000003801400044004000480040004C00407C
:105320000050004001684FF6FE72114001600021FC
:10533000016041608160C1608C49884208D18B491D
:105340000839496841F00F01884A083A51608AE0FB
:1053500086491431884208D184490839496841F0A6
:10536000F001824A083A51607DE080492831884244
:1053700008D17E490839496841F470617B4A083A8E
:10538000516070E079493C31884208D17749083949
:10539000496841F47041754A083A516063E07349C5
:1053A0005031884208D171490839496841F4702167
:1053B0006E4A083A516056E06C496431884208D11F
:1053C0006A490839496841F47001684A083A5160ED
:1053D00049E066497831884208D16449083949680A
:1053E00041F07061614A083A51603CE0604988428E
:1053F00006D1011F096841F00F01021F116032E060
:105400005B491431884208D15949091F096841F0A4
:10541000F001574A121F116025E055492831884292
:1054200008D15349091F096841F47061504A121F9D
:10543000116018E04E493C31884208D14C49091F9F
:10544000096841F470414A4A121F11600BE0484953
:105450005031884207D14649091F096841F470213B
:10546000434A121F1160704710B50022026847F6C8
:10547000F0739A430C6A8B6823430C6923434C698D
:1054800023438C692343CC6923434C6A23438C6AAE
:1054900023431A430260CB6843600B6883604B6808
:1054A000C36010BD0021016041608160C160016185
:1054B00041618161C161016241628162704721B1D4
:1054C000026842F00102026004E002684FF6FE73D7
:1054D0001A40026070471AB103680B43036002E090
:1054E00003688B430360704741607047014648681A
:1054F00080B2704701460020002211F0805F03D087
:105500001B4B083B1A6802E0184B083B1A680A421A
:1055100001D0012000E00020704710F0805F03D030
:105520001349091F086002E01049083948607047B4
:1055300001460020002211F0805F03D00C4B083B95
:105540001A6802E0094B083B1A680A4201D00120A0
:1055500000E00020704710F0805F03D00449091F6D
:10556000086002E0014908394860704708000240BD
:105570000804024010B50446FA48844208D10121CB
:105580004015FFF77DFC00216015FFF779FC17E05F
:10559000F548844208D101210015FFF771FC002174
:1055A0002015FFF76DFC0BE0F048844208D1012183
:1055B000C803FFF765FC00214FF40040FFF760FCD3
:1055C00010BD30B50246002000235068E84C204052
:1055D0000D790C6844EA0524204350609068E54C3E
:1055E0002040D1E902542C434D7944EA450420433C
:1055F0009060D06A20F470000C7C641EE4B22343F7
:1056000040EA0350D06230BD002101600171417158
:105610008160C16001210174704721B1826842F04C
:105620000102826003E0826822F00102826070471A
:1056300021B1826842F48072826003E0826822F4C1
:1056400080728260704710B50023CBB21AB14468F3
:105650001C43446002E044689C43446010BD816880
:1056600041F0080181607047014600208A6812F00D
:10567000080F01D0012000E000207047816841F050
:10568000040181607047014600208A6812F0040F0F
:1056900001D0012000E00020704721B1826842F46F
:1056A000A002826003E0826822F4A0028260704758
:1056B000014600208A6812F4800F01D0012000E02A
:1056C0000020704710B50A4600210023416821F4EC
:1056D0006041531E41EA4331416010BD21B142682F
:1056E00042F40062426003E0426822F400624260D9
:1056F0007047F0B504460D4600200021092D11DD4C
:10570000E068A5F10A0606EB4607072606FA07F148
:105710008843A5F10A0606EB460603FA06F108439C
:10572000E0600CE0206905EB4507072606FA07F163
:10573000884305EB450603FA06F108432061072A72
:105740000FDA606B561E06EB86071F2606FA07F176
:105750008843561E06EB860605FA06F10843606389
:1057600022E00D2A0FDA206BD61F06EB86071F26D4
:1057700006FA07F18843D61F06EB860605FA06F1FE
:105780000843206310E0E06AA2F10D0606EB8607ED
:105790001F2606FA07F18843A2F10D0606EB8606DE
:1057A00005FA06F10843E062F0BD21B1826842F4D7
:1057B0008012826003E0826822F480128260704767
:1057C0000146C86C80B2704766484C30006870472C
:1057D00021B1426842F48062426003E0426822F4F0
:1057E00080624260704721B1426842F48052426058
:1057F00003E0426822F48052426070470A4600216A
:10580000816821F4E04111438160704721B18268D1
:1058100042F40042826003E0826822F40042826027
:10582000704721B1826842F40212826003E082680C
:1058300022F4021282607047014600208A6812F446
:10584000001F01D0012000E000207047F0B50446A1
:105850001546002000220026092911DDE068A1F18B
:105860000A0707EB470C072707FA0CF29043A1F150
:105870000A0707EB470703FA07F21043E0600CE062
:10588000206901EB410C072707FA0CF2904301EB6A
:10589000410703FA07F210432061A06BC0F30156E1
:1058A000EF1C06F1010CA7EB0C0707EB870C1F2779
:1058B00007FA0CF29043EF1C06F1010CA7EB0C0762
:1058C00007EB870701FA07F21043A063F0BD10B59C
:1058D0000A4600210023816B21F44011531E41EA46
:1058E0000351816310BD08B5002300930090009B15
:1058F0000B440093009B1A6008BD08B502460020C7
:105900000090009201F12800009B1844009000983C
:10591000006880B208BD0A4600214168164B194054
:105920001143416070474162826270470A4600211C
:10593000416821F01F0111434160704740B109499E
:105940000831096841F40001064A0832116007E095
:1059500004490831096821F40001024A0832116043
:10596000704700000024014000280140003C014035
:10597000FFFEF0FFFDF7F1FFFFFD3FFF02460020B5
:1059800013680B4201D0012000E000207047CA4399
:105990000260704770B502460020002300240B12FD
:1059A0005568CEB205EA060415681D4202D00CB156
:1059B000012000E0002070BD00220A12D3430360E2
:1059C0007047000010B50446FE48844209D1012109
:1059D0004806FFF762FA00214FF00070FFF75DFA0A
:1059E00008E001218806FFF758FA00214FF0806097
:1059F000FFF753FA10BD30B50246002000231468AB
:105A000024F002041460146844F00104146000E0FF
:105A10005B1C546814F0010F03D1A3F57F44FF3CD5
:105A2000F6D1546814F0010F01D100206CE08C799C
:105A3000012C04D1146844F08004146003E014685D
:105A400024F080041460CC79012C04D1146844F053
:105A50004004146003E0146824F0400414600C7ADD
:105A6000012C04D1146844F02004146003E014688D
:105A700024F0200414604C7A012C04D1146844F002
:105A80001004146003E0146824F0100414608C7A8D
:105A9000012C04D1146844F00804146003E0146875
:105AA00024F008041460CC7A012C04D1146844F06A
:105AB0000404146003E0146824F0040414608C7877
:105AC000A407CD7844EA05640D7944EA05444D798C
:105AD00044EA05540D886D1E2C43D461146824F0EB
